{
	"contracts/crowdfunding.sol": {
		"CrowdFunding": {
			"abi": [
				{
					"inputs": [
						{
							"internalType": "uint256",
							"name": "_goal",
							"type": "uint256"
						},
						{
							"internalType": "uint256",
							"name": "_deadline",
							"type": "uint256"
						}
					],
					"stateMutability": "nonpayable",
					"type": "constructor"
				},
				{
					"anonymous": false,
					"inputs": [
						{
							"indexed": false,
							"internalType": "address",
							"name": "_sender",
							"type": "address"
						},
						{
							"indexed": false,
							"internalType": "uint256",
							"name": "_value",
							"type": "uint256"
						}
					],
					"name": "ContributeEvent",
					"type": "event"
				},
				{
					"anonymous": false,
					"inputs": [
						{
							"indexed": false,
							"internalType": "string",
							"name": "_description",
							"type": "string"
						},
						{
							"indexed": false,
							"internalType": "address",
							"name": "_recipient",
							"type": "address"
						},
						{
							"indexed": false,
							"internalType": "uint256",
							"name": "_value",
							"type": "uint256"
						}
					],
					"name": "CreateRequestEvent",
					"type": "event"
				},
				{
					"anonymous": false,
					"inputs": [
						{
							"indexed": false,
							"internalType": "address",
							"name": "_recipient",
							"type": "address"
						},
						{
							"indexed": false,
							"internalType": "uint256",
							"name": "_value",
							"type": "uint256"
						}
					],
					"name": "MakePaymentEvent",
					"type": "event"
				},
				{
					"inputs": [],
					"name": "admin",
					"outputs": [
						{
							"internalType": "address",
							"name": "",
							"type": "address"
						}
					],
					"stateMutability": "view",
					"type": "function"
				},
				{
					"inputs": [],
					"name": "contribute",
					"outputs": [],
					"stateMutability": "payable",
					"type": "function"
				},
				{
					"inputs": [
						{
							"internalType": "address",
							"name": "",
							"type": "address"
						}
					],
					"name": "contributors",
					"outputs": [
						{
							"internalType": "uint256",
							"name": "",
							"type": "uint256"
						}
					],
					"stateMutability": "view",
					"type": "function"
				},
				{
					"inputs": [
						{
							"internalType": "string",
							"name": "_description",
							"type": "string"
						},
						{
							"internalType": "address payable",
							"name": "_recipient",
							"type": "address"
						},
						{
							"internalType": "uint256",
							"name": "_value",
							"type": "uint256"
						}
					],
					"name": "createRequest",
					"outputs": [],
					"stateMutability": "nonpayable",
					"type": "function"
				},
				{
					"inputs": [],
					"name": "deadline",
					"outputs": [
						{
							"internalType": "uint256",
							"name": "",
							"type": "uint256"
						}
					],
					"stateMutability": "view",
					"type": "function"
				},
				{
					"inputs": [],
					"name": "getBalance",
					"outputs": [
						{
							"internalType": "uint256",
							"name": "",
							"type": "uint256"
						}
					],
					"stateMutability": "view",
					"type": "function"
				},
				{
					"inputs": [],
					"name": "getRefund",
					"outputs": [],
					"stateMutability": "nonpayable",
					"type": "function"
				},
				{
					"inputs": [],
					"name": "goal",
					"outputs": [
						{
							"internalType": "uint256",
							"name": "",
							"type": "uint256"
						}
					],
					"stateMutability": "view",
					"type": "function"
				},
				{
					"inputs": [
						{
							"internalType": "uint256",
							"name": "_requestNo",
							"type": "uint256"
						}
					],
					"name": "makePayment",
					"outputs": [],
					"stateMutability": "nonpayable",
					"type": "function"
				},
				{
					"inputs": [],
					"name": "minimumContribution",
					"outputs": [
						{
							"internalType": "uint256",
							"name": "",
							"type": "uint256"
						}
					],
					"stateMutability": "view",
					"type": "function"
				},
				{
					"inputs": [],
					"name": "noOfContributors",
					"outputs": [
						{
							"internalType": "uint256",
							"name": "",
							"type": "uint256"
						}
					],
					"stateMutability": "view",
					"type": "function"
				},
				{
					"inputs": [],
					"name": "numRequests",
					"outputs": [
						{
							"internalType": "uint256",
							"name": "",
							"type": "uint256"
						}
					],
					"stateMutability": "view",
					"type": "function"
				},
				{
					"inputs": [],
					"name": "raisedAmount",
					"outputs": [
						{
							"internalType": "uint256",
							"name": "",
							"type": "uint256"
						}
					],
					"stateMutability": "view",
					"type": "function"
				},
				{
					"inputs": [
						{
							"internalType": "uint256",
							"name": "",
							"type": "uint256"
						}
					],
					"name": "requests",
					"outputs": [
						{
							"internalType": "string",
							"name": "description",
							"type": "string"
						},
						{
							"internalType": "address payable",
							"name": "recipient",
							"type": "address"
						},
						{
							"internalType": "uint256",
							"name": "value",
							"type": "uint256"
						},
						{
							"internalType": "bool",
							"name": "completed",
							"type": "bool"
						},
						{
							"internalType": "uint256",
							"name": "noOfVoters",
							"type": "uint256"
						}
					],
					"stateMutability": "view",
					"type": "function"
				},
				{
					"inputs": [
						{
							"internalType": "uint256",
							"name": "_requestNo",
							"type": "uint256"
						}
					],
					"name": "voteRequest",
					"outputs": [],
					"stateMutability": "nonpayable",
					"type": "function"
				}
			],
			"devdoc": {
				"kind": "dev",
				"methods": {},
				"version": 1
			},
			"evm": {
				"assembly": "    /* \"contracts/crowdfunding.sol\":71:4262  contract CrowdFunding {... */\n  mstore(0x40, 0x80)\n    /* \"contracts/crowdfunding.sol\":1033:1217  constructor(uint _goal, uint _deadline) {... */\n  callvalue\n  dup1\n  iszero\n  tag_1\n  jumpi\n  0x00\n  dup1\n  revert\ntag_1:\n  pop\n  mload(0x40)\n  sub(codesize, bytecodeSize)\n  dup1\n  bytecodeSize\n  dup4\n  codecopy\n  dup2\n  dup2\n  add\n  0x40\n  mstore\n  dup2\n  add\n  swap1\n  tag_2\n  swap2\n  swap1\n  tag_3\n  jump\t// in\ntag_2:\n    /* \"contracts/crowdfunding.sol\":1090:1095  _goal */\n  dup2\n    /* \"contracts/crowdfunding.sol\":1083:1087  goal */\n  0x05\n    /* \"contracts/crowdfunding.sol\":1083:1095  goal = _goal */\n  dup2\n  swap1\n  sstore\n  pop\n    /* \"contracts/crowdfunding.sol\":1134:1143  _deadline */\n  dup1\n    /* \"contracts/crowdfunding.sol\":1116:1131  block.timestamp */\n  timestamp\n    /* \"contracts/crowdfunding.sol\":1116:1143  block.timestamp + _deadline */\n  tag_6\n  swap2\n  swap1\n  tag_7\n  jump\t// in\ntag_6:\n    /* \"contracts/crowdfunding.sol\":1105:1113  deadline */\n  0x04\n    /* \"contracts/crowdfunding.sol\":1105:1143  deadline = block.timestamp + _deadline */\n  dup2\n  swap1\n  sstore\n  pop\n    /* \"contracts/crowdfunding.sol\":1161:1171  msg.sender */\n  caller\n    /* \"contracts/crowdfunding.sol\":1153:1158  admin */\n  0x01\n  0x00\n    /* \"contracts/crowdfunding.sol\":1153:1171  admin = msg.sender */\n  0x0100\n  exp\n  dup2\n  sload\n  dup2\n  0xffffffffffffffffffffffffffffffffffffffff\n  mul\n  not\n  and\n  swap1\n  dup4\n  0xffffffffffffffffffffffffffffffffffffffff\n  and\n  mul\n  or\n  swap1\n  sstore\n  pop\n    /* \"contracts/crowdfunding.sol\":1203:1210  100 wei */\n  0x64\n    /* \"contracts/crowdfunding.sol\":1181:1200  minimumContribution */\n  0x03\n    /* \"contracts/crowdfunding.sol\":1181:1210  minimumContribution = 100 wei */\n  dup2\n  swap1\n  sstore\n  pop\n    /* \"contracts/crowdfunding.sol\":1033:1217  constructor(uint _goal, uint _deadline) {... */\n  pop\n  pop\n    /* \"contracts/crowdfunding.sol\":71:4262  contract CrowdFunding {... */\n  jump(tag_8)\n    /* \"#utility.yul\":88:205   */\ntag_10:\n    /* \"#utility.yul\":197:198   */\n  0x00\n    /* \"#utility.yul\":194:195   */\n  dup1\n    /* \"#utility.yul\":187:199   */\n  revert\n    /* \"#utility.yul\":334:411   */\ntag_12:\n    /* \"#utility.yul\":371:378   */\n  0x00\n    /* \"#utility.yul\":400:405   */\n  dup2\n    /* \"#utility.yul\":389:405   */\n  swap1\n  pop\n    /* \"#utility.yul\":334:411   */\n  swap2\n  swap1\n  pop\n  jump\t// out\n    /* \"#utility.yul\":417:539   */\ntag_13:\n    /* \"#utility.yul\":490:514   */\n  tag_22\n    /* \"#utility.yul\":508:513   */\n  dup2\n    /* \"#utility.yul\":490:514   */\n  tag_12\n  jump\t// in\ntag_22:\n    /* \"#utility.yul\":483:488   */\n  dup2\n    /* \"#utility.yul\":480:515   */\n  eq\n    /* \"#utility.yul\":470:533   */\n  tag_23\n  jumpi\n    /* \"#utility.yul\":529:530   */\n  0x00\n    /* \"#utility.yul\":526:527   */\n  dup1\n    /* \"#utility.yul\":519:531   */\n  revert\n    /* \"#utility.yul\":470:533   */\ntag_23:\n    /* \"#utility.yul\":417:539   */\n  pop\n  jump\t// out\n    /* \"#utility.yul\":545:688   */\ntag_14:\n    /* \"#utility.yul\":602:607   */\n  0x00\n    /* \"#utility.yul\":633:639   */\n  dup2\n    /* \"#utility.yul\":627:640   */\n  mload\n    /* \"#utility.yul\":618:640   */\n  swap1\n  pop\n    /* \"#utility.yul\":649:682   */\n  tag_25\n    /* \"#utility.yul\":676:681   */\n  dup2\n    /* \"#utility.yul\":649:682   */\n  tag_13\n  jump\t// in\ntag_25:\n    /* \"#utility.yul\":545:688   */\n  swap3\n  swap2\n  pop\n  pop\n  jump\t// out\n    /* \"#utility.yul\":694:1201   */\ntag_3:\n    /* \"#utility.yul\":773:779   */\n  0x00\n    /* \"#utility.yul\":781:787   */\n  dup1\n    /* \"#utility.yul\":830:832   */\n  0x40\n    /* \"#utility.yul\":818:827   */\n  dup4\n    /* \"#utility.yul\":809:816   */\n  dup6\n    /* \"#utility.yul\":805:828   */\n  sub\n    /* \"#utility.yul\":801:833   */\n  slt\n    /* \"#utility.yul\":798:917   */\n  iszero\n  tag_27\n  jumpi\n    /* \"#utility.yul\":836:915   */\n  tag_28\n  tag_10\n  jump\t// in\ntag_28:\n    /* \"#utility.yul\":798:917   */\ntag_27:\n    /* \"#utility.yul\":956:957   */\n  0x00\n    /* \"#utility.yul\":981:1045   */\n  tag_29\n    /* \"#utility.yul\":1037:1044   */\n  dup6\n    /* \"#utility.yul\":1028:1034   */\n  dup3\n    /* \"#utility.yul\":1017:1026   */\n  dup7\n    /* \"#utility.yul\":1013:1035   */\n  add\n    /* \"#utility.yul\":981:1045   */\n  tag_14\n  jump\t// in\ntag_29:\n    /* \"#utility.yul\":971:1045   */\n  swap3\n  pop\n    /* \"#utility.yul\":927:1055   */\n  pop\n    /* \"#utility.yul\":1094:1096   */\n  0x20\n    /* \"#utility.yul\":1120:1184   */\n  tag_30\n    /* \"#utility.yul\":1176:1183   */\n  dup6\n    /* \"#utility.yul\":1167:1173   */\n  dup3\n    /* \"#utility.yul\":1156:1165   */\n  dup7\n    /* \"#utility.yul\":1152:1174   */\n  add\n    /* \"#utility.yul\":1120:1184   */\n  tag_14\n  jump\t// in\ntag_30:\n    /* \"#utility.yul\":1110:1184   */\n  swap2\n  pop\n    /* \"#utility.yul\":1065:1194   */\n  pop\n    /* \"#utility.yul\":694:1201   */\n  swap3\n  pop\n  swap3\n  swap1\n  pop\n  jump\t// out\n    /* \"#utility.yul\":1207:1387   */\ntag_15:\n    /* \"#utility.yul\":1255:1332   */\n  0x4e487b7100000000000000000000000000000000000000000000000000000000\n    /* \"#utility.yul\":1252:1253   */\n  0x00\n    /* \"#utility.yul\":1245:1333   */\n  mstore\n    /* \"#utility.yul\":1352:1356   */\n  0x11\n    /* \"#utility.yul\":1349:1350   */\n  0x04\n    /* \"#utility.yul\":1342:1357   */\n  mstore\n    /* \"#utility.yul\":1376:1380   */\n  0x24\n    /* \"#utility.yul\":1373:1374   */\n  0x00\n    /* \"#utility.yul\":1366:1381   */\n  revert\n    /* \"#utility.yul\":1393:1584   */\ntag_7:\n    /* \"#utility.yul\":1433:1436   */\n  0x00\n    /* \"#utility.yul\":1452:1472   */\n  tag_33\n    /* \"#utility.yul\":1470:1471   */\n  dup3\n    /* \"#utility.yul\":1452:1472   */\n  tag_12\n  jump\t// in\ntag_33:\n    /* \"#utility.yul\":1447:1472   */\n  swap2\n  pop\n    /* \"#utility.yul\":1486:1506   */\n  tag_34\n    /* \"#utility.yul\":1504:1505   */\n  dup4\n    /* \"#utility.yul\":1486:1506   */\n  tag_12\n  jump\t// in\ntag_34:\n    /* \"#utility.yul\":1481:1506   */\n  swap3\n  pop\n    /* \"#utility.yul\":1529:1530   */\n  dup3\n    /* \"#utility.yul\":1526:1527   */\n  dup3\n    /* \"#utility.yul\":1522:1531   */\n  add\n    /* \"#utility.yul\":1515:1531   */\n  swap1\n  pop\n    /* \"#utility.yul\":1550:1553   */\n  dup1\n    /* \"#utility.yul\":1547:1548   */\n  dup3\n    /* \"#utility.yul\":1544:1554   */\n  gt\n    /* \"#utility.yul\":1541:1577   */\n  iszero\n  tag_35\n  jumpi\n    /* \"#utility.yul\":1557:1575   */\n  tag_36\n  tag_15\n  jump\t// in\ntag_36:\n    /* \"#utility.yul\":1541:1577   */\ntag_35:\n    /* \"#utility.yul\":1393:1584   */\n  swap3\n  swap2\n  pop\n  pop\n  jump\t// out\n    /* \"contracts/crowdfunding.sol\":71:4262  contract CrowdFunding {... */\ntag_8:\n  dataSize(sub_0)\n  dup1\n  dataOffset(sub_0)\n  0x00\n  codecopy\n  0x00\n  return\nstop\n\nsub_0: assembly {\n        /* \"contracts/crowdfunding.sol\":71:4262  contract CrowdFunding {... */\n      mstore(0x40, 0x80)\n      jumpi(tag_1, lt(calldatasize, 0x04))\n      shr(0xe0, calldataload(0x00))\n      dup1\n      0x5114cb52\n      gt\n      tag_17\n      jumpi\n      dup1\n      0xb2d5ae44\n      gt\n      tag_18\n      jumpi\n      dup1\n      0xb2d5ae44\n      eq\n      tag_13\n      jumpi\n      dup1\n      0xc59ee1dc\n      eq\n      tag_14\n      jumpi\n      dup1\n      0xd7bb99ba\n      eq\n      tag_15\n      jumpi\n      dup1\n      0xf851a440\n      eq\n      tag_16\n      jumpi\n      jump(tag_1)\n    tag_18:\n      dup1\n      0x5114cb52\n      eq\n      tag_9\n      jumpi\n      dup1\n      0x81d12c58\n      eq\n      tag_10\n      jumpi\n      dup1\n      0x937e09b1\n      eq\n      tag_11\n      jumpi\n      dup1\n      0x9fb42b1f\n      eq\n      tag_12\n      jumpi\n      jump(tag_1)\n    tag_17:\n      dup1\n      0x29dcb0cf\n      gt\n      tag_19\n      jumpi\n      dup1\n      0x29dcb0cf\n      eq\n      tag_5\n      jumpi\n      dup1\n      0x40193883\n      eq\n      tag_6\n      jumpi\n      dup1\n      0x4cb6f4a5\n      eq\n      tag_7\n      jumpi\n      dup1\n      0x4e260f6f\n      eq\n      tag_8\n      jumpi\n      jump(tag_1)\n    tag_19:\n      dup1\n      0x12065fe0\n      eq\n      tag_2\n      jumpi\n      dup1\n      0x1b16bb5c\n      eq\n      tag_3\n      jumpi\n      dup1\n      0x1f6d4942\n      eq\n      tag_4\n      jumpi\n    tag_1:\n      0x00\n      dup1\n      revert\n        /* \"contracts/crowdfunding.sol\":1933:2026  function getBalance() public view returns(uint) {... */\n    tag_2:\n      callvalue\n      dup1\n      iszero\n      tag_20\n      jumpi\n      0x00\n      dup1\n      revert\n    tag_20:\n      pop\n      tag_21\n      tag_22\n      jump\t// in\n    tag_21:\n      mload(0x40)\n      tag_23\n      swap2\n      swap1\n      tag_24\n      jump\t// in\n    tag_23:\n      mload(0x40)\n      dup1\n      swap2\n      sub\n      swap1\n      return\n        /* \"contracts/crowdfunding.sol\":2717:3240  function createRequest(string calldata _description, address payable _recipient, uint _value) public onlyAdmin {... */\n    tag_3:\n      callvalue\n      dup1\n      iszero\n      tag_25\n      jumpi\n      0x00\n      dup1\n      revert\n    tag_25:\n      pop\n      tag_26\n      0x04\n      dup1\n      calldatasize\n      sub\n      dup2\n      add\n      swap1\n      tag_27\n      swap2\n      swap1\n      tag_28\n      jump\t// in\n    tag_27:\n      tag_29\n      jump\t// in\n    tag_26:\n      stop\n        /* \"contracts/crowdfunding.sol\":99:143  mapping(address => uint) public contributors */\n    tag_4:\n      callvalue\n      dup1\n      iszero\n      tag_30\n      jumpi\n      0x00\n      dup1\n      revert\n    tag_30:\n      pop\n      tag_31\n      0x04\n      dup1\n      calldatasize\n      sub\n      dup2\n      add\n      swap1\n      tag_32\n      swap2\n      swap1\n      tag_33\n      jump\t// in\n    tag_32:\n      tag_34\n      jump\t// in\n    tag_31:\n      mload(0x40)\n      tag_35\n      swap2\n      swap1\n      tag_24\n      jump\t// in\n    tag_35:\n      mload(0x40)\n      dup1\n      swap2\n      sub\n      swap1\n      return\n        /* \"contracts/crowdfunding.sol\":246:266  uint public deadline */\n    tag_5:\n      callvalue\n      dup1\n      iszero\n      tag_36\n      jumpi\n      0x00\n      dup1\n      revert\n    tag_36:\n      pop\n      tag_37\n      tag_38\n      jump\t// in\n    tag_37:\n      mload(0x40)\n      tag_39\n      swap2\n      swap1\n      tag_24\n      jump\t// in\n    tag_39:\n      mload(0x40)\n      dup1\n      swap2\n      sub\n      swap1\n      return\n        /* \"contracts/crowdfunding.sol\":284:300  uint public goal */\n    tag_6:\n      callvalue\n      dup1\n      iszero\n      tag_40\n      jumpi\n      0x00\n      dup1\n      revert\n    tag_40:\n      pop\n      tag_41\n      tag_42\n      jump\t// in\n    tag_41:\n      mload(0x40)\n      tag_43\n      swap2\n      swap1\n      tag_24\n      jump\t// in\n    tag_43:\n      mload(0x40)\n      dup1\n      swap2\n      sub\n      swap1\n      return\n        /* \"contracts/crowdfunding.sol\":3255:3636  function voteRequest(uint _requestNo) public {... */\n    tag_7:\n      callvalue\n      dup1\n      iszero\n      tag_44\n      jumpi\n      0x00\n      dup1\n      revert\n    tag_44:\n      pop\n      tag_45\n      0x04\n      dup1\n      calldatasize\n      sub\n      dup2\n      add\n      swap1\n      tag_46\n      swap2\n      swap1\n      tag_47\n      jump\t// in\n    tag_46:\n      tag_48\n      jump\t// in\n    tag_45:\n      stop\n        /* \"contracts/crowdfunding.sol\":175:203  uint public noOfContributors */\n    tag_8:\n      callvalue\n      dup1\n      iszero\n      tag_49\n      jumpi\n      0x00\n      dup1\n      revert\n    tag_49:\n      pop\n      tag_50\n      tag_51\n      jump\t// in\n    tag_50:\n      mload(0x40)\n      tag_52\n      swap2\n      swap1\n      tag_24\n      jump\t// in\n    tag_52:\n      mload(0x40)\n      dup1\n      swap2\n      sub\n      swap1\n      return\n        /* \"contracts/crowdfunding.sol\":3651:4258  function makePayment(uint _requestNo) public onlyAdmin {... */\n    tag_9:\n      callvalue\n      dup1\n      iszero\n      tag_53\n      jumpi\n      0x00\n      dup1\n      revert\n    tag_53:\n      pop\n      tag_54\n      0x04\n      dup1\n      calldatasize\n      sub\n      dup2\n      add\n      swap1\n      tag_55\n      swap2\n      swap1\n      tag_47\n      jump\t// in\n    tag_55:\n      tag_56\n      jump\t// in\n    tag_54:\n      stop\n        /* \"contracts/crowdfunding.sol\":719:759  mapping(uint => Request) public requests */\n    tag_10:\n      callvalue\n      dup1\n      iszero\n      tag_57\n      jumpi\n      0x00\n      dup1\n      revert\n    tag_57:\n      pop\n      tag_58\n      0x04\n      dup1\n      calldatasize\n      sub\n      dup2\n      add\n      swap1\n      tag_59\n      swap2\n      swap1\n      tag_47\n      jump\t// in\n    tag_59:\n      tag_60\n      jump\t// in\n    tag_58:\n      mload(0x40)\n      tag_61\n      swap6\n      swap5\n      swap4\n      swap3\n      swap2\n      swap1\n      tag_62\n      jump\t// in\n    tag_61:\n      mload(0x40)\n      dup1\n      swap2\n      sub\n      swap1\n      return\n        /* \"contracts/crowdfunding.sol\":209:240  uint public minimumContribution */\n    tag_11:\n      callvalue\n      dup1\n      iszero\n      tag_63\n      jumpi\n      0x00\n      dup1\n      revert\n    tag_63:\n      pop\n      tag_64\n      tag_65\n      jump\t// in\n    tag_64:\n      mload(0x40)\n      tag_66\n      swap2\n      swap1\n      tag_24\n      jump\t// in\n    tag_66:\n      mload(0x40)\n      dup1\n      swap2\n      sub\n      swap1\n      return\n        /* \"contracts/crowdfunding.sol\":765:788  uint public numRequests */\n    tag_12:\n      callvalue\n      dup1\n      iszero\n      tag_67\n      jumpi\n      0x00\n      dup1\n      revert\n    tag_67:\n      pop\n      tag_68\n      tag_69\n      jump\t// in\n    tag_68:\n      mload(0x40)\n      tag_70\n      swap2\n      swap1\n      tag_24\n      jump\t// in\n    tag_70:\n      mload(0x40)\n      dup1\n      swap2\n      sub\n      swap1\n      return\n        /* \"contracts/crowdfunding.sol\":2118:2702  function getRefund() public {... */\n    tag_13:\n      callvalue\n      dup1\n      iszero\n      tag_71\n      jumpi\n      0x00\n      dup1\n      revert\n    tag_71:\n      pop\n      tag_72\n      tag_73\n      jump\t// in\n    tag_72:\n      stop\n        /* \"contracts/crowdfunding.sol\":306:330  uint public raisedAmount */\n    tag_14:\n      callvalue\n      dup1\n      iszero\n      tag_74\n      jumpi\n      0x00\n      dup1\n      revert\n    tag_74:\n      pop\n      tag_75\n      tag_76\n      jump\t// in\n    tag_75:\n      mload(0x40)\n      tag_77\n      swap2\n      swap1\n      tag_24\n      jump\t// in\n    tag_77:\n      mload(0x40)\n      dup1\n      swap2\n      sub\n      swap1\n      return\n        /* \"contracts/crowdfunding.sol\":1354:1921  function contribute() public payable {... */\n    tag_15:\n      tag_78\n      tag_79\n      jump\t// in\n    tag_78:\n      stop\n        /* \"contracts/crowdfunding.sol\":149:169  address public admin */\n    tag_16:\n      callvalue\n      dup1\n      iszero\n      tag_80\n      jumpi\n      0x00\n      dup1\n      revert\n    tag_80:\n      pop\n      tag_81\n      tag_82\n      jump\t// in\n    tag_81:\n      mload(0x40)\n      tag_83\n      swap2\n      swap1\n      tag_84\n      jump\t// in\n    tag_83:\n      mload(0x40)\n      dup1\n      swap2\n      sub\n      swap1\n      return\n        /* \"contracts/crowdfunding.sol\":1933:2026  function getBalance() public view returns(uint) {... */\n    tag_22:\n        /* \"contracts/crowdfunding.sol\":1975:1979  uint */\n      0x00\n        /* \"contracts/crowdfunding.sol\":1998:2019  address(this).balance */\n      selfbalance\n        /* \"contracts/crowdfunding.sol\":1991:2019  return address(this).balance */\n      swap1\n      pop\n        /* \"contracts/crowdfunding.sol\":1933:2026  function getBalance() public view returns(uint) {... */\n      swap1\n      jump\t// out\n        /* \"contracts/crowdfunding.sol\":2717:3240  function createRequest(string calldata _description, address payable _recipient, uint _value) public onlyAdmin {... */\n    tag_29:\n        /* \"contracts/crowdfunding.sol\":1284:1289  admin */\n      0x01\n      0x00\n      swap1\n      sload\n      swap1\n      0x0100\n      exp\n      swap1\n      div\n      0xffffffffffffffffffffffffffffffffffffffff\n      and\n        /* \"contracts/crowdfunding.sol\":1270:1289  msg.sender == admin */\n      0xffffffffffffffffffffffffffffffffffffffff\n      and\n        /* \"contracts/crowdfunding.sol\":1270:1280  msg.sender */\n      caller\n        /* \"contracts/crowdfunding.sol\":1270:1289  msg.sender == admin */\n      0xffffffffffffffffffffffffffffffffffffffff\n      and\n      eq\n        /* \"contracts/crowdfunding.sol\":1262:1321  require(msg.sender == admin, \"Only admin can execute this\") */\n      tag_87\n      jumpi\n      mload(0x40)\n      0x08c379a000000000000000000000000000000000000000000000000000000000\n      dup2\n      mstore\n      0x04\n      add\n      tag_88\n      swap1\n      tag_89\n      jump\t// in\n    tag_88:\n      mload(0x40)\n      dup1\n      swap2\n      sub\n      swap1\n      revert\n    tag_87:\n        /* \"contracts/crowdfunding.sol\":2877:2903  Request storage newRequest */\n      0x00\n        /* \"contracts/crowdfunding.sol\":2906:2914  requests */\n      0x07\n        /* \"contracts/crowdfunding.sol\":2906:2927  requests[numRequests] */\n      0x00\n        /* \"contracts/crowdfunding.sol\":2915:2926  numRequests */\n      sload(0x08)\n        /* \"contracts/crowdfunding.sol\":2906:2927  requests[numRequests] */\n      dup2\n      mstore\n      0x20\n      add\n      swap1\n      dup2\n      mstore\n      0x20\n      add\n      0x00\n      keccak256\n        /* \"contracts/crowdfunding.sol\":2877:2927  Request storage newRequest = requests[numRequests] */\n      swap1\n      pop\n        /* \"contracts/crowdfunding.sol\":2937:2948  numRequests */\n      0x08\n      0x00\n        /* \"contracts/crowdfunding.sol\":2937:2950  numRequests++ */\n      dup2\n      sload\n      dup1\n      swap3\n      swap2\n      swap1\n      tag_91\n      swap1\n      tag_92\n      jump\t// in\n    tag_91:\n      swap2\n      swap1\n      pop\n      sstore\n      pop\n        /* \"contracts/crowdfunding.sol\":2994:3006  _description */\n      dup5\n      dup5\n        /* \"contracts/crowdfunding.sol\":2969:2979  newRequest */\n      dup3\n        /* \"contracts/crowdfunding.sol\":2969:2991  newRequest.description */\n      0x00\n      add\n        /* \"contracts/crowdfunding.sol\":2969:3006  newRequest.description = _description */\n      swap2\n      dup3\n      tag_93\n      swap3\n      swap2\n      swap1\n      tag_94\n      jump\t// in\n    tag_93:\n      pop\n        /* \"contracts/crowdfunding.sol\":3039:3049  _recipient */\n      dup3\n        /* \"contracts/crowdfunding.sol\":3016:3026  newRequest */\n      dup2\n        /* \"contracts/crowdfunding.sol\":3016:3036  newRequest.recipient */\n      0x01\n      add\n      0x00\n        /* \"contracts/crowdfunding.sol\":3016:3049  newRequest.recipient = _recipient */\n      0x0100\n      exp\n      dup2\n      sload\n      dup2\n      0xffffffffffffffffffffffffffffffffffffffff\n      mul\n      not\n      and\n      swap1\n      dup4\n      0xffffffffffffffffffffffffffffffffffffffff\n      and\n      mul\n      or\n      swap1\n      sstore\n      pop\n        /* \"contracts/crowdfunding.sol\":3078:3084  _value */\n      dup2\n        /* \"contracts/crowdfunding.sol\":3059:3069  newRequest */\n      dup2\n        /* \"contracts/crowdfunding.sol\":3059:3075  newRequest.value */\n      0x02\n      add\n        /* \"contracts/crowdfunding.sol\":3059:3084  newRequest.value = _value */\n      dup2\n      swap1\n      sstore\n      pop\n        /* \"contracts/crowdfunding.sol\":3117:3122  false */\n      0x00\n        /* \"contracts/crowdfunding.sol\":3094:3104  newRequest */\n      dup2\n        /* \"contracts/crowdfunding.sol\":3094:3114  newRequest.completed */\n      0x03\n      add\n      0x00\n        /* \"contracts/crowdfunding.sol\":3094:3122  newRequest.completed = false */\n      0x0100\n      exp\n      dup2\n      sload\n      dup2\n      0xff\n      mul\n      not\n      and\n      swap1\n      dup4\n      iszero\n      iszero\n      mul\n      or\n      swap1\n      sstore\n      pop\n        /* \"contracts/crowdfunding.sol\":3156:3157  0 */\n      0x00\n        /* \"contracts/crowdfunding.sol\":3132:3142  newRequest */\n      dup2\n        /* \"contracts/crowdfunding.sol\":3132:3153  newRequest.noOfVoters */\n      0x04\n      add\n        /* \"contracts/crowdfunding.sol\":3132:3157  newRequest.noOfVoters = 0 */\n      dup2\n      swap1\n      sstore\n      pop\n        /* \"contracts/crowdfunding.sol\":3181:3233  CreateRequestEvent(_description, _recipient, _value) */\n      0x5392bd80651676ccaaedec1afbe841d47e369223df0ba1586110b6426ee87a3a\n        /* \"contracts/crowdfunding.sol\":3200:3212  _description */\n      dup6\n      dup6\n        /* \"contracts/crowdfunding.sol\":3214:3224  _recipient */\n      dup6\n        /* \"contracts/crowdfunding.sol\":3226:3232  _value */\n      dup6\n        /* \"contracts/crowdfunding.sol\":3181:3233  CreateRequestEvent(_description, _recipient, _value) */\n      mload(0x40)\n      tag_95\n      swap5\n      swap4\n      swap3\n      swap2\n      swap1\n      tag_96\n      jump\t// in\n    tag_95:\n      mload(0x40)\n      dup1\n      swap2\n      sub\n      swap1\n      log1\n        /* \"contracts/crowdfunding.sol\":2828:3240  {... */\n      pop\n        /* \"contracts/crowdfunding.sol\":2717:3240  function createRequest(string calldata _description, address payable _recipient, uint _value) public onlyAdmin {... */\n      pop\n      pop\n      pop\n      pop\n      jump\t// out\n        /* \"contracts/crowdfunding.sol\":99:143  mapping(address => uint) public contributors */\n    tag_34:\n      mstore(0x20, 0x00)\n      dup1\n      0x00\n      mstore\n      keccak256(0x00, 0x40)\n      0x00\n      swap2\n      pop\n      swap1\n      pop\n      sload\n      dup2\n      jump\t// out\n        /* \"contracts/crowdfunding.sol\":246:266  uint public deadline */\n    tag_38:\n      sload(0x04)\n      dup2\n      jump\t// out\n        /* \"contracts/crowdfunding.sol\":284:300  uint public goal */\n    tag_42:\n      sload(0x05)\n      dup2\n      jump\t// out\n        /* \"contracts/crowdfunding.sol\":3255:3636  function voteRequest(uint _requestNo) public {... */\n    tag_48:\n        /* \"contracts/crowdfunding.sol\":3345:3346  0 */\n      0x00\n        /* \"contracts/crowdfunding.sol\":3318:3330  contributors */\n      dup1\n        /* \"contracts/crowdfunding.sol\":3318:3342  contributors[msg.sender] */\n      0x00\n        /* \"contracts/crowdfunding.sol\":3331:3341  msg.sender */\n      caller\n        /* \"contracts/crowdfunding.sol\":3318:3342  contributors[msg.sender] */\n      0xffffffffffffffffffffffffffffffffffffffff\n      and\n      0xffffffffffffffffffffffffffffffffffffffff\n      and\n      dup2\n      mstore\n      0x20\n      add\n      swap1\n      dup2\n      mstore\n      0x20\n      add\n      0x00\n      keccak256\n      sload\n        /* \"contracts/crowdfunding.sol\":3318:3346  contributors[msg.sender] > 0 */\n      gt\n        /* \"contracts/crowdfunding.sol\":3310:3385  require(contributors[msg.sender] > 0, \"You must be a contributor to vote!\") */\n      tag_98\n      jumpi\n      mload(0x40)\n      0x08c379a000000000000000000000000000000000000000000000000000000000\n      dup2\n      mstore\n      0x04\n      add\n      tag_99\n      swap1\n      tag_100\n      jump\t// in\n    tag_99:\n      mload(0x40)\n      dup1\n      swap2\n      sub\n      swap1\n      revert\n    tag_98:\n        /* \"contracts/crowdfunding.sol\":3404:3431  Request storage thisRequest */\n      0x00\n        /* \"contracts/crowdfunding.sol\":3434:3442  requests */\n      0x07\n        /* \"contracts/crowdfunding.sol\":3434:3454  requests[_requestNo] */\n      0x00\n        /* \"contracts/crowdfunding.sol\":3443:3453  _requestNo */\n      dup4\n        /* \"contracts/crowdfunding.sol\":3434:3454  requests[_requestNo] */\n      dup2\n      mstore\n      0x20\n      add\n      swap1\n      dup2\n      mstore\n      0x20\n      add\n      0x00\n      keccak256\n        /* \"contracts/crowdfunding.sol\":3404:3454  Request storage thisRequest = requests[_requestNo] */\n      swap1\n      pop\n        /* \"contracts/crowdfunding.sol\":3506:3511  false */\n      0x00\n        /* \"contracts/crowdfunding.sol\":3472:3511  thisRequest.voters[msg.sender] == false */\n      iszero\n      iszero\n        /* \"contracts/crowdfunding.sol\":3472:3483  thisRequest */\n      dup2\n        /* \"contracts/crowdfunding.sol\":3472:3490  thisRequest.voters */\n      0x05\n      add\n        /* \"contracts/crowdfunding.sol\":3472:3502  thisRequest.voters[msg.sender] */\n      0x00\n        /* \"contracts/crowdfunding.sol\":3491:3501  msg.sender */\n      caller\n        /* \"contracts/crowdfunding.sol\":3472:3502  thisRequest.voters[msg.sender] */\n      0xffffffffffffffffffffffffffffffffffffffff\n      and\n      0xffffffffffffffffffffffffffffffffffffffff\n      and\n      dup2\n      mstore\n      0x20\n      add\n      swap1\n      dup2\n      mstore\n      0x20\n      add\n      0x00\n      keccak256\n      0x00\n      swap1\n      sload\n      swap1\n      0x0100\n      exp\n      swap1\n      div\n      0xff\n      and\n        /* \"contracts/crowdfunding.sol\":3472:3511  thisRequest.voters[msg.sender] == false */\n      iszero\n      iszero\n      eq\n        /* \"contracts/crowdfunding.sol\":3464:3539  require(thisRequest.voters[msg.sender] == false, \"You have already voted!\") */\n      tag_101\n      jumpi\n      mload(0x40)\n      0x08c379a000000000000000000000000000000000000000000000000000000000\n      dup2\n      mstore\n      0x04\n      add\n      tag_102\n      swap1\n      tag_103\n      jump\t// in\n    tag_102:\n      mload(0x40)\n      dup1\n      swap2\n      sub\n      swap1\n      revert\n    tag_101:\n        /* \"contracts/crowdfunding.sol\":3591:3595  true */\n      0x01\n        /* \"contracts/crowdfunding.sol\":3558:3569  thisRequest */\n      dup2\n        /* \"contracts/crowdfunding.sol\":3558:3576  thisRequest.voters */\n      0x05\n      add\n        /* \"contracts/crowdfunding.sol\":3558:3588  thisRequest.voters[msg.sender] */\n      0x00\n        /* \"contracts/crowdfunding.sol\":3577:3587  msg.sender */\n      caller\n        /* \"contracts/crowdfunding.sol\":3558:3588  thisRequest.voters[msg.sender] */\n      0xffffffffffffffffffffffffffffffffffffffff\n      and\n      0xffffffffffffffffffffffffffffffffffffffff\n      and\n      dup2\n      mstore\n      0x20\n      add\n      swap1\n      dup2\n      mstore\n      0x20\n      add\n      0x00\n      keccak256\n      0x00\n        /* \"contracts/crowdfunding.sol\":3558:3595  thisRequest.voters[msg.sender] = true */\n      0x0100\n      exp\n      dup2\n      sload\n      dup2\n      0xff\n      mul\n      not\n      and\n      swap1\n      dup4\n      iszero\n      iszero\n      mul\n      or\n      swap1\n      sstore\n      pop\n        /* \"contracts/crowdfunding.sol\":3605:3616  thisRequest */\n      dup1\n        /* \"contracts/crowdfunding.sol\":3605:3627  thisRequest.noOfVoters */\n      0x04\n      add\n      0x00\n        /* \"contracts/crowdfunding.sol\":3605:3629  thisRequest.noOfVoters++ */\n      dup2\n      sload\n      dup1\n      swap3\n      swap2\n      swap1\n      tag_104\n      swap1\n      tag_92\n      jump\t// in\n    tag_104:\n      swap2\n      swap1\n      pop\n      sstore\n      pop\n        /* \"contracts/crowdfunding.sol\":3300:3636  {... */\n      pop\n        /* \"contracts/crowdfunding.sol\":3255:3636  function voteRequest(uint _requestNo) public {... */\n      pop\n      jump\t// out\n        /* \"contracts/crowdfunding.sol\":175:203  uint public noOfContributors */\n    tag_51:\n      sload(0x02)\n      dup2\n      jump\t// out\n        /* \"contracts/crowdfunding.sol\":3651:4258  function makePayment(uint _requestNo) public onlyAdmin {... */\n    tag_56:\n        /* \"contracts/crowdfunding.sol\":1284:1289  admin */\n      0x01\n      0x00\n      swap1\n      sload\n      swap1\n      0x0100\n      exp\n      swap1\n      div\n      0xffffffffffffffffffffffffffffffffffffffff\n      and\n        /* \"contracts/crowdfunding.sol\":1270:1289  msg.sender == admin */\n      0xffffffffffffffffffffffffffffffffffffffff\n      and\n        /* \"contracts/crowdfunding.sol\":1270:1280  msg.sender */\n      caller\n        /* \"contracts/crowdfunding.sol\":1270:1289  msg.sender == admin */\n      0xffffffffffffffffffffffffffffffffffffffff\n      and\n      eq\n        /* \"contracts/crowdfunding.sol\":1262:1321  require(msg.sender == admin, \"Only admin can execute this\") */\n      tag_106\n      jumpi\n      mload(0x40)\n      0x08c379a000000000000000000000000000000000000000000000000000000000\n      dup2\n      mstore\n      0x04\n      add\n      tag_107\n      swap1\n      tag_89\n      jump\t// in\n    tag_107:\n      mload(0x40)\n      dup1\n      swap2\n      sub\n      swap1\n      revert\n    tag_106:\n        /* \"contracts/crowdfunding.sol\":3716:3743  Request storage thisRequest */\n      0x00\n        /* \"contracts/crowdfunding.sol\":3746:3754  requests */\n      0x07\n        /* \"contracts/crowdfunding.sol\":3746:3766  requests[_requestNo] */\n      0x00\n        /* \"contracts/crowdfunding.sol\":3755:3765  _requestNo */\n      dup4\n        /* \"contracts/crowdfunding.sol\":3746:3766  requests[_requestNo] */\n      dup2\n      mstore\n      0x20\n      add\n      swap1\n      dup2\n      mstore\n      0x20\n      add\n      0x00\n      keccak256\n        /* \"contracts/crowdfunding.sol\":3716:3766  Request storage thisRequest = requests[_requestNo] */\n      swap1\n      pop\n        /* \"contracts/crowdfunding.sol\":3809:3814  false */\n      0x00\n        /* \"contracts/crowdfunding.sol\":3784:3814  thisRequest.completed == false */\n      iszero\n      iszero\n        /* \"contracts/crowdfunding.sol\":3784:3795  thisRequest */\n      dup2\n        /* \"contracts/crowdfunding.sol\":3784:3805  thisRequest.completed */\n      0x03\n      add\n      0x00\n      swap1\n      sload\n      swap1\n      0x0100\n      exp\n      swap1\n      div\n      0xff\n      and\n        /* \"contracts/crowdfunding.sol\":3784:3814  thisRequest.completed == false */\n      iszero\n      iszero\n      eq\n        /* \"contracts/crowdfunding.sol\":3776:3858  require(thisRequest.completed == false, \"The request has been already completed!\") */\n      tag_109\n      jumpi\n      mload(0x40)\n      0x08c379a000000000000000000000000000000000000000000000000000000000\n      dup2\n      mstore\n      0x04\n      add\n      tag_110\n      swap1\n      tag_111\n      jump\t// in\n    tag_110:\n      mload(0x40)\n      dup1\n      swap2\n      sub\n      swap1\n      revert\n    tag_109:\n        /* \"contracts/crowdfunding.sol\":3929:3930  2 */\n      0x02\n        /* \"contracts/crowdfunding.sol\":3910:3926  noOfContributors */\n      dup1\n      sload\n        /* \"contracts/crowdfunding.sol\":3910:3930  noOfContributors / 2 */\n      tag_112\n      swap2\n      swap1\n      tag_113\n      jump\t// in\n    tag_112:\n        /* \"contracts/crowdfunding.sol\":3885:3896  thisRequest */\n      dup2\n        /* \"contracts/crowdfunding.sol\":3885:3907  thisRequest.noOfVoters */\n      0x04\n      add\n      sload\n        /* \"contracts/crowdfunding.sol\":3885:3930  thisRequest.noOfVoters > noOfContributors / 2 */\n      gt\n        /* \"contracts/crowdfunding.sol\":3877:3987  require(thisRequest.noOfVoters > noOfContributors / 2, \"The request needs more than 50% of the contributors.\") */\n      tag_114\n      jumpi\n      mload(0x40)\n      0x08c379a000000000000000000000000000000000000000000000000000000000\n      dup2\n      mstore\n      0x04\n      add\n      tag_115\n      swap1\n      tag_116\n      jump\t// in\n    tag_115:\n      mload(0x40)\n      dup1\n      swap2\n      sub\n      swap1\n      revert\n    tag_114:\n        /* \"contracts/crowdfunding.sol\":4106:4110  true */\n      0x01\n        /* \"contracts/crowdfunding.sol\":4082:4093  thisRequest */\n      dup2\n        /* \"contracts/crowdfunding.sol\":4082:4103  thisRequest.completed */\n      0x03\n      add\n      0x00\n        /* \"contracts/crowdfunding.sol\":4082:4110  thisRequest.completed = true */\n      0x0100\n      exp\n      dup2\n      sload\n      dup2\n      0xff\n      mul\n      not\n      and\n      swap1\n      dup4\n      iszero\n      iszero\n      mul\n      or\n      swap1\n      sstore\n      pop\n        /* \"contracts/crowdfunding.sol\":4120:4131  thisRequest */\n      dup1\n        /* \"contracts/crowdfunding.sol\":4120:4141  thisRequest.recipient */\n      0x01\n      add\n      0x00\n      swap1\n      sload\n      swap1\n      0x0100\n      exp\n      swap1\n      div\n      0xffffffffffffffffffffffffffffffffffffffff\n      and\n        /* \"contracts/crowdfunding.sol\":4120:4150  thisRequest.recipient.transfer */\n      0xffffffffffffffffffffffffffffffffffffffff\n      and\n        /* \"contracts/crowdfunding.sol\":4120:4169  thisRequest.recipient.transfer(thisRequest.value) */\n      0x08fc\n        /* \"contracts/crowdfunding.sol\":4151:4162  thisRequest */\n      dup3\n        /* \"contracts/crowdfunding.sol\":4151:4168  thisRequest.value */\n      0x02\n      add\n      sload\n        /* \"contracts/crowdfunding.sol\":4120:4169  thisRequest.recipient.transfer(thisRequest.value) */\n      swap1\n      dup2\n      iszero\n      mul\n      swap1\n      mload(0x40)\n      0x00\n      mload(0x40)\n      dup1\n      dup4\n      sub\n      dup2\n      dup6\n      dup9\n      dup9\n      call\n      swap4\n      pop\n      pop\n      pop\n      pop\n      iszero\n      dup1\n      iszero\n      tag_118\n      jumpi\n      returndatasize\n      0x00\n      dup1\n      returndatacopy\n      revert(0x00, returndatasize)\n    tag_118:\n      pop\n        /* \"contracts/crowdfunding.sol\":4193:4251  MakePaymentEvent(thisRequest.recipient, thisRequest.value) */\n      0x516e1673e5e85c44620165259173329adda2ad25e7bb15020c732be060b5b790\n        /* \"contracts/crowdfunding.sol\":4210:4221  thisRequest */\n      dup2\n        /* \"contracts/crowdfunding.sol\":4210:4231  thisRequest.recipient */\n      0x01\n      add\n      0x00\n      swap1\n      sload\n      swap1\n      0x0100\n      exp\n      swap1\n      div\n      0xffffffffffffffffffffffffffffffffffffffff\n      and\n        /* \"contracts/crowdfunding.sol\":4233:4244  thisRequest */\n      dup3\n        /* \"contracts/crowdfunding.sol\":4233:4250  thisRequest.value */\n      0x02\n      add\n      sload\n        /* \"contracts/crowdfunding.sol\":4193:4251  MakePaymentEvent(thisRequest.recipient, thisRequest.value) */\n      mload(0x40)\n      tag_119\n      swap3\n      swap2\n      swap1\n      tag_120\n      jump\t// in\n    tag_119:\n      mload(0x40)\n      dup1\n      swap2\n      sub\n      swap1\n      log1\n        /* \"contracts/crowdfunding.sol\":3706:4258  {... */\n      pop\n        /* \"contracts/crowdfunding.sol\":3651:4258  function makePayment(uint _requestNo) public onlyAdmin {... */\n      pop\n      jump\t// out\n        /* \"contracts/crowdfunding.sol\":719:759  mapping(uint => Request) public requests */\n    tag_60:\n      mstore(0x20, 0x07)\n      dup1\n      0x00\n      mstore\n      keccak256(0x00, 0x40)\n      0x00\n      swap2\n      pop\n      swap1\n      pop\n      dup1\n      0x00\n      add\n      dup1\n      sload\n      tag_121\n      swap1\n      tag_122\n      jump\t// in\n    tag_121:\n      dup1\n      0x1f\n      add\n      0x20\n      dup1\n      swap2\n      div\n      mul\n      0x20\n      add\n      mload(0x40)\n      swap1\n      dup2\n      add\n      0x40\n      mstore\n      dup1\n      swap3\n      swap2\n      swap1\n      dup2\n      dup2\n      mstore\n      0x20\n      add\n      dup3\n      dup1\n      sload\n      tag_123\n      swap1\n      tag_122\n      jump\t// in\n    tag_123:\n      dup1\n      iszero\n      tag_124\n      jumpi\n      dup1\n      0x1f\n      lt\n      tag_125\n      jumpi\n      0x0100\n      dup1\n      dup4\n      sload\n      div\n      mul\n      dup4\n      mstore\n      swap2\n      0x20\n      add\n      swap2\n      jump(tag_124)\n    tag_125:\n      dup3\n      add\n      swap2\n      swap1\n      0x00\n      mstore\n      keccak256(0x00, 0x20)\n      swap1\n    tag_126:\n      dup2\n      sload\n      dup2\n      mstore\n      swap1\n      0x01\n      add\n      swap1\n      0x20\n      add\n      dup1\n      dup4\n      gt\n      tag_126\n      jumpi\n      dup3\n      swap1\n      sub\n      0x1f\n      and\n      dup3\n      add\n      swap2\n    tag_124:\n      pop\n      pop\n      pop\n      pop\n      pop\n      swap1\n      dup1\n      0x01\n      add\n      0x00\n      swap1\n      sload\n      swap1\n      0x0100\n      exp\n      swap1\n      div\n      0xffffffffffffffffffffffffffffffffffffffff\n      and\n      swap1\n      dup1\n      0x02\n      add\n      sload\n      swap1\n      dup1\n      0x03\n      add\n      0x00\n      swap1\n      sload\n      swap1\n      0x0100\n      exp\n      swap1\n      div\n      0xff\n      and\n      swap1\n      dup1\n      0x04\n      add\n      sload\n      swap1\n      pop\n      dup6\n      jump\t// out\n        /* \"contracts/crowdfunding.sol\":209:240  uint public minimumContribution */\n    tag_65:\n      sload(0x03)\n      dup2\n      jump\t// out\n        /* \"contracts/crowdfunding.sol\":765:788  uint public numRequests */\n    tag_69:\n      sload(0x08)\n      dup2\n      jump\t// out\n        /* \"contracts/crowdfunding.sol\":2118:2702  function getRefund() public {... */\n    tag_73:\n        /* \"contracts/crowdfunding.sol\":2182:2190  deadline */\n      sload(0x04)\n        /* \"contracts/crowdfunding.sol\":2164:2179  block.timestamp */\n      timestamp\n        /* \"contracts/crowdfunding.sol\":2164:2190  block.timestamp > deadline */\n      gt\n        /* \"contracts/crowdfunding.sol\":2156:2219  require(block.timestamp > deadline, \"Deadline has not passed.\") */\n      tag_128\n      jumpi\n      mload(0x40)\n      0x08c379a000000000000000000000000000000000000000000000000000000000\n      dup2\n      mstore\n      0x04\n      add\n      tag_129\n      swap1\n      tag_130\n      jump\t// in\n    tag_129:\n      mload(0x40)\n      dup1\n      swap2\n      sub\n      swap1\n      revert\n    tag_128:\n        /* \"contracts/crowdfunding.sol\":2252:2256  goal */\n      sload(0x05)\n        /* \"contracts/crowdfunding.sol\":2237:2249  raisedAmount */\n      sload(0x06)\n        /* \"contracts/crowdfunding.sol\":2237:2256  raisedAmount < goal */\n      lt\n        /* \"contracts/crowdfunding.sol\":2229:2277  require(raisedAmount < goal, \"The goal was met\") */\n      tag_131\n      jumpi\n      mload(0x40)\n      0x08c379a000000000000000000000000000000000000000000000000000000000\n      dup2\n      mstore\n      0x04\n      add\n      tag_132\n      swap1\n      tag_133\n      jump\t// in\n    tag_132:\n      mload(0x40)\n      dup1\n      swap2\n      sub\n      swap1\n      revert\n    tag_131:\n        /* \"contracts/crowdfunding.sol\":2322:2323  0 */\n      0x00\n        /* \"contracts/crowdfunding.sol\":2295:2307  contributors */\n      dup1\n        /* \"contracts/crowdfunding.sol\":2295:2319  contributors[msg.sender] */\n      0x00\n        /* \"contracts/crowdfunding.sol\":2308:2318  msg.sender */\n      caller\n        /* \"contracts/crowdfunding.sol\":2295:2319  contributors[msg.sender] */\n      0xffffffffffffffffffffffffffffffffffffffff\n      and\n      0xffffffffffffffffffffffffffffffffffffffff\n      and\n      dup2\n      mstore\n      0x20\n      add\n      swap1\n      dup2\n      mstore\n      0x20\n      add\n      0x00\n      keccak256\n      sload\n        /* \"contracts/crowdfunding.sol\":2295:2323  contributors[msg.sender] > 0 */\n      gt\n        /* \"contracts/crowdfunding.sol\":2287:2324  require(contributors[msg.sender] > 0) */\n      tag_134\n      jumpi\n      0x00\n      dup1\n      revert\n    tag_134:\n        /* \"contracts/crowdfunding.sol\":2343:2368  address payable recipient */\n      0x00\n        /* \"contracts/crowdfunding.sol\":2379:2389  msg.sender */\n      caller\n        /* \"contracts/crowdfunding.sol\":2343:2390  address payable recipient = payable(msg.sender) */\n      swap1\n      pop\n        /* \"contracts/crowdfunding.sol\":2400:2410  uint value */\n      0x00\n        /* \"contracts/crowdfunding.sol\":2413:2425  contributors */\n      dup1\n        /* \"contracts/crowdfunding.sol\":2413:2437  contributors[msg.sender] */\n      0x00\n        /* \"contracts/crowdfunding.sol\":2426:2436  msg.sender */\n      caller\n        /* \"contracts/crowdfunding.sol\":2413:2437  contributors[msg.sender] */\n      0xffffffffffffffffffffffffffffffffffffffff\n      and\n      0xffffffffffffffffffffffffffffffffffffffff\n      and\n      dup2\n      mstore\n      0x20\n      add\n      swap1\n      dup2\n      mstore\n      0x20\n      add\n      0x00\n      keccak256\n      sload\n        /* \"contracts/crowdfunding.sol\":2400:2437  uint value = contributors[msg.sender] */\n      swap1\n      pop\n        /* \"contracts/crowdfunding.sol\":2564:2565  0 */\n      0x00\n        /* \"contracts/crowdfunding.sol\":2537:2549  contributors */\n      dup1\n        /* \"contracts/crowdfunding.sol\":2537:2561  contributors[msg.sender] */\n      0x00\n        /* \"contracts/crowdfunding.sol\":2550:2560  msg.sender */\n      caller\n        /* \"contracts/crowdfunding.sol\":2537:2561  contributors[msg.sender] */\n      0xffffffffffffffffffffffffffffffffffffffff\n      and\n      0xffffffffffffffffffffffffffffffffffffffff\n      and\n      dup2\n      mstore\n      0x20\n      add\n      swap1\n      dup2\n      mstore\n      0x20\n      add\n      0x00\n      keccak256\n        /* \"contracts/crowdfunding.sol\":2537:2565  contributors[msg.sender] = 0 */\n      dup2\n      swap1\n      sstore\n      pop\n        /* \"contracts/crowdfunding.sol\":2577:2586  recipient */\n      dup2\n        /* \"contracts/crowdfunding.sol\":2577:2595  recipient.transfer */\n      0xffffffffffffffffffffffffffffffffffffffff\n      and\n        /* \"contracts/crowdfunding.sol\":2577:2602  recipient.transfer(value) */\n      0x08fc\n        /* \"contracts/crowdfunding.sol\":2596:2601  value */\n      dup3\n        /* \"contracts/crowdfunding.sol\":2577:2602  recipient.transfer(value) */\n      swap1\n      dup2\n      iszero\n      mul\n      swap1\n      mload(0x40)\n      0x00\n      mload(0x40)\n      dup1\n      dup4\n      sub\n      dup2\n      dup6\n      dup9\n      dup9\n      call\n      swap4\n      pop\n      pop\n      pop\n      pop\n      iszero\n      dup1\n      iszero\n      tag_136\n      jumpi\n      returndatasize\n      0x00\n      dup1\n      returndatacopy\n      revert(0x00, returndatasize)\n    tag_136:\n      pop\n        /* \"contracts/crowdfunding.sol\":2146:2702  {... */\n      pop\n      pop\n        /* \"contracts/crowdfunding.sol\":2118:2702  function getRefund() public {... */\n      jump\t// out\n        /* \"contracts/crowdfunding.sol\":306:330  uint public raisedAmount */\n    tag_76:\n      sload(0x06)\n      dup2\n      jump\t// out\n        /* \"contracts/crowdfunding.sol\":1354:1921  function contribute() public payable {... */\n    tag_79:\n        /* \"contracts/crowdfunding.sol\":1427:1435  deadline */\n      sload(0x04)\n        /* \"contracts/crowdfunding.sol\":1409:1424  block.timestamp */\n      timestamp\n        /* \"contracts/crowdfunding.sol\":1409:1435  block.timestamp < deadline */\n      lt\n        /* \"contracts/crowdfunding.sol\":1401:1464  require(block.timestamp < deadline, \"The Deadline has passed!\") */\n      tag_138\n      jumpi\n      mload(0x40)\n      0x08c379a000000000000000000000000000000000000000000000000000000000\n      dup2\n      mstore\n      0x04\n      add\n      tag_139\n      swap1\n      tag_140\n      jump\t// in\n    tag_139:\n      mload(0x40)\n      dup1\n      swap2\n      sub\n      swap1\n      revert\n    tag_138:\n        /* \"contracts/crowdfunding.sol\":1495:1514  minimumContribution */\n      sload(0x03)\n        /* \"contracts/crowdfunding.sol\":1482:1491  msg.value */\n      callvalue\n        /* \"contracts/crowdfunding.sol\":1482:1514  msg.value >= minimumContribution */\n      lt\n      iszero\n        /* \"contracts/crowdfunding.sol\":1474:1552  require(msg.value >= minimumContribution, \"The Minimum Contribution not met!\") */\n      tag_141\n      jumpi\n      mload(0x40)\n      0x08c379a000000000000000000000000000000000000000000000000000000000\n      dup2\n      mstore\n      0x04\n      add\n      tag_142\n      swap1\n      tag_143\n      jump\t// in\n    tag_142:\n      mload(0x40)\n      dup1\n      swap2\n      sub\n      swap1\n      revert\n    tag_141:\n        /* \"contracts/crowdfunding.sol\":1716:1717  0 */\n      0x00\n        /* \"contracts/crowdfunding.sol\":1688:1700  contributors */\n      dup1\n        /* \"contracts/crowdfunding.sol\":1688:1712  contributors[msg.sender] */\n      0x00\n        /* \"contracts/crowdfunding.sol\":1701:1711  msg.sender */\n      caller\n        /* \"contracts/crowdfunding.sol\":1688:1712  contributors[msg.sender] */\n      0xffffffffffffffffffffffffffffffffffffffff\n      and\n      0xffffffffffffffffffffffffffffffffffffffff\n      and\n      dup2\n      mstore\n      0x20\n      add\n      swap1\n      dup2\n      mstore\n      0x20\n      add\n      0x00\n      keccak256\n      sload\n        /* \"contracts/crowdfunding.sol\":1688:1717  contributors[msg.sender] == 0 */\n      sub\n        /* \"contracts/crowdfunding.sol\":1685:1762  if(contributors[msg.sender] == 0) {... */\n      tag_144\n      jumpi\n        /* \"contracts/crowdfunding.sol\":1733:1749  noOfContributors */\n      0x02\n      0x00\n        /* \"contracts/crowdfunding.sol\":1733:1751  noOfContributors++ */\n      dup2\n      sload\n      dup1\n      swap3\n      swap2\n      swap1\n      tag_145\n      swap1\n      tag_92\n      jump\t// in\n    tag_145:\n      swap2\n      swap1\n      pop\n      sstore\n      pop\n        /* \"contracts/crowdfunding.sol\":1685:1762  if(contributors[msg.sender] == 0) {... */\n    tag_144:\n        /* \"contracts/crowdfunding.sol\":1808:1817  msg.value */\n      callvalue\n        /* \"contracts/crowdfunding.sol\":1780:1792  contributors */\n      0x00\n        /* \"contracts/crowdfunding.sol\":1780:1804  contributors[msg.sender] */\n      dup1\n        /* \"contracts/crowdfunding.sol\":1793:1803  msg.sender */\n      caller\n        /* \"contracts/crowdfunding.sol\":1780:1804  contributors[msg.sender] */\n      0xffffffffffffffffffffffffffffffffffffffff\n      and\n      0xffffffffffffffffffffffffffffffffffffffff\n      and\n      dup2\n      mstore\n      0x20\n      add\n      swap1\n      dup2\n      mstore\n      0x20\n      add\n      0x00\n      keccak256\n      0x00\n        /* \"contracts/crowdfunding.sol\":1780:1817  contributors[msg.sender] += msg.value */\n      dup3\n      dup3\n      sload\n      tag_146\n      swap2\n      swap1\n      tag_147\n      jump\t// in\n    tag_146:\n      swap3\n      pop\n      pop\n      dup2\n      swap1\n      sstore\n      pop\n        /* \"contracts/crowdfunding.sol\":1843:1852  msg.value */\n      callvalue\n        /* \"contracts/crowdfunding.sol\":1827:1839  raisedAmount */\n      0x06\n      0x00\n        /* \"contracts/crowdfunding.sol\":1827:1852  raisedAmount += msg.value */\n      dup3\n      dup3\n      sload\n      tag_148\n      swap2\n      swap1\n      tag_147\n      jump\t// in\n    tag_148:\n      swap3\n      pop\n      pop\n      dup2\n      swap1\n      sstore\n      pop\n        /* \"contracts/crowdfunding.sol\":1876:1914  ContributeEvent(msg.sender, msg.value) */\n      0x2daf61dec57a2c194e9e87958b1a40a5c236b5e8c6041655d664ddbd16c29320\n        /* \"contracts/crowdfunding.sol\":1892:1902  msg.sender */\n      caller\n        /* \"contracts/crowdfunding.sol\":1904:1913  msg.value */\n      callvalue\n        /* \"contracts/crowdfunding.sol\":1876:1914  ContributeEvent(msg.sender, msg.value) */\n      mload(0x40)\n      tag_149\n      swap3\n      swap2\n      swap1\n      tag_150\n      jump\t// in\n    tag_149:\n      mload(0x40)\n      dup1\n      swap2\n      sub\n      swap1\n      log1\n        /* \"contracts/crowdfunding.sol\":1354:1921  function contribute() public payable {... */\n      jump\t// out\n        /* \"contracts/crowdfunding.sol\":149:169  address public admin */\n    tag_82:\n      0x01\n      0x00\n      swap1\n      sload\n      swap1\n      0x0100\n      exp\n      swap1\n      div\n      0xffffffffffffffffffffffffffffffffffffffff\n      and\n      dup2\n      jump\t// out\n        /* \"#utility.yul\":7:84   */\n    tag_151:\n        /* \"#utility.yul\":44:51   */\n      0x00\n        /* \"#utility.yul\":73:78   */\n      dup2\n        /* \"#utility.yul\":62:78   */\n      swap1\n      pop\n        /* \"#utility.yul\":7:84   */\n      swap2\n      swap1\n      pop\n      jump\t// out\n        /* \"#utility.yul\":90:208   */\n    tag_152:\n        /* \"#utility.yul\":177:201   */\n      tag_225\n        /* \"#utility.yul\":195:200   */\n      dup2\n        /* \"#utility.yul\":177:201   */\n      tag_151\n      jump\t// in\n    tag_225:\n        /* \"#utility.yul\":172:175   */\n      dup3\n        /* \"#utility.yul\":165:202   */\n      mstore\n        /* \"#utility.yul\":90:208   */\n      pop\n      pop\n      jump\t// out\n        /* \"#utility.yul\":214:436   */\n    tag_24:\n        /* \"#utility.yul\":307:311   */\n      0x00\n        /* \"#utility.yul\":345:347   */\n      0x20\n        /* \"#utility.yul\":334:343   */\n      dup3\n        /* \"#utility.yul\":330:348   */\n      add\n        /* \"#utility.yul\":322:348   */\n      swap1\n      pop\n        /* \"#utility.yul\":358:429   */\n      tag_227\n        /* \"#utility.yul\":426:427   */\n      0x00\n        /* \"#utility.yul\":415:424   */\n      dup4\n        /* \"#utility.yul\":411:428   */\n      add\n        /* \"#utility.yul\":402:408   */\n      dup5\n        /* \"#utility.yul\":358:429   */\n      tag_152\n      jump\t// in\n    tag_227:\n        /* \"#utility.yul\":214:436   */\n      swap3\n      swap2\n      pop\n      pop\n      jump\t// out\n        /* \"#utility.yul\":523:640   */\n    tag_154:\n        /* \"#utility.yul\":632:633   */\n      0x00\n        /* \"#utility.yul\":629:630   */\n      dup1\n        /* \"#utility.yul\":622:634   */\n      revert\n        /* \"#utility.yul\":646:763   */\n    tag_155:\n        /* \"#utility.yul\":755:756   */\n      0x00\n        /* \"#utility.yul\":752:753   */\n      dup1\n        /* \"#utility.yul\":745:757   */\n      revert\n        /* \"#utility.yul\":769:886   */\n    tag_156:\n        /* \"#utility.yul\":878:879   */\n      0x00\n        /* \"#utility.yul\":875:876   */\n      dup1\n        /* \"#utility.yul\":868:880   */\n      revert\n        /* \"#utility.yul\":892:1009   */\n    tag_157:\n        /* \"#utility.yul\":1001:1002   */\n      0x00\n        /* \"#utility.yul\":998:999   */\n      dup1\n        /* \"#utility.yul\":991:1003   */\n      revert\n        /* \"#utility.yul\":1015:1132   */\n    tag_158:\n        /* \"#utility.yul\":1124:1125   */\n      0x00\n        /* \"#utility.yul\":1121:1122   */\n      dup1\n        /* \"#utility.yul\":1114:1126   */\n      revert\n        /* \"#utility.yul\":1152:1705   */\n    tag_159:\n        /* \"#utility.yul\":1210:1218   */\n      0x00\n        /* \"#utility.yul\":1220:1226   */\n      dup1\n        /* \"#utility.yul\":1270:1273   */\n      dup4\n        /* \"#utility.yul\":1263:1267   */\n      0x1f\n        /* \"#utility.yul\":1255:1261   */\n      dup5\n        /* \"#utility.yul\":1251:1268   */\n      add\n        /* \"#utility.yul\":1247:1274   */\n      slt\n        /* \"#utility.yul\":1237:1359   */\n      tag_235\n      jumpi\n        /* \"#utility.yul\":1278:1357   */\n      tag_236\n      tag_156\n      jump\t// in\n    tag_236:\n        /* \"#utility.yul\":1237:1359   */\n    tag_235:\n        /* \"#utility.yul\":1391:1397   */\n      dup3\n        /* \"#utility.yul\":1378:1398   */\n      calldataload\n        /* \"#utility.yul\":1368:1398   */\n      swap1\n      pop\n        /* \"#utility.yul\":1421:1439   */\n      0xffffffffffffffff\n        /* \"#utility.yul\":1413:1419   */\n      dup2\n        /* \"#utility.yul\":1410:1440   */\n      gt\n        /* \"#utility.yul\":1407:1524   */\n      iszero\n      tag_237\n      jumpi\n        /* \"#utility.yul\":1443:1522   */\n      tag_238\n      tag_157\n      jump\t// in\n    tag_238:\n        /* \"#utility.yul\":1407:1524   */\n    tag_237:\n        /* \"#utility.yul\":1557:1561   */\n      0x20\n        /* \"#utility.yul\":1549:1555   */\n      dup4\n        /* \"#utility.yul\":1545:1562   */\n      add\n        /* \"#utility.yul\":1533:1562   */\n      swap2\n      pop\n        /* \"#utility.yul\":1611:1614   */\n      dup4\n        /* \"#utility.yul\":1603:1607   */\n      0x01\n        /* \"#utility.yul\":1595:1601   */\n      dup3\n        /* \"#utility.yul\":1591:1608   */\n      mul\n        /* \"#utility.yul\":1581:1589   */\n      dup4\n        /* \"#utility.yul\":1577:1609   */\n      add\n        /* \"#utility.yul\":1574:1615   */\n      gt\n        /* \"#utility.yul\":1571:1699   */\n      iszero\n      tag_239\n      jumpi\n        /* \"#utility.yul\":1618:1697   */\n      tag_240\n      tag_158\n      jump\t// in\n    tag_240:\n        /* \"#utility.yul\":1571:1699   */\n    tag_239:\n        /* \"#utility.yul\":1152:1705   */\n      swap3\n      pop\n      swap3\n      swap1\n      pop\n      jump\t// out\n        /* \"#utility.yul\":1711:1837   */\n    tag_160:\n        /* \"#utility.yul\":1748:1755   */\n      0x00\n        /* \"#utility.yul\":1788:1830   */\n      0xffffffffffffffffffffffffffffffffffffffff\n        /* \"#utility.yul\":1781:1786   */\n      dup3\n        /* \"#utility.yul\":1777:1831   */\n      and\n        /* \"#utility.yul\":1766:1831   */\n      swap1\n      pop\n        /* \"#utility.yul\":1711:1837   */\n      swap2\n      swap1\n      pop\n      jump\t// out\n        /* \"#utility.yul\":1843:1947   */\n    tag_161:\n        /* \"#utility.yul\":1888:1895   */\n      0x00\n        /* \"#utility.yul\":1917:1941   */\n      tag_243\n        /* \"#utility.yul\":1935:1940   */\n      dup3\n        /* \"#utility.yul\":1917:1941   */\n      tag_160\n      jump\t// in\n    tag_243:\n        /* \"#utility.yul\":1906:1941   */\n      swap1\n      pop\n        /* \"#utility.yul\":1843:1947   */\n      swap2\n      swap1\n      pop\n      jump\t// out\n        /* \"#utility.yul\":1953:2091   */\n    tag_162:\n        /* \"#utility.yul\":2034:2066   */\n      tag_245\n        /* \"#utility.yul\":2060:2065   */\n      dup2\n        /* \"#utility.yul\":2034:2066   */\n      tag_161\n      jump\t// in\n    tag_245:\n        /* \"#utility.yul\":2027:2032   */\n      dup2\n        /* \"#utility.yul\":2024:2067   */\n      eq\n        /* \"#utility.yul\":2014:2085   */\n      tag_246\n      jumpi\n        /* \"#utility.yul\":2081:2082   */\n      0x00\n        /* \"#utility.yul\":2078:2079   */\n      dup1\n        /* \"#utility.yul\":2071:2083   */\n      revert\n        /* \"#utility.yul\":2014:2085   */\n    tag_246:\n        /* \"#utility.yul\":1953:2091   */\n      pop\n      jump\t// out\n        /* \"#utility.yul\":2097:2252   */\n    tag_163:\n        /* \"#utility.yul\":2151:2156   */\n      0x00\n        /* \"#utility.yul\":2189:2195   */\n      dup2\n        /* \"#utility.yul\":2176:2196   */\n      calldataload\n        /* \"#utility.yul\":2167:2196   */\n      swap1\n      pop\n        /* \"#utility.yul\":2205:2246   */\n      tag_248\n        /* \"#utility.yul\":2240:2245   */\n      dup2\n        /* \"#utility.yul\":2205:2246   */\n      tag_162\n      jump\t// in\n    tag_248:\n        /* \"#utility.yul\":2097:2252   */\n      swap3\n      swap2\n      pop\n      pop\n      jump\t// out\n        /* \"#utility.yul\":2258:2380   */\n    tag_164:\n        /* \"#utility.yul\":2331:2355   */\n      tag_250\n        /* \"#utility.yul\":2349:2354   */\n      dup2\n        /* \"#utility.yul\":2331:2355   */\n      tag_151\n      jump\t// in\n    tag_250:\n        /* \"#utility.yul\":2324:2329   */\n      dup2\n        /* \"#utility.yul\":2321:2356   */\n      eq\n        /* \"#utility.yul\":2311:2374   */\n      tag_251\n      jumpi\n        /* \"#utility.yul\":2370:2371   */\n      0x00\n        /* \"#utility.yul\":2367:2368   */\n      dup1\n        /* \"#utility.yul\":2360:2372   */\n      revert\n        /* \"#utility.yul\":2311:2374   */\n    tag_251:\n        /* \"#utility.yul\":2258:2380   */\n      pop\n      jump\t// out\n        /* \"#utility.yul\":2386:2525   */\n    tag_165:\n        /* \"#utility.yul\":2432:2437   */\n      0x00\n        /* \"#utility.yul\":2470:2476   */\n      dup2\n        /* \"#utility.yul\":2457:2477   */\n      calldataload\n        /* \"#utility.yul\":2448:2477   */\n      swap1\n      pop\n        /* \"#utility.yul\":2486:2519   */\n      tag_253\n        /* \"#utility.yul\":2513:2518   */\n      dup2\n        /* \"#utility.yul\":2486:2519   */\n      tag_164\n      jump\t// in\n    tag_253:\n        /* \"#utility.yul\":2386:2525   */\n      swap3\n      swap2\n      pop\n      pop\n      jump\t// out\n        /* \"#utility.yul\":2531:3366   */\n    tag_28:\n        /* \"#utility.yul\":2628:2634   */\n      0x00\n        /* \"#utility.yul\":2636:2642   */\n      dup1\n        /* \"#utility.yul\":2644:2650   */\n      0x00\n        /* \"#utility.yul\":2652:2658   */\n      dup1\n        /* \"#utility.yul\":2701:2703   */\n      0x60\n        /* \"#utility.yul\":2689:2698   */\n      dup6\n        /* \"#utility.yul\":2680:2687   */\n      dup8\n        /* \"#utility.yul\":2676:2699   */\n      sub\n        /* \"#utility.yul\":2672:2704   */\n      slt\n        /* \"#utility.yul\":2669:2788   */\n      iszero\n      tag_255\n      jumpi\n        /* \"#utility.yul\":2707:2786   */\n      tag_256\n      tag_154\n      jump\t// in\n    tag_256:\n        /* \"#utility.yul\":2669:2788   */\n    tag_255:\n        /* \"#utility.yul\":2855:2856   */\n      0x00\n        /* \"#utility.yul\":2844:2853   */\n      dup6\n        /* \"#utility.yul\":2840:2857   */\n      add\n        /* \"#utility.yul\":2827:2858   */\n      calldataload\n        /* \"#utility.yul\":2885:2903   */\n      0xffffffffffffffff\n        /* \"#utility.yul\":2877:2883   */\n      dup2\n        /* \"#utility.yul\":2874:2904   */\n      gt\n        /* \"#utility.yul\":2871:2988   */\n      iszero\n      tag_257\n      jumpi\n        /* \"#utility.yul\":2907:2986   */\n      tag_258\n      tag_155\n      jump\t// in\n    tag_258:\n        /* \"#utility.yul\":2871:2988   */\n    tag_257:\n        /* \"#utility.yul\":3020:3085   */\n      tag_259\n        /* \"#utility.yul\":3077:3084   */\n      dup8\n        /* \"#utility.yul\":3068:3074   */\n      dup3\n        /* \"#utility.yul\":3057:3066   */\n      dup9\n        /* \"#utility.yul\":3053:3075   */\n      add\n        /* \"#utility.yul\":3020:3085   */\n      tag_159\n      jump\t// in\n    tag_259:\n        /* \"#utility.yul\":3002:3085   */\n      swap5\n      pop\n      swap5\n      pop\n        /* \"#utility.yul\":2798:3095   */\n      pop\n        /* \"#utility.yul\":3134:3136   */\n      0x20\n        /* \"#utility.yul\":3160:3221   */\n      tag_260\n        /* \"#utility.yul\":3213:3220   */\n      dup8\n        /* \"#utility.yul\":3204:3210   */\n      dup3\n        /* \"#utility.yul\":3193:3202   */\n      dup9\n        /* \"#utility.yul\":3189:3211   */\n      add\n        /* \"#utility.yul\":3160:3221   */\n      tag_163\n      jump\t// in\n    tag_260:\n        /* \"#utility.yul\":3150:3221   */\n      swap3\n      pop\n        /* \"#utility.yul\":3105:3231   */\n      pop\n        /* \"#utility.yul\":3270:3272   */\n      0x40\n        /* \"#utility.yul\":3296:3349   */\n      tag_261\n        /* \"#utility.yul\":3341:3348   */\n      dup8\n        /* \"#utility.yul\":3332:3338   */\n      dup3\n        /* \"#utility.yul\":3321:3330   */\n      dup9\n        /* \"#utility.yul\":3317:3339   */\n      add\n        /* \"#utility.yul\":3296:3349   */\n      tag_165\n      jump\t// in\n    tag_261:\n        /* \"#utility.yul\":3286:3349   */\n      swap2\n      pop\n        /* \"#utility.yul\":3241:3359   */\n      pop\n        /* \"#utility.yul\":2531:3366   */\n      swap3\n      swap6\n      swap2\n      swap5\n      pop\n      swap3\n      pop\n      jump\t// out\n        /* \"#utility.yul\":3372:3468   */\n    tag_166:\n        /* \"#utility.yul\":3409:3416   */\n      0x00\n        /* \"#utility.yul\":3438:3462   */\n      tag_263\n        /* \"#utility.yul\":3456:3461   */\n      dup3\n        /* \"#utility.yul\":3438:3462   */\n      tag_160\n      jump\t// in\n    tag_263:\n        /* \"#utility.yul\":3427:3462   */\n      swap1\n      pop\n        /* \"#utility.yul\":3372:3468   */\n      swap2\n      swap1\n      pop\n      jump\t// out\n        /* \"#utility.yul\":3474:3596   */\n    tag_167:\n        /* \"#utility.yul\":3547:3571   */\n      tag_265\n        /* \"#utility.yul\":3565:3570   */\n      dup2\n        /* \"#utility.yul\":3547:3571   */\n      tag_166\n      jump\t// in\n    tag_265:\n        /* \"#utility.yul\":3540:3545   */\n      dup2\n        /* \"#utility.yul\":3537:3572   */\n      eq\n        /* \"#utility.yul\":3527:3590   */\n      tag_266\n      jumpi\n        /* \"#utility.yul\":3586:3587   */\n      0x00\n        /* \"#utility.yul\":3583:3584   */\n      dup1\n        /* \"#utility.yul\":3576:3588   */\n      revert\n        /* \"#utility.yul\":3527:3590   */\n    tag_266:\n        /* \"#utility.yul\":3474:3596   */\n      pop\n      jump\t// out\n        /* \"#utility.yul\":3602:3741   */\n    tag_168:\n        /* \"#utility.yul\":3648:3653   */\n      0x00\n        /* \"#utility.yul\":3686:3692   */\n      dup2\n        /* \"#utility.yul\":3673:3693   */\n      calldataload\n        /* \"#utility.yul\":3664:3693   */\n      swap1\n      pop\n        /* \"#utility.yul\":3702:3735   */\n      tag_268\n        /* \"#utility.yul\":3729:3734   */\n      dup2\n        /* \"#utility.yul\":3702:3735   */\n      tag_167\n      jump\t// in\n    tag_268:\n        /* \"#utility.yul\":3602:3741   */\n      swap3\n      swap2\n      pop\n      pop\n      jump\t// out\n        /* \"#utility.yul\":3747:4076   */\n    tag_33:\n        /* \"#utility.yul\":3806:3812   */\n      0x00\n        /* \"#utility.yul\":3855:3857   */\n      0x20\n        /* \"#utility.yul\":3843:3852   */\n      dup3\n        /* \"#utility.yul\":3834:3841   */\n      dup5\n        /* \"#utility.yul\":3830:3853   */\n      sub\n        /* \"#utility.yul\":3826:3858   */\n      slt\n        /* \"#utility.yul\":3823:3942   */\n      iszero\n      tag_270\n      jumpi\n        /* \"#utility.yul\":3861:3940   */\n      tag_271\n      tag_154\n      jump\t// in\n    tag_271:\n        /* \"#utility.yul\":3823:3942   */\n    tag_270:\n        /* \"#utility.yul\":3981:3982   */\n      0x00\n        /* \"#utility.yul\":4006:4059   */\n      tag_272\n        /* \"#utility.yul\":4051:4058   */\n      dup5\n        /* \"#utility.yul\":4042:4048   */\n      dup3\n        /* \"#utility.yul\":4031:4040   */\n      dup6\n        /* \"#utility.yul\":4027:4049   */\n      add\n        /* \"#utility.yul\":4006:4059   */\n      tag_168\n      jump\t// in\n    tag_272:\n        /* \"#utility.yul\":3996:4059   */\n      swap2\n      pop\n        /* \"#utility.yul\":3952:4069   */\n      pop\n        /* \"#utility.yul\":3747:4076   */\n      swap3\n      swap2\n      pop\n      pop\n      jump\t// out\n        /* \"#utility.yul\":4082:4411   */\n    tag_47:\n        /* \"#utility.yul\":4141:4147   */\n      0x00\n        /* \"#utility.yul\":4190:4192   */\n      0x20\n        /* \"#utility.yul\":4178:4187   */\n      dup3\n        /* \"#utility.yul\":4169:4176   */\n      dup5\n        /* \"#utility.yul\":4165:4188   */\n      sub\n        /* \"#utility.yul\":4161:4193   */\n      slt\n        /* \"#utility.yul\":4158:4277   */\n      iszero\n      tag_274\n      jumpi\n        /* \"#utility.yul\":4196:4275   */\n      tag_275\n      tag_154\n      jump\t// in\n    tag_275:\n        /* \"#utility.yul\":4158:4277   */\n    tag_274:\n        /* \"#utility.yul\":4316:4317   */\n      0x00\n        /* \"#utility.yul\":4341:4394   */\n      tag_276\n        /* \"#utility.yul\":4386:4393   */\n      dup5\n        /* \"#utility.yul\":4377:4383   */\n      dup3\n        /* \"#utility.yul\":4366:4375   */\n      dup6\n        /* \"#utility.yul\":4362:4384   */\n      add\n        /* \"#utility.yul\":4341:4394   */\n      tag_165\n      jump\t// in\n    tag_276:\n        /* \"#utility.yul\":4331:4394   */\n      swap2\n      pop\n        /* \"#utility.yul\":4287:4404   */\n      pop\n        /* \"#utility.yul\":4082:4411   */\n      swap3\n      swap2\n      pop\n      pop\n      jump\t// out\n        /* \"#utility.yul\":4417:4516   */\n    tag_169:\n        /* \"#utility.yul\":4469:4475   */\n      0x00\n        /* \"#utility.yul\":4503:4508   */\n      dup2\n        /* \"#utility.yul\":4497:4509   */\n      mload\n        /* \"#utility.yul\":4487:4509   */\n      swap1\n      pop\n        /* \"#utility.yul\":4417:4516   */\n      swap2\n      swap1\n      pop\n      jump\t// out\n        /* \"#utility.yul\":4522:4691   */\n    tag_170:\n        /* \"#utility.yul\":4606:4617   */\n      0x00\n        /* \"#utility.yul\":4640:4646   */\n      dup3\n        /* \"#utility.yul\":4635:4638   */\n      dup3\n        /* \"#utility.yul\":4628:4647   */\n      mstore\n        /* \"#utility.yul\":4680:4684   */\n      0x20\n        /* \"#utility.yul\":4675:4678   */\n      dup3\n        /* \"#utility.yul\":4671:4685   */\n      add\n        /* \"#utility.yul\":4656:4685   */\n      swap1\n      pop\n        /* \"#utility.yul\":4522:4691   */\n      swap3\n      swap2\n      pop\n      pop\n      jump\t// out\n        /* \"#utility.yul\":4697:4836   */\n    tag_171:\n        /* \"#utility.yul\":4786:4792   */\n      dup3\n        /* \"#utility.yul\":4781:4784   */\n      dup2\n        /* \"#utility.yul\":4776:4779   */\n      dup4\n        /* \"#utility.yul\":4770:4793   */\n      mcopy\n        /* \"#utility.yul\":4827:4828   */\n      0x00\n        /* \"#utility.yul\":4818:4824   */\n      dup4\n        /* \"#utility.yul\":4813:4816   */\n      dup4\n        /* \"#utility.yul\":4809:4825   */\n      add\n        /* \"#utility.yul\":4802:4829   */\n      mstore\n        /* \"#utility.yul\":4697:4836   */\n      pop\n      pop\n      pop\n      jump\t// out\n        /* \"#utility.yul\":4842:4944   */\n    tag_172:\n        /* \"#utility.yul\":4883:4889   */\n      0x00\n        /* \"#utility.yul\":4934:4936   */\n      0x1f\n        /* \"#utility.yul\":4930:4937   */\n      not\n        /* \"#utility.yul\":4925:4927   */\n      0x1f\n        /* \"#utility.yul\":4918:4923   */\n      dup4\n        /* \"#utility.yul\":4914:4928   */\n      add\n        /* \"#utility.yul\":4910:4938   */\n      and\n        /* \"#utility.yul\":4900:4938   */\n      swap1\n      pop\n        /* \"#utility.yul\":4842:4944   */\n      swap2\n      swap1\n      pop\n      jump\t// out\n        /* \"#utility.yul\":4950:5327   */\n    tag_173:\n        /* \"#utility.yul\":5038:5041   */\n      0x00\n        /* \"#utility.yul\":5066:5105   */\n      tag_282\n        /* \"#utility.yul\":5099:5104   */\n      dup3\n        /* \"#utility.yul\":5066:5105   */\n      tag_169\n      jump\t// in\n    tag_282:\n        /* \"#utility.yul\":5121:5192   */\n      tag_283\n        /* \"#utility.yul\":5185:5191   */\n      dup2\n        /* \"#utility.yul\":5180:5183   */\n      dup6\n        /* \"#utility.yul\":5121:5192   */\n      tag_170\n      jump\t// in\n    tag_283:\n        /* \"#utility.yul\":5114:5192   */\n      swap4\n      pop\n        /* \"#utility.yul\":5201:5266   */\n      tag_284\n        /* \"#utility.yul\":5259:5265   */\n      dup2\n        /* \"#utility.yul\":5254:5257   */\n      dup6\n        /* \"#utility.yul\":5247:5251   */\n      0x20\n        /* \"#utility.yul\":5240:5245   */\n      dup7\n        /* \"#utility.yul\":5236:5252   */\n      add\n        /* \"#utility.yul\":5201:5266   */\n      tag_171\n      jump\t// in\n    tag_284:\n        /* \"#utility.yul\":5291:5320   */\n      tag_285\n        /* \"#utility.yul\":5313:5319   */\n      dup2\n        /* \"#utility.yul\":5291:5320   */\n      tag_172\n      jump\t// in\n    tag_285:\n        /* \"#utility.yul\":5286:5289   */\n      dup5\n        /* \"#utility.yul\":5282:5321   */\n      add\n        /* \"#utility.yul\":5275:5321   */\n      swap2\n      pop\n        /* \"#utility.yul\":5042:5327   */\n      pop\n        /* \"#utility.yul\":4950:5327   */\n      swap3\n      swap2\n      pop\n      pop\n      jump\t// out\n        /* \"#utility.yul\":5333:5475   */\n    tag_174:\n        /* \"#utility.yul\":5436:5468   */\n      tag_287\n        /* \"#utility.yul\":5462:5467   */\n      dup2\n        /* \"#utility.yul\":5436:5468   */\n      tag_161\n      jump\t// in\n    tag_287:\n        /* \"#utility.yul\":5431:5434   */\n      dup3\n        /* \"#utility.yul\":5424:5469   */\n      mstore\n        /* \"#utility.yul\":5333:5475   */\n      pop\n      pop\n      jump\t// out\n        /* \"#utility.yul\":5481:5571   */\n    tag_175:\n        /* \"#utility.yul\":5515:5522   */\n      0x00\n        /* \"#utility.yul\":5558:5563   */\n      dup2\n        /* \"#utility.yul\":5551:5564   */\n      iszero\n        /* \"#utility.yul\":5544:5565   */\n      iszero\n        /* \"#utility.yul\":5533:5565   */\n      swap1\n      pop\n        /* \"#utility.yul\":5481:5571   */\n      swap2\n      swap1\n      pop\n      jump\t// out\n        /* \"#utility.yul\":5577:5686   */\n    tag_176:\n        /* \"#utility.yul\":5658:5679   */\n      tag_290\n        /* \"#utility.yul\":5673:5678   */\n      dup2\n        /* \"#utility.yul\":5658:5679   */\n      tag_175\n      jump\t// in\n    tag_290:\n        /* \"#utility.yul\":5653:5656   */\n      dup3\n        /* \"#utility.yul\":5646:5680   */\n      mstore\n        /* \"#utility.yul\":5577:5686   */\n      pop\n      pop\n      jump\t// out\n        /* \"#utility.yul\":5692:6467   */\n    tag_62:\n        /* \"#utility.yul\":5927:5931   */\n      0x00\n        /* \"#utility.yul\":5965:5968   */\n      0xa0\n        /* \"#utility.yul\":5954:5963   */\n      dup3\n        /* \"#utility.yul\":5950:5969   */\n      add\n        /* \"#utility.yul\":5942:5969   */\n      swap1\n      pop\n        /* \"#utility.yul\":6015:6024   */\n      dup2\n        /* \"#utility.yul\":6009:6013   */\n      dup2\n        /* \"#utility.yul\":6005:6025   */\n      sub\n        /* \"#utility.yul\":6001:6002   */\n      0x00\n        /* \"#utility.yul\":5990:5999   */\n      dup4\n        /* \"#utility.yul\":5986:6003   */\n      add\n        /* \"#utility.yul\":5979:6026   */\n      mstore\n        /* \"#utility.yul\":6043:6121   */\n      tag_292\n        /* \"#utility.yul\":6116:6120   */\n      dup2\n        /* \"#utility.yul\":6107:6113   */\n      dup9\n        /* \"#utility.yul\":6043:6121   */\n      tag_173\n      jump\t// in\n    tag_292:\n        /* \"#utility.yul\":6035:6121   */\n      swap1\n      pop\n        /* \"#utility.yul\":6131:6219   */\n      tag_293\n        /* \"#utility.yul\":6215:6217   */\n      0x20\n        /* \"#utility.yul\":6204:6213   */\n      dup4\n        /* \"#utility.yul\":6200:6218   */\n      add\n        /* \"#utility.yul\":6191:6197   */\n      dup8\n        /* \"#utility.yul\":6131:6219   */\n      tag_174\n      jump\t// in\n    tag_293:\n        /* \"#utility.yul\":6229:6301   */\n      tag_294\n        /* \"#utility.yul\":6297:6299   */\n      0x40\n        /* \"#utility.yul\":6286:6295   */\n      dup4\n        /* \"#utility.yul\":6282:6300   */\n      add\n        /* \"#utility.yul\":6273:6279   */\n      dup7\n        /* \"#utility.yul\":6229:6301   */\n      tag_152\n      jump\t// in\n    tag_294:\n        /* \"#utility.yul\":6311:6377   */\n      tag_295\n        /* \"#utility.yul\":6373:6375   */\n      0x60\n        /* \"#utility.yul\":6362:6371   */\n      dup4\n        /* \"#utility.yul\":6358:6376   */\n      add\n        /* \"#utility.yul\":6349:6355   */\n      dup6\n        /* \"#utility.yul\":6311:6377   */\n      tag_176\n      jump\t// in\n    tag_295:\n        /* \"#utility.yul\":6387:6460   */\n      tag_296\n        /* \"#utility.yul\":6455:6458   */\n      0x80\n        /* \"#utility.yul\":6444:6453   */\n      dup4\n        /* \"#utility.yul\":6440:6459   */\n      add\n        /* \"#utility.yul\":6431:6437   */\n      dup5\n        /* \"#utility.yul\":6387:6460   */\n      tag_152\n      jump\t// in\n    tag_296:\n        /* \"#utility.yul\":5692:6467   */\n      swap7\n      swap6\n      pop\n      pop\n      pop\n      pop\n      pop\n      pop\n      jump\t// out\n        /* \"#utility.yul\":6473:6591   */\n    tag_177:\n        /* \"#utility.yul\":6560:6584   */\n      tag_298\n        /* \"#utility.yul\":6578:6583   */\n      dup2\n        /* \"#utility.yul\":6560:6584   */\n      tag_166\n      jump\t// in\n    tag_298:\n        /* \"#utility.yul\":6555:6558   */\n      dup3\n        /* \"#utility.yul\":6548:6585   */\n      mstore\n        /* \"#utility.yul\":6473:6591   */\n      pop\n      pop\n      jump\t// out\n        /* \"#utility.yul\":6597:6819   */\n    tag_84:\n        /* \"#utility.yul\":6690:6694   */\n      0x00\n        /* \"#utility.yul\":6728:6730   */\n      0x20\n        /* \"#utility.yul\":6717:6726   */\n      dup3\n        /* \"#utility.yul\":6713:6731   */\n      add\n        /* \"#utility.yul\":6705:6731   */\n      swap1\n      pop\n        /* \"#utility.yul\":6741:6812   */\n      tag_300\n        /* \"#utility.yul\":6809:6810   */\n      0x00\n        /* \"#utility.yul\":6798:6807   */\n      dup4\n        /* \"#utility.yul\":6794:6811   */\n      add\n        /* \"#utility.yul\":6785:6791   */\n      dup5\n        /* \"#utility.yul\":6741:6812   */\n      tag_177\n      jump\t// in\n    tag_300:\n        /* \"#utility.yul\":6597:6819   */\n      swap3\n      swap2\n      pop\n      pop\n      jump\t// out\n        /* \"#utility.yul\":6825:7002   */\n    tag_178:\n        /* \"#utility.yul\":6965:6994   */\n      0x4f6e6c792061646d696e2063616e206578656375746520746869730000000000\n        /* \"#utility.yul\":6961:6962   */\n      0x00\n        /* \"#utility.yul\":6953:6959   */\n      dup3\n        /* \"#utility.yul\":6949:6963   */\n      add\n        /* \"#utility.yul\":6942:6995   */\n      mstore\n        /* \"#utility.yul\":6825:7002   */\n      pop\n      jump\t// out\n        /* \"#utility.yul\":7008:7374   */\n    tag_179:\n        /* \"#utility.yul\":7150:7153   */\n      0x00\n        /* \"#utility.yul\":7171:7238   */\n      tag_303\n        /* \"#utility.yul\":7235:7237   */\n      0x1b\n        /* \"#utility.yul\":7230:7233   */\n      dup4\n        /* \"#utility.yul\":7171:7238   */\n      tag_170\n      jump\t// in\n    tag_303:\n        /* \"#utility.yul\":7164:7238   */\n      swap2\n      pop\n        /* \"#utility.yul\":7247:7340   */\n      tag_304\n        /* \"#utility.yul\":7336:7339   */\n      dup3\n        /* \"#utility.yul\":7247:7340   */\n      tag_178\n      jump\t// in\n    tag_304:\n        /* \"#utility.yul\":7365:7367   */\n      0x20\n        /* \"#utility.yul\":7360:7363   */\n      dup3\n        /* \"#utility.yul\":7356:7368   */\n      add\n        /* \"#utility.yul\":7349:7368   */\n      swap1\n      pop\n        /* \"#utility.yul\":7008:7374   */\n      swap2\n      swap1\n      pop\n      jump\t// out\n        /* \"#utility.yul\":7380:7799   */\n    tag_89:\n        /* \"#utility.yul\":7546:7550   */\n      0x00\n        /* \"#utility.yul\":7584:7586   */\n      0x20\n        /* \"#utility.yul\":7573:7582   */\n      dup3\n        /* \"#utility.yul\":7569:7587   */\n      add\n        /* \"#utility.yul\":7561:7587   */\n      swap1\n      pop\n        /* \"#utility.yul\":7633:7642   */\n      dup2\n        /* \"#utility.yul\":7627:7631   */\n      dup2\n        /* \"#utility.yul\":7623:7643   */\n      sub\n        /* \"#utility.yul\":7619:7620   */\n      0x00\n        /* \"#utility.yul\":7608:7617   */\n      dup4\n        /* \"#utility.yul\":7604:7621   */\n      add\n        /* \"#utility.yul\":7597:7644   */\n      mstore\n        /* \"#utility.yul\":7661:7792   */\n      tag_306\n        /* \"#utility.yul\":7787:7791   */\n      dup2\n        /* \"#utility.yul\":7661:7792   */\n      tag_179\n      jump\t// in\n    tag_306:\n        /* \"#utility.yul\":7653:7792   */\n      swap1\n      pop\n        /* \"#utility.yul\":7380:7799   */\n      swap2\n      swap1\n      pop\n      jump\t// out\n        /* \"#utility.yul\":7805:7985   */\n    tag_180:\n        /* \"#utility.yul\":7853:7930   */\n      0x4e487b7100000000000000000000000000000000000000000000000000000000\n        /* \"#utility.yul\":7850:7851   */\n      0x00\n        /* \"#utility.yul\":7843:7931   */\n      mstore\n        /* \"#utility.yul\":7950:7954   */\n      0x11\n        /* \"#utility.yul\":7947:7948   */\n      0x04\n        /* \"#utility.yul\":7940:7955   */\n      mstore\n        /* \"#utility.yul\":7974:7978   */\n      0x24\n        /* \"#utility.yul\":7971:7972   */\n      0x00\n        /* \"#utility.yul\":7964:7979   */\n      revert\n        /* \"#utility.yul\":7991:8224   */\n    tag_92:\n        /* \"#utility.yul\":8030:8033   */\n      0x00\n        /* \"#utility.yul\":8053:8077   */\n      tag_309\n        /* \"#utility.yul\":8071:8076   */\n      dup3\n        /* \"#utility.yul\":8053:8077   */\n      tag_151\n      jump\t// in\n    tag_309:\n        /* \"#utility.yul\":8044:8077   */\n      swap2\n      pop\n        /* \"#utility.yul\":8099:8165   */\n      0xffffffffffffffffffffffffffffffffffffffffffffffffffffffffffffffff\n        /* \"#utility.yul\":8092:8097   */\n      dup3\n        /* \"#utility.yul\":8089:8166   */\n      sub\n        /* \"#utility.yul\":8086:8189   */\n      tag_310\n      jumpi\n        /* \"#utility.yul\":8169:8187   */\n      tag_311\n      tag_180\n      jump\t// in\n    tag_311:\n        /* \"#utility.yul\":8086:8189   */\n    tag_310:\n        /* \"#utility.yul\":8216:8217   */\n      0x01\n        /* \"#utility.yul\":8209:8214   */\n      dup3\n        /* \"#utility.yul\":8205:8218   */\n      add\n        /* \"#utility.yul\":8198:8218   */\n      swap1\n      pop\n        /* \"#utility.yul\":7991:8224   */\n      swap2\n      swap1\n      pop\n      jump\t// out\n        /* \"#utility.yul\":8230:8327   */\n    tag_181:\n        /* \"#utility.yul\":8289:8295   */\n      0x00\n        /* \"#utility.yul\":8317:8320   */\n      dup3\n        /* \"#utility.yul\":8307:8320   */\n      swap1\n      pop\n        /* \"#utility.yul\":8230:8327   */\n      swap3\n      swap2\n      pop\n      pop\n      jump\t// out\n        /* \"#utility.yul\":8333:8513   */\n    tag_182:\n        /* \"#utility.yul\":8381:8458   */\n      0x4e487b7100000000000000000000000000000000000000000000000000000000\n        /* \"#utility.yul\":8378:8379   */\n      0x00\n        /* \"#utility.yul\":8371:8459   */\n      mstore\n        /* \"#utility.yul\":8478:8482   */\n      0x41\n        /* \"#utility.yul\":8475:8476   */\n      0x04\n        /* \"#utility.yul\":8468:8483   */\n      mstore\n        /* \"#utility.yul\":8502:8506   */\n      0x24\n        /* \"#utility.yul\":8499:8500   */\n      0x00\n        /* \"#utility.yul\":8492:8507   */\n      revert\n        /* \"#utility.yul\":8519:8699   */\n    tag_183:\n        /* \"#utility.yul\":8567:8644   */\n      0x4e487b7100000000000000000000000000000000000000000000000000000000\n        /* \"#utility.yul\":8564:8565   */\n      0x00\n        /* \"#utility.yul\":8557:8645   */\n      mstore\n        /* \"#utility.yul\":8664:8668   */\n      0x22\n        /* \"#utility.yul\":8661:8662   */\n      0x04\n        /* \"#utility.yul\":8654:8669   */\n      mstore\n        /* \"#utility.yul\":8688:8692   */\n      0x24\n        /* \"#utility.yul\":8685:8686   */\n      0x00\n        /* \"#utility.yul\":8678:8693   */\n      revert\n        /* \"#utility.yul\":8705:9025   */\n    tag_122:\n        /* \"#utility.yul\":8749:8755   */\n      0x00\n        /* \"#utility.yul\":8786:8787   */\n      0x02\n        /* \"#utility.yul\":8780:8784   */\n      dup3\n        /* \"#utility.yul\":8776:8788   */\n      div\n        /* \"#utility.yul\":8766:8788   */\n      swap1\n      pop\n        /* \"#utility.yul\":8833:8834   */\n      0x01\n        /* \"#utility.yul\":8827:8831   */\n      dup3\n        /* \"#utility.yul\":8823:8835   */\n      and\n        /* \"#utility.yul\":8854:8872   */\n      dup1\n        /* \"#utility.yul\":8844:8925   */\n      tag_316\n      jumpi\n        /* \"#utility.yul\":8910:8914   */\n      0x7f\n        /* \"#utility.yul\":8902:8908   */\n      dup3\n        /* \"#utility.yul\":8898:8915   */\n      and\n        /* \"#utility.yul\":8888:8915   */\n      swap2\n      pop\n        /* \"#utility.yul\":8844:8925   */\n    tag_316:\n        /* \"#utility.yul\":8972:8974   */\n      0x20\n        /* \"#utility.yul\":8964:8970   */\n      dup3\n        /* \"#utility.yul\":8961:8975   */\n      lt\n        /* \"#utility.yul\":8941:8959   */\n      dup2\n        /* \"#utility.yul\":8938:8976   */\n      sub\n        /* \"#utility.yul\":8935:9019   */\n      tag_317\n      jumpi\n        /* \"#utility.yul\":8991:9009   */\n      tag_318\n      tag_183\n      jump\t// in\n    tag_318:\n        /* \"#utility.yul\":8935:9019   */\n    tag_317:\n        /* \"#utility.yul\":8756:9025   */\n      pop\n        /* \"#utility.yul\":8705:9025   */\n      swap2\n      swap1\n      pop\n      jump\t// out\n        /* \"#utility.yul\":9031:9172   */\n    tag_184:\n        /* \"#utility.yul\":9080:9084   */\n      0x00\n        /* \"#utility.yul\":9103:9106   */\n      dup2\n        /* \"#utility.yul\":9095:9106   */\n      swap1\n      pop\n        /* \"#utility.yul\":9126:9129   */\n      dup2\n        /* \"#utility.yul\":9123:9124   */\n      0x00\n        /* \"#utility.yul\":9116:9130   */\n      mstore\n        /* \"#utility.yul\":9160:9164   */\n      0x20\n        /* \"#utility.yul\":9157:9158   */\n      0x00\n        /* \"#utility.yul\":9147:9165   */\n      keccak256\n        /* \"#utility.yul\":9139:9165   */\n      swap1\n      pop\n        /* \"#utility.yul\":9031:9172   */\n      swap2\n      swap1\n      pop\n      jump\t// out\n        /* \"#utility.yul\":9178:9271   */\n    tag_185:\n        /* \"#utility.yul\":9215:9221   */\n      0x00\n        /* \"#utility.yul\":9262:9264   */\n      0x20\n        /* \"#utility.yul\":9257:9259   */\n      0x1f\n        /* \"#utility.yul\":9250:9255   */\n      dup4\n        /* \"#utility.yul\":9246:9260   */\n      add\n        /* \"#utility.yul\":9242:9265   */\n      div\n        /* \"#utility.yul\":9232:9265   */\n      swap1\n      pop\n        /* \"#utility.yul\":9178:9271   */\n      swap2\n      swap1\n      pop\n      jump\t// out\n        /* \"#utility.yul\":9277:9384   */\n    tag_186:\n        /* \"#utility.yul\":9321:9329   */\n      0x00\n        /* \"#utility.yul\":9371:9376   */\n      dup3\n        /* \"#utility.yul\":9365:9369   */\n      dup3\n        /* \"#utility.yul\":9361:9377   */\n      shl\n        /* \"#utility.yul\":9340:9377   */\n      swap1\n      pop\n        /* \"#utility.yul\":9277:9384   */\n      swap3\n      swap2\n      pop\n      pop\n      jump\t// out\n        /* \"#utility.yul\":9390:9783   */\n    tag_187:\n        /* \"#utility.yul\":9459:9465   */\n      0x00\n        /* \"#utility.yul\":9509:9510   */\n      0x08\n        /* \"#utility.yul\":9497:9507   */\n      dup4\n        /* \"#utility.yul\":9493:9511   */\n      mul\n        /* \"#utility.yul\":9532:9629   */\n      tag_323\n        /* \"#utility.yul\":9562:9628   */\n      0xffffffffffffffffffffffffffffffffffffffffffffffffffffffffffffffff\n        /* \"#utility.yul\":9551:9560   */\n      dup3\n        /* \"#utility.yul\":9532:9629   */\n      tag_186\n      jump\t// in\n    tag_323:\n        /* \"#utility.yul\":9650:9689   */\n      tag_324\n        /* \"#utility.yul\":9680:9688   */\n      dup7\n        /* \"#utility.yul\":9669:9678   */\n      dup4\n        /* \"#utility.yul\":9650:9689   */\n      tag_186\n      jump\t// in\n    tag_324:\n        /* \"#utility.yul\":9638:9689   */\n      swap6\n      pop\n        /* \"#utility.yul\":9722:9726   */\n      dup1\n        /* \"#utility.yul\":9718:9727   */\n      not\n        /* \"#utility.yul\":9711:9716   */\n      dup5\n        /* \"#utility.yul\":9707:9728   */\n      and\n        /* \"#utility.yul\":9698:9728   */\n      swap4\n      pop\n        /* \"#utility.yul\":9771:9775   */\n      dup1\n        /* \"#utility.yul\":9761:9769   */\n      dup7\n        /* \"#utility.yul\":9757:9776   */\n      and\n        /* \"#utility.yul\":9750:9755   */\n      dup5\n        /* \"#utility.yul\":9747:9777   */\n      or\n        /* \"#utility.yul\":9737:9777   */\n      swap3\n      pop\n        /* \"#utility.yul\":9466:9783   */\n      pop\n      pop\n        /* \"#utility.yul\":9390:9783   */\n      swap4\n      swap3\n      pop\n      pop\n      pop\n      jump\t// out\n        /* \"#utility.yul\":9789:9849   */\n    tag_188:\n        /* \"#utility.yul\":9817:9820   */\n      0x00\n        /* \"#utility.yul\":9838:9843   */\n      dup2\n        /* \"#utility.yul\":9831:9843   */\n      swap1\n      pop\n        /* \"#utility.yul\":9789:9849   */\n      swap2\n      swap1\n      pop\n      jump\t// out\n        /* \"#utility.yul\":9855:9997   */\n    tag_189:\n        /* \"#utility.yul\":9905:9914   */\n      0x00\n        /* \"#utility.yul\":9938:9991   */\n      tag_327\n        /* \"#utility.yul\":9956:9990   */\n      tag_328\n        /* \"#utility.yul\":9965:9989   */\n      tag_329\n        /* \"#utility.yul\":9983:9988   */\n      dup5\n        /* \"#utility.yul\":9965:9989   */\n      tag_151\n      jump\t// in\n    tag_329:\n        /* \"#utility.yul\":9956:9990   */\n      tag_188\n      jump\t// in\n    tag_328:\n        /* \"#utility.yul\":9938:9991   */\n      tag_151\n      jump\t// in\n    tag_327:\n        /* \"#utility.yul\":9925:9991   */\n      swap1\n      pop\n        /* \"#utility.yul\":9855:9997   */\n      swap2\n      swap1\n      pop\n      jump\t// out\n        /* \"#utility.yul\":10003:10078   */\n    tag_190:\n        /* \"#utility.yul\":10046:10049   */\n      0x00\n        /* \"#utility.yul\":10067:10072   */\n      dup2\n        /* \"#utility.yul\":10060:10072   */\n      swap1\n      pop\n        /* \"#utility.yul\":10003:10078   */\n      swap2\n      swap1\n      pop\n      jump\t// out\n        /* \"#utility.yul\":10084:10353   */\n    tag_191:\n        /* \"#utility.yul\":10194:10233   */\n      tag_332\n        /* \"#utility.yul\":10225:10232   */\n      dup4\n        /* \"#utility.yul\":10194:10233   */\n      tag_189\n      jump\t// in\n    tag_332:\n        /* \"#utility.yul\":10255:10346   */\n      tag_333\n        /* \"#utility.yul\":10304:10345   */\n      tag_334\n        /* \"#utility.yul\":10328:10344   */\n      dup3\n        /* \"#utility.yul\":10304:10345   */\n      tag_190\n      jump\t// in\n    tag_334:\n        /* \"#utility.yul\":10296:10302   */\n      dup5\n        /* \"#utility.yul\":10289:10293   */\n      dup5\n        /* \"#utility.yul\":10283:10294   */\n      sload\n        /* \"#utility.yul\":10255:10346   */\n      tag_187\n      jump\t// in\n    tag_333:\n        /* \"#utility.yul\":10249:10253   */\n      dup3\n        /* \"#utility.yul\":10242:10347   */\n      sstore\n        /* \"#utility.yul\":10160:10353   */\n      pop\n        /* \"#utility.yul\":10084:10353   */\n      pop\n      pop\n      pop\n      jump\t// out\n        /* \"#utility.yul\":10359:10432   */\n    tag_192:\n        /* \"#utility.yul\":10404:10407   */\n      0x00\n        /* \"#utility.yul\":10359:10432   */\n      swap1\n      jump\t// out\n        /* \"#utility.yul\":10438:10627   */\n    tag_193:\n        /* \"#utility.yul\":10515:10547   */\n      tag_337\n      tag_192\n      jump\t// in\n    tag_337:\n        /* \"#utility.yul\":10556:10621   */\n      tag_338\n        /* \"#utility.yul\":10614:10620   */\n      dup2\n        /* \"#utility.yul\":10606:10612   */\n      dup5\n        /* \"#utility.yul\":10600:10604   */\n      dup5\n        /* \"#utility.yul\":10556:10621   */\n      tag_191\n      jump\t// in\n    tag_338:\n        /* \"#utility.yul\":10491:10627   */\n      pop\n        /* \"#utility.yul\":10438:10627   */\n      pop\n      pop\n      jump\t// out\n        /* \"#utility.yul\":10633:10819   */\n    tag_194:\n        /* \"#utility.yul\":10693:10813   */\n    tag_340:\n        /* \"#utility.yul\":10710:10713   */\n      dup2\n        /* \"#utility.yul\":10703:10708   */\n      dup2\n        /* \"#utility.yul\":10700:10714   */\n      lt\n        /* \"#utility.yul\":10693:10813   */\n      iszero\n      tag_342\n      jumpi\n        /* \"#utility.yul\":10764:10803   */\n      tag_343\n        /* \"#utility.yul\":10801:10802   */\n      0x00\n        /* \"#utility.yul\":10794:10799   */\n      dup3\n        /* \"#utility.yul\":10764:10803   */\n      tag_193\n      jump\t// in\n    tag_343:\n        /* \"#utility.yul\":10737:10738   */\n      0x01\n        /* \"#utility.yul\":10730:10735   */\n      dup2\n        /* \"#utility.yul\":10726:10739   */\n      add\n        /* \"#utility.yul\":10717:10739   */\n      swap1\n      pop\n        /* \"#utility.yul\":10693:10813   */\n      jump(tag_340)\n    tag_342:\n        /* \"#utility.yul\":10633:10819   */\n      pop\n      pop\n      jump\t// out\n        /* \"#utility.yul\":10825:11368   */\n    tag_195:\n        /* \"#utility.yul\":10926:10928   */\n      0x1f\n        /* \"#utility.yul\":10921:10924   */\n      dup3\n        /* \"#utility.yul\":10918:10929   */\n      gt\n        /* \"#utility.yul\":10915:11361   */\n      iszero\n      tag_345\n      jumpi\n        /* \"#utility.yul\":10960:10998   */\n      tag_346\n        /* \"#utility.yul\":10992:10997   */\n      dup2\n        /* \"#utility.yul\":10960:10998   */\n      tag_184\n      jump\t// in\n    tag_346:\n        /* \"#utility.yul\":11044:11073   */\n      tag_347\n        /* \"#utility.yul\":11062:11072   */\n      dup5\n        /* \"#utility.yul\":11044:11073   */\n      tag_185\n      jump\t// in\n    tag_347:\n        /* \"#utility.yul\":11034:11042   */\n      dup2\n        /* \"#utility.yul\":11030:11074   */\n      add\n        /* \"#utility.yul\":11227:11229   */\n      0x20\n        /* \"#utility.yul\":11215:11225   */\n      dup6\n        /* \"#utility.yul\":11212:11230   */\n      lt\n        /* \"#utility.yul\":11209:11258   */\n      iszero\n      tag_348\n      jumpi\n        /* \"#utility.yul\":11248:11256   */\n      dup2\n        /* \"#utility.yul\":11233:11256   */\n      swap1\n      pop\n        /* \"#utility.yul\":11209:11258   */\n    tag_348:\n        /* \"#utility.yul\":11271:11351   */\n      tag_349\n        /* \"#utility.yul\":11327:11349   */\n      tag_350\n        /* \"#utility.yul\":11345:11348   */\n      dup6\n        /* \"#utility.yul\":11327:11349   */\n      tag_185\n      jump\t// in\n    tag_350:\n        /* \"#utility.yul\":11317:11325   */\n      dup4\n        /* \"#utility.yul\":11313:11350   */\n      add\n        /* \"#utility.yul\":11300:11311   */\n      dup3\n        /* \"#utility.yul\":11271:11351   */\n      tag_194\n      jump\t// in\n    tag_349:\n        /* \"#utility.yul\":10930:11361   */\n      pop\n      pop\n        /* \"#utility.yul\":10915:11361   */\n    tag_345:\n        /* \"#utility.yul\":10825:11368   */\n      pop\n      pop\n      pop\n      jump\t// out\n        /* \"#utility.yul\":11374:11491   */\n    tag_196:\n        /* \"#utility.yul\":11428:11436   */\n      0x00\n        /* \"#utility.yul\":11478:11483   */\n      dup3\n        /* \"#utility.yul\":11472:11476   */\n      dup3\n        /* \"#utility.yul\":11468:11484   */\n      shr\n        /* \"#utility.yul\":11447:11484   */\n      swap1\n      pop\n        /* \"#utility.yul\":11374:11491   */\n      swap3\n      swap2\n      pop\n      pop\n      jump\t// out\n        /* \"#utility.yul\":11497:11666   */\n    tag_197:\n        /* \"#utility.yul\":11541:11547   */\n      0x00\n        /* \"#utility.yul\":11574:11625   */\n      tag_353\n        /* \"#utility.yul\":11622:11623   */\n      0x00\n        /* \"#utility.yul\":11618:11624   */\n      not\n        /* \"#utility.yul\":11610:11615   */\n      dup5\n        /* \"#utility.yul\":11607:11608   */\n      0x08\n        /* \"#utility.yul\":11603:11616   */\n      mul\n        /* \"#utility.yul\":11574:11625   */\n      tag_196\n      jump\t// in\n    tag_353:\n        /* \"#utility.yul\":11570:11626   */\n      not\n        /* \"#utility.yul\":11655:11659   */\n      dup1\n        /* \"#utility.yul\":11649:11653   */\n      dup4\n        /* \"#utility.yul\":11645:11660   */\n      and\n        /* \"#utility.yul\":11635:11660   */\n      swap2\n      pop\n        /* \"#utility.yul\":11548:11666   */\n      pop\n        /* \"#utility.yul\":11497:11666   */\n      swap3\n      swap2\n      pop\n      pop\n      jump\t// out\n        /* \"#utility.yul\":11671:11966   */\n    tag_198:\n        /* \"#utility.yul\":11747:11751   */\n      0x00\n        /* \"#utility.yul\":11893:11922   */\n      tag_355\n        /* \"#utility.yul\":11918:11921   */\n      dup4\n        /* \"#utility.yul\":11912:11916   */\n      dup4\n        /* \"#utility.yul\":11893:11922   */\n      tag_197\n      jump\t// in\n    tag_355:\n        /* \"#utility.yul\":11885:11922   */\n      swap2\n      pop\n        /* \"#utility.yul\":11955:11958   */\n      dup3\n        /* \"#utility.yul\":11952:11953   */\n      0x02\n        /* \"#utility.yul\":11948:11959   */\n      mul\n        /* \"#utility.yul\":11942:11946   */\n      dup3\n        /* \"#utility.yul\":11939:11960   */\n      or\n        /* \"#utility.yul\":11931:11960   */\n      swap1\n      pop\n        /* \"#utility.yul\":11671:11966   */\n      swap3\n      swap2\n      pop\n      pop\n      jump\t// out\n        /* \"#utility.yul\":11971:13374   */\n    tag_94:\n        /* \"#utility.yul\":12095:12139   */\n      tag_357\n        /* \"#utility.yul\":12135:12138   */\n      dup4\n        /* \"#utility.yul\":12130:12133   */\n      dup4\n        /* \"#utility.yul\":12095:12139   */\n      tag_181\n      jump\t// in\n    tag_357:\n        /* \"#utility.yul\":12204:12222   */\n      0xffffffffffffffff\n        /* \"#utility.yul\":12196:12202   */\n      dup2\n        /* \"#utility.yul\":12193:12223   */\n      gt\n        /* \"#utility.yul\":12190:12246   */\n      iszero\n      tag_358\n      jumpi\n        /* \"#utility.yul\":12226:12244   */\n      tag_359\n      tag_182\n      jump\t// in\n    tag_359:\n        /* \"#utility.yul\":12190:12246   */\n    tag_358:\n        /* \"#utility.yul\":12270:12308   */\n      tag_360\n        /* \"#utility.yul\":12302:12306   */\n      dup3\n        /* \"#utility.yul\":12296:12307   */\n      sload\n        /* \"#utility.yul\":12270:12308   */\n      tag_122\n      jump\t// in\n    tag_360:\n        /* \"#utility.yul\":12355:12422   */\n      tag_361\n        /* \"#utility.yul\":12415:12421   */\n      dup3\n        /* \"#utility.yul\":12407:12413   */\n      dup3\n        /* \"#utility.yul\":12401:12405   */\n      dup6\n        /* \"#utility.yul\":12355:12422   */\n      tag_195\n      jump\t// in\n    tag_361:\n        /* \"#utility.yul\":12449:12450   */\n      0x00\n        /* \"#utility.yul\":12478:12480   */\n      0x1f\n        /* \"#utility.yul\":12470:12476   */\n      dup4\n        /* \"#utility.yul\":12467:12481   */\n      gt\n        /* \"#utility.yul\":12495:12496   */\n      0x01\n        /* \"#utility.yul\":12490:13122   */\n      dup2\n      eq\n      tag_363\n      jumpi\n        /* \"#utility.yul\":13166:13167   */\n      0x00\n        /* \"#utility.yul\":13183:13189   */\n      dup5\n        /* \"#utility.yul\":13180:13264   */\n      iszero\n      tag_364\n      jumpi\n        /* \"#utility.yul\":13239:13248   */\n      dup3\n        /* \"#utility.yul\":13234:13237   */\n      dup8\n        /* \"#utility.yul\":13230:13249   */\n      add\n        /* \"#utility.yul\":13217:13250   */\n      calldataload\n        /* \"#utility.yul\":13208:13250   */\n      swap1\n      pop\n        /* \"#utility.yul\":13180:13264   */\n    tag_364:\n        /* \"#utility.yul\":13290:13357   */\n      tag_365\n        /* \"#utility.yul\":13350:13356   */\n      dup6\n        /* \"#utility.yul\":13343:13348   */\n      dup3\n        /* \"#utility.yul\":13290:13357   */\n      tag_198\n      jump\t// in\n    tag_365:\n        /* \"#utility.yul\":13284:13288   */\n      dup7\n        /* \"#utility.yul\":13277:13358   */\n      sstore\n        /* \"#utility.yul\":13139:13368   */\n      pop\n        /* \"#utility.yul\":12460:13368   */\n      jump(tag_362)\n        /* \"#utility.yul\":12490:13122   */\n    tag_363:\n        /* \"#utility.yul\":12542:12546   */\n      0x1f\n        /* \"#utility.yul\":12538:12547   */\n      not\n        /* \"#utility.yul\":12530:12536   */\n      dup5\n        /* \"#utility.yul\":12526:12548   */\n      and\n        /* \"#utility.yul\":12576:12613   */\n      tag_366\n        /* \"#utility.yul\":12608:12612   */\n      dup7\n        /* \"#utility.yul\":12576:12613   */\n      tag_184\n      jump\t// in\n    tag_366:\n        /* \"#utility.yul\":12635:12636   */\n      0x00\n        /* \"#utility.yul\":12649:12864   */\n    tag_367:\n        /* \"#utility.yul\":12663:12670   */\n      dup3\n        /* \"#utility.yul\":12660:12661   */\n      dup2\n        /* \"#utility.yul\":12657:12671   */\n      lt\n        /* \"#utility.yul\":12649:12864   */\n      iszero\n      tag_369\n      jumpi\n        /* \"#utility.yul\":12749:12758   */\n      dup5\n        /* \"#utility.yul\":12744:12747   */\n      dup10\n        /* \"#utility.yul\":12740:12759   */\n      add\n        /* \"#utility.yul\":12727:12760   */\n      calldataload\n        /* \"#utility.yul\":12719:12725   */\n      dup3\n        /* \"#utility.yul\":12712:12761   */\n      sstore\n        /* \"#utility.yul\":12800:12801   */\n      0x01\n        /* \"#utility.yul\":12792:12798   */\n      dup3\n        /* \"#utility.yul\":12788:12802   */\n      add\n        /* \"#utility.yul\":12778:12802   */\n      swap2\n      pop\n        /* \"#utility.yul\":12847:12849   */\n      0x20\n        /* \"#utility.yul\":12836:12845   */\n      dup6\n        /* \"#utility.yul\":12832:12850   */\n      add\n        /* \"#utility.yul\":12819:12850   */\n      swap5\n      pop\n        /* \"#utility.yul\":12686:12690   */\n      0x20\n        /* \"#utility.yul\":12683:12684   */\n      dup2\n        /* \"#utility.yul\":12679:12691   */\n      add\n        /* \"#utility.yul\":12674:12691   */\n      swap1\n      pop\n        /* \"#utility.yul\":12649:12864   */\n      jump(tag_367)\n    tag_369:\n        /* \"#utility.yul\":12892:12898   */\n      dup7\n        /* \"#utility.yul\":12883:12890   */\n      dup4\n        /* \"#utility.yul\":12880:12899   */\n      lt\n        /* \"#utility.yul\":12877:13063   */\n      iszero\n      tag_370\n      jumpi\n        /* \"#utility.yul\":12957:12966   */\n      dup5\n        /* \"#utility.yul\":12952:12955   */\n      dup10\n        /* \"#utility.yul\":12948:12967   */\n      add\n        /* \"#utility.yul\":12935:12968   */\n      calldataload\n        /* \"#utility.yul\":13000:13048   */\n      tag_371\n        /* \"#utility.yul\":13042:13046   */\n      0x1f\n        /* \"#utility.yul\":13034:13040   */\n      dup10\n        /* \"#utility.yul\":13030:13047   */\n      and\n        /* \"#utility.yul\":13019:13028   */\n      dup3\n        /* \"#utility.yul\":13000:13048   */\n      tag_197\n      jump\t// in\n    tag_371:\n        /* \"#utility.yul\":12992:12998   */\n      dup4\n        /* \"#utility.yul\":12985:13049   */\n      sstore\n        /* \"#utility.yul\":12900:13063   */\n      pop\n        /* \"#utility.yul\":12877:13063   */\n    tag_370:\n        /* \"#utility.yul\":13109:13110   */\n      0x01\n        /* \"#utility.yul\":13105:13106   */\n      0x02\n        /* \"#utility.yul\":13097:13103   */\n      dup9\n        /* \"#utility.yul\":13093:13107   */\n      mul\n        /* \"#utility.yul\":13089:13111   */\n      add\n        /* \"#utility.yul\":13083:13087   */\n      dup9\n        /* \"#utility.yul\":13076:13112   */\n      sstore\n        /* \"#utility.yul\":12497:13122   */\n      pop\n      pop\n      pop\n        /* \"#utility.yul\":12460:13368   */\n    tag_362:\n      pop\n        /* \"#utility.yul\":12070:13374   */\n      pop\n      pop\n      pop\n        /* \"#utility.yul\":11971:13374   */\n      pop\n      pop\n      pop\n      jump\t// out\n        /* \"#utility.yul\":13380:13528   */\n    tag_199:\n        /* \"#utility.yul\":13478:13484   */\n      dup3\n        /* \"#utility.yul\":13473:13476   */\n      dup2\n        /* \"#utility.yul\":13468:13471   */\n      dup4\n        /* \"#utility.yul\":13455:13485   */\n      calldatacopy\n        /* \"#utility.yul\":13519:13520   */\n      0x00\n        /* \"#utility.yul\":13510:13516   */\n      dup4\n        /* \"#utility.yul\":13505:13508   */\n      dup4\n        /* \"#utility.yul\":13501:13517   */\n      add\n        /* \"#utility.yul\":13494:13521   */\n      mstore\n        /* \"#utility.yul\":13380:13528   */\n      pop\n      pop\n      pop\n      jump\t// out\n        /* \"#utility.yul\":13558:13875   */\n    tag_200:\n        /* \"#utility.yul\":13656:13659   */\n      0x00\n        /* \"#utility.yul\":13677:13748   */\n      tag_374\n        /* \"#utility.yul\":13741:13747   */\n      dup4\n        /* \"#utility.yul\":13736:13739   */\n      dup6\n        /* \"#utility.yul\":13677:13748   */\n      tag_170\n      jump\t// in\n    tag_374:\n        /* \"#utility.yul\":13670:13748   */\n      swap4\n      pop\n        /* \"#utility.yul\":13758:13814   */\n      tag_375\n        /* \"#utility.yul\":13807:13813   */\n      dup4\n        /* \"#utility.yul\":13802:13805   */\n      dup6\n        /* \"#utility.yul\":13795:13800   */\n      dup5\n        /* \"#utility.yul\":13758:13814   */\n      tag_199\n      jump\t// in\n    tag_375:\n        /* \"#utility.yul\":13839:13868   */\n      tag_376\n        /* \"#utility.yul\":13861:13867   */\n      dup4\n        /* \"#utility.yul\":13839:13868   */\n      tag_172\n      jump\t// in\n    tag_376:\n        /* \"#utility.yul\":13834:13837   */\n      dup5\n        /* \"#utility.yul\":13830:13869   */\n      add\n        /* \"#utility.yul\":13823:13869   */\n      swap1\n      pop\n        /* \"#utility.yul\":13558:13875   */\n      swap4\n      swap3\n      pop\n      pop\n      pop\n      jump\t// out\n        /* \"#utility.yul\":13881:14023   */\n    tag_201:\n        /* \"#utility.yul\":13931:13940   */\n      0x00\n        /* \"#utility.yul\":13964:14017   */\n      tag_378\n        /* \"#utility.yul\":13982:14016   */\n      tag_379\n        /* \"#utility.yul\":13991:14015   */\n      tag_380\n        /* \"#utility.yul\":14009:14014   */\n      dup5\n        /* \"#utility.yul\":13991:14015   */\n      tag_160\n      jump\t// in\n    tag_380:\n        /* \"#utility.yul\":13982:14016   */\n      tag_188\n      jump\t// in\n    tag_379:\n        /* \"#utility.yul\":13964:14017   */\n      tag_160\n      jump\t// in\n    tag_378:\n        /* \"#utility.yul\":13951:14017   */\n      swap1\n      pop\n        /* \"#utility.yul\":13881:14023   */\n      swap2\n      swap1\n      pop\n      jump\t// out\n        /* \"#utility.yul\":14029:14155   */\n    tag_202:\n        /* \"#utility.yul\":14079:14088   */\n      0x00\n        /* \"#utility.yul\":14112:14149   */\n      tag_382\n        /* \"#utility.yul\":14143:14148   */\n      dup3\n        /* \"#utility.yul\":14112:14149   */\n      tag_201\n      jump\t// in\n    tag_382:\n        /* \"#utility.yul\":14099:14149   */\n      swap1\n      pop\n        /* \"#utility.yul\":14029:14155   */\n      swap2\n      swap1\n      pop\n      jump\t// out\n        /* \"#utility.yul\":14161:14295   */\n    tag_203:\n        /* \"#utility.yul\":14219:14228   */\n      0x00\n        /* \"#utility.yul\":14252:14289   */\n      tag_384\n        /* \"#utility.yul\":14283:14288   */\n      dup3\n        /* \"#utility.yul\":14252:14289   */\n      tag_202\n      jump\t// in\n    tag_384:\n        /* \"#utility.yul\":14239:14289   */\n      swap1\n      pop\n        /* \"#utility.yul\":14161:14295   */\n      swap2\n      swap1\n      pop\n      jump\t// out\n        /* \"#utility.yul\":14301:14448   */\n    tag_204:\n        /* \"#utility.yul\":14396:14441   */\n      tag_386\n        /* \"#utility.yul\":14435:14440   */\n      dup2\n        /* \"#utility.yul\":14396:14441   */\n      tag_203\n      jump\t// in\n    tag_386:\n        /* \"#utility.yul\":14391:14394   */\n      dup3\n        /* \"#utility.yul\":14384:14442   */\n      mstore\n        /* \"#utility.yul\":14301:14448   */\n      pop\n      pop\n      jump\t// out\n        /* \"#utility.yul\":14454:15023   */\n    tag_96:\n        /* \"#utility.yul\":14641:14645   */\n      0x00\n        /* \"#utility.yul\":14679:14681   */\n      0x60\n        /* \"#utility.yul\":14668:14677   */\n      dup3\n        /* \"#utility.yul\":14664:14682   */\n      add\n        /* \"#utility.yul\":14656:14682   */\n      swap1\n      pop\n        /* \"#utility.yul\":14728:14737   */\n      dup2\n        /* \"#utility.yul\":14722:14726   */\n      dup2\n        /* \"#utility.yul\":14718:14738   */\n      sub\n        /* \"#utility.yul\":14714:14715   */\n      0x00\n        /* \"#utility.yul\":14703:14712   */\n      dup4\n        /* \"#utility.yul\":14699:14716   */\n      add\n        /* \"#utility.yul\":14692:14739   */\n      mstore\n        /* \"#utility.yul\":14756:14844   */\n      tag_388\n        /* \"#utility.yul\":14839:14843   */\n      dup2\n        /* \"#utility.yul\":14830:14836   */\n      dup7\n        /* \"#utility.yul\":14822:14828   */\n      dup9\n        /* \"#utility.yul\":14756:14844   */\n      tag_200\n      jump\t// in\n    tag_388:\n        /* \"#utility.yul\":14748:14844   */\n      swap1\n      pop\n        /* \"#utility.yul\":14854:14934   */\n      tag_389\n        /* \"#utility.yul\":14930:14932   */\n      0x20\n        /* \"#utility.yul\":14919:14928   */\n      dup4\n        /* \"#utility.yul\":14915:14933   */\n      add\n        /* \"#utility.yul\":14906:14912   */\n      dup6\n        /* \"#utility.yul\":14854:14934   */\n      tag_204\n      jump\t// in\n    tag_389:\n        /* \"#utility.yul\":14944:15016   */\n      tag_390\n        /* \"#utility.yul\":15012:15014   */\n      0x40\n        /* \"#utility.yul\":15001:15010   */\n      dup4\n        /* \"#utility.yul\":14997:15015   */\n      add\n        /* \"#utility.yul\":14988:14994   */\n      dup5\n        /* \"#utility.yul\":14944:15016   */\n      tag_152\n      jump\t// in\n    tag_390:\n        /* \"#utility.yul\":14454:15023   */\n      swap6\n      swap5\n      pop\n      pop\n      pop\n      pop\n      pop\n      jump\t// out\n        /* \"#utility.yul\":15029:15250   */\n    tag_205:\n        /* \"#utility.yul\":15169:15203   */\n      0x596f75206d757374206265206120636f6e7472696275746f7220746f20766f74\n        /* \"#utility.yul\":15165:15166   */\n      0x00\n        /* \"#utility.yul\":15157:15163   */\n      dup3\n        /* \"#utility.yul\":15153:15167   */\n      add\n        /* \"#utility.yul\":15146:15204   */\n      mstore\n        /* \"#utility.yul\":15238:15242   */\n      0x6521000000000000000000000000000000000000000000000000000000000000\n        /* \"#utility.yul\":15233:15235   */\n      0x20\n        /* \"#utility.yul\":15225:15231   */\n      dup3\n        /* \"#utility.yul\":15221:15236   */\n      add\n        /* \"#utility.yul\":15214:15243   */\n      mstore\n        /* \"#utility.yul\":15029:15250   */\n      pop\n      jump\t// out\n        /* \"#utility.yul\":15256:15622   */\n    tag_206:\n        /* \"#utility.yul\":15398:15401   */\n      0x00\n        /* \"#utility.yul\":15419:15486   */\n      tag_393\n        /* \"#utility.yul\":15483:15485   */\n      0x22\n        /* \"#utility.yul\":15478:15481   */\n      dup4\n        /* \"#utility.yul\":15419:15486   */\n      tag_170\n      jump\t// in\n    tag_393:\n        /* \"#utility.yul\":15412:15486   */\n      swap2\n      pop\n        /* \"#utility.yul\":15495:15588   */\n      tag_394\n        /* \"#utility.yul\":15584:15587   */\n      dup3\n        /* \"#utility.yul\":15495:15588   */\n      tag_205\n      jump\t// in\n    tag_394:\n        /* \"#utility.yul\":15613:15615   */\n      0x40\n        /* \"#utility.yul\":15608:15611   */\n      dup3\n        /* \"#utility.yul\":15604:15616   */\n      add\n        /* \"#utility.yul\":15597:15616   */\n      swap1\n      pop\n        /* \"#utility.yul\":15256:15622   */\n      swap2\n      swap1\n      pop\n      jump\t// out\n        /* \"#utility.yul\":15628:16047   */\n    tag_100:\n        /* \"#utility.yul\":15794:15798   */\n      0x00\n        /* \"#utility.yul\":15832:15834   */\n      0x20\n        /* \"#utility.yul\":15821:15830   */\n      dup3\n        /* \"#utility.yul\":15817:15835   */\n      add\n        /* \"#utility.yul\":15809:15835   */\n      swap1\n      pop\n        /* \"#utility.yul\":15881:15890   */\n      dup2\n        /* \"#utility.yul\":15875:15879   */\n      dup2\n        /* \"#utility.yul\":15871:15891   */\n      sub\n        /* \"#utility.yul\":15867:15868   */\n      0x00\n        /* \"#utility.yul\":15856:15865   */\n      dup4\n        /* \"#utility.yul\":15852:15869   */\n      add\n        /* \"#utility.yul\":15845:15892   */\n      mstore\n        /* \"#utility.yul\":15909:16040   */\n      tag_396\n        /* \"#utility.yul\":16035:16039   */\n      dup2\n        /* \"#utility.yul\":15909:16040   */\n      tag_206\n      jump\t// in\n    tag_396:\n        /* \"#utility.yul\":15901:16040   */\n      swap1\n      pop\n        /* \"#utility.yul\":15628:16047   */\n      swap2\n      swap1\n      pop\n      jump\t// out\n        /* \"#utility.yul\":16053:16226   */\n    tag_207:\n        /* \"#utility.yul\":16193:16218   */\n      0x596f75206861766520616c726561647920766f74656421000000000000000000\n        /* \"#utility.yul\":16189:16190   */\n      0x00\n        /* \"#utility.yul\":16181:16187   */\n      dup3\n        /* \"#utility.yul\":16177:16191   */\n      add\n        /* \"#utility.yul\":16170:16219   */\n      mstore\n        /* \"#utility.yul\":16053:16226   */\n      pop\n      jump\t// out\n        /* \"#utility.yul\":16232:16598   */\n    tag_208:\n        /* \"#utility.yul\":16374:16377   */\n      0x00\n        /* \"#utility.yul\":16395:16462   */\n      tag_399\n        /* \"#utility.yul\":16459:16461   */\n      0x17\n        /* \"#utility.yul\":16454:16457   */\n      dup4\n        /* \"#utility.yul\":16395:16462   */\n      tag_170\n      jump\t// in\n    tag_399:\n        /* \"#utility.yul\":16388:16462   */\n      swap2\n      pop\n        /* \"#utility.yul\":16471:16564   */\n      tag_400\n        /* \"#utility.yul\":16560:16563   */\n      dup3\n        /* \"#utility.yul\":16471:16564   */\n      tag_207\n      jump\t// in\n    tag_400:\n        /* \"#utility.yul\":16589:16591   */\n      0x20\n        /* \"#utility.yul\":16584:16587   */\n      dup3\n        /* \"#utility.yul\":16580:16592   */\n      add\n        /* \"#utility.yul\":16573:16592   */\n      swap1\n      pop\n        /* \"#utility.yul\":16232:16598   */\n      swap2\n      swap1\n      pop\n      jump\t// out\n        /* \"#utility.yul\":16604:17023   */\n    tag_103:\n        /* \"#utility.yul\":16770:16774   */\n      0x00\n        /* \"#utility.yul\":16808:16810   */\n      0x20\n        /* \"#utility.yul\":16797:16806   */\n      dup3\n        /* \"#utility.yul\":16793:16811   */\n      add\n        /* \"#utility.yul\":16785:16811   */\n      swap1\n      pop\n        /* \"#utility.yul\":16857:16866   */\n      dup2\n        /* \"#utility.yul\":16851:16855   */\n      dup2\n        /* \"#utility.yul\":16847:16867   */\n      sub\n        /* \"#utility.yul\":16843:16844   */\n      0x00\n        /* \"#utility.yul\":16832:16841   */\n      dup4\n        /* \"#utility.yul\":16828:16845   */\n      add\n        /* \"#utility.yul\":16821:16868   */\n      mstore\n        /* \"#utility.yul\":16885:17016   */\n      tag_402\n        /* \"#utility.yul\":17011:17015   */\n      dup2\n        /* \"#utility.yul\":16885:17016   */\n      tag_208\n      jump\t// in\n    tag_402:\n        /* \"#utility.yul\":16877:17016   */\n      swap1\n      pop\n        /* \"#utility.yul\":16604:17023   */\n      swap2\n      swap1\n      pop\n      jump\t// out\n        /* \"#utility.yul\":17029:17255   */\n    tag_209:\n        /* \"#utility.yul\":17169:17203   */\n      0x546865207265717565737420686173206265656e20616c726561647920636f6d\n        /* \"#utility.yul\":17165:17166   */\n      0x00\n        /* \"#utility.yul\":17157:17163   */\n      dup3\n        /* \"#utility.yul\":17153:17167   */\n      add\n        /* \"#utility.yul\":17146:17204   */\n      mstore\n        /* \"#utility.yul\":17238:17247   */\n      0x706c657465642100000000000000000000000000000000000000000000000000\n        /* \"#utility.yul\":17233:17235   */\n      0x20\n        /* \"#utility.yul\":17225:17231   */\n      dup3\n        /* \"#utility.yul\":17221:17236   */\n      add\n        /* \"#utility.yul\":17214:17248   */\n      mstore\n        /* \"#utility.yul\":17029:17255   */\n      pop\n      jump\t// out\n        /* \"#utility.yul\":17261:17627   */\n    tag_210:\n        /* \"#utility.yul\":17403:17406   */\n      0x00\n        /* \"#utility.yul\":17424:17491   */\n      tag_405\n        /* \"#utility.yul\":17488:17490   */\n      0x27\n        /* \"#utility.yul\":17483:17486   */\n      dup4\n        /* \"#utility.yul\":17424:17491   */\n      tag_170\n      jump\t// in\n    tag_405:\n        /* \"#utility.yul\":17417:17491   */\n      swap2\n      pop\n        /* \"#utility.yul\":17500:17593   */\n      tag_406\n        /* \"#utility.yul\":17589:17592   */\n      dup3\n        /* \"#utility.yul\":17500:17593   */\n      tag_209\n      jump\t// in\n    tag_406:\n        /* \"#utility.yul\":17618:17620   */\n      0x40\n        /* \"#utility.yul\":17613:17616   */\n      dup3\n        /* \"#utility.yul\":17609:17621   */\n      add\n        /* \"#utility.yul\":17602:17621   */\n      swap1\n      pop\n        /* \"#utility.yul\":17261:17627   */\n      swap2\n      swap1\n      pop\n      jump\t// out\n        /* \"#utility.yul\":17633:18052   */\n    tag_111:\n        /* \"#utility.yul\":17799:17803   */\n      0x00\n        /* \"#utility.yul\":17837:17839   */\n      0x20\n        /* \"#utility.yul\":17826:17835   */\n      dup3\n        /* \"#utility.yul\":17822:17840   */\n      add\n        /* \"#utility.yul\":17814:17840   */\n      swap1\n      pop\n        /* \"#utility.yul\":17886:17895   */\n      dup2\n        /* \"#utility.yul\":17880:17884   */\n      dup2\n        /* \"#utility.yul\":17876:17896   */\n      sub\n        /* \"#utility.yul\":17872:17873   */\n      0x00\n        /* \"#utility.yul\":17861:17870   */\n      dup4\n        /* \"#utility.yul\":17857:17874   */\n      add\n        /* \"#utility.yul\":17850:17897   */\n      mstore\n        /* \"#utility.yul\":17914:18045   */\n      tag_408\n        /* \"#utility.yul\":18040:18044   */\n      dup2\n        /* \"#utility.yul\":17914:18045   */\n      tag_210\n      jump\t// in\n    tag_408:\n        /* \"#utility.yul\":17906:18045   */\n      swap1\n      pop\n        /* \"#utility.yul\":17633:18052   */\n      swap2\n      swap1\n      pop\n      jump\t// out\n        /* \"#utility.yul\":18058:18238   */\n    tag_211:\n        /* \"#utility.yul\":18106:18183   */\n      0x4e487b7100000000000000000000000000000000000000000000000000000000\n        /* \"#utility.yul\":18103:18104   */\n      0x00\n        /* \"#utility.yul\":18096:18184   */\n      mstore\n        /* \"#utility.yul\":18203:18207   */\n      0x12\n        /* \"#utility.yul\":18200:18201   */\n      0x04\n        /* \"#utility.yul\":18193:18208   */\n      mstore\n        /* \"#utility.yul\":18227:18231   */\n      0x24\n        /* \"#utility.yul\":18224:18225   */\n      0x00\n        /* \"#utility.yul\":18217:18232   */\n      revert\n        /* \"#utility.yul\":18244:18429   */\n    tag_113:\n        /* \"#utility.yul\":18284:18285   */\n      0x00\n        /* \"#utility.yul\":18301:18321   */\n      tag_411\n        /* \"#utility.yul\":18319:18320   */\n      dup3\n        /* \"#utility.yul\":18301:18321   */\n      tag_151\n      jump\t// in\n    tag_411:\n        /* \"#utility.yul\":18296:18321   */\n      swap2\n      pop\n        /* \"#utility.yul\":18335:18355   */\n      tag_412\n        /* \"#utility.yul\":18353:18354   */\n      dup4\n        /* \"#utility.yul\":18335:18355   */\n      tag_151\n      jump\t// in\n    tag_412:\n        /* \"#utility.yul\":18330:18355   */\n      swap3\n      pop\n        /* \"#utility.yul\":18374:18375   */\n      dup3\n        /* \"#utility.yul\":18364:18399   */\n      tag_413\n      jumpi\n        /* \"#utility.yul\":18379:18397   */\n      tag_414\n      tag_211\n      jump\t// in\n    tag_414:\n        /* \"#utility.yul\":18364:18399   */\n    tag_413:\n        /* \"#utility.yul\":18421:18422   */\n      dup3\n        /* \"#utility.yul\":18418:18419   */\n      dup3\n        /* \"#utility.yul\":18414:18423   */\n      div\n        /* \"#utility.yul\":18409:18423   */\n      swap1\n      pop\n        /* \"#utility.yul\":18244:18429   */\n      swap3\n      swap2\n      pop\n      pop\n      jump\t// out\n        /* \"#utility.yul\":18435:18674   */\n    tag_212:\n        /* \"#utility.yul\":18575:18609   */\n      0x5468652072657175657374206e65656473206d6f7265207468616e2035302520\n        /* \"#utility.yul\":18571:18572   */\n      0x00\n        /* \"#utility.yul\":18563:18569   */\n      dup3\n        /* \"#utility.yul\":18559:18573   */\n      add\n        /* \"#utility.yul\":18552:18610   */\n      mstore\n        /* \"#utility.yul\":18644:18666   */\n      0x6f662074686520636f6e7472696275746f72732e000000000000000000000000\n        /* \"#utility.yul\":18639:18641   */\n      0x20\n        /* \"#utility.yul\":18631:18637   */\n      dup3\n        /* \"#utility.yul\":18627:18642   */\n      add\n        /* \"#utility.yul\":18620:18667   */\n      mstore\n        /* \"#utility.yul\":18435:18674   */\n      pop\n      jump\t// out\n        /* \"#utility.yul\":18680:19046   */\n    tag_213:\n        /* \"#utility.yul\":18822:18825   */\n      0x00\n        /* \"#utility.yul\":18843:18910   */\n      tag_417\n        /* \"#utility.yul\":18907:18909   */\n      0x34\n        /* \"#utility.yul\":18902:18905   */\n      dup4\n        /* \"#utility.yul\":18843:18910   */\n      tag_170\n      jump\t// in\n    tag_417:\n        /* \"#utility.yul\":18836:18910   */\n      swap2\n      pop\n        /* \"#utility.yul\":18919:19012   */\n      tag_418\n        /* \"#utility.yul\":19008:19011   */\n      dup3\n        /* \"#utility.yul\":18919:19012   */\n      tag_212\n      jump\t// in\n    tag_418:\n        /* \"#utility.yul\":19037:19039   */\n      0x40\n        /* \"#utility.yul\":19032:19035   */\n      dup3\n        /* \"#utility.yul\":19028:19040   */\n      add\n        /* \"#utility.yul\":19021:19040   */\n      swap1\n      pop\n        /* \"#utility.yul\":18680:19046   */\n      swap2\n      swap1\n      pop\n      jump\t// out\n        /* \"#utility.yul\":19052:19471   */\n    tag_116:\n        /* \"#utility.yul\":19218:19222   */\n      0x00\n        /* \"#utility.yul\":19256:19258   */\n      0x20\n        /* \"#utility.yul\":19245:19254   */\n      dup3\n        /* \"#utility.yul\":19241:19259   */\n      add\n        /* \"#utility.yul\":19233:19259   */\n      swap1\n      pop\n        /* \"#utility.yul\":19305:19314   */\n      dup2\n        /* \"#utility.yul\":19299:19303   */\n      dup2\n        /* \"#utility.yul\":19295:19315   */\n      sub\n        /* \"#utility.yul\":19291:19292   */\n      0x00\n        /* \"#utility.yul\":19280:19289   */\n      dup4\n        /* \"#utility.yul\":19276:19293   */\n      add\n        /* \"#utility.yul\":19269:19316   */\n      mstore\n        /* \"#utility.yul\":19333:19464   */\n      tag_420\n        /* \"#utility.yul\":19459:19463   */\n      dup2\n        /* \"#utility.yul\":19333:19464   */\n      tag_213\n      jump\t// in\n    tag_420:\n        /* \"#utility.yul\":19325:19464   */\n      swap1\n      pop\n        /* \"#utility.yul\":19052:19471   */\n      swap2\n      swap1\n      pop\n      jump\t// out\n        /* \"#utility.yul\":19477:19825   */\n    tag_120:\n        /* \"#utility.yul\":19606:19610   */\n      0x00\n        /* \"#utility.yul\":19644:19646   */\n      0x40\n        /* \"#utility.yul\":19633:19642   */\n      dup3\n        /* \"#utility.yul\":19629:19647   */\n      add\n        /* \"#utility.yul\":19621:19647   */\n      swap1\n      pop\n        /* \"#utility.yul\":19657:19736   */\n      tag_422\n        /* \"#utility.yul\":19733:19734   */\n      0x00\n        /* \"#utility.yul\":19722:19731   */\n      dup4\n        /* \"#utility.yul\":19718:19735   */\n      add\n        /* \"#utility.yul\":19709:19715   */\n      dup6\n        /* \"#utility.yul\":19657:19736   */\n      tag_204\n      jump\t// in\n    tag_422:\n        /* \"#utility.yul\":19746:19818   */\n      tag_423\n        /* \"#utility.yul\":19814:19816   */\n      0x20\n        /* \"#utility.yul\":19803:19812   */\n      dup4\n        /* \"#utility.yul\":19799:19817   */\n      add\n        /* \"#utility.yul\":19790:19796   */\n      dup5\n        /* \"#utility.yul\":19746:19818   */\n      tag_152\n      jump\t// in\n    tag_423:\n        /* \"#utility.yul\":19477:19825   */\n      swap4\n      swap3\n      pop\n      pop\n      pop\n      jump\t// out\n        /* \"#utility.yul\":19831:20005   */\n    tag_214:\n        /* \"#utility.yul\":19971:19997   */\n      0x446561646c696e6520686173206e6f74207061737365642e0000000000000000\n        /* \"#utility.yul\":19967:19968   */\n      0x00\n        /* \"#utility.yul\":19959:19965   */\n      dup3\n        /* \"#utility.yul\":19955:19969   */\n      add\n        /* \"#utility.yul\":19948:19998   */\n      mstore\n        /* \"#utility.yul\":19831:20005   */\n      pop\n      jump\t// out\n        /* \"#utility.yul\":20011:20377   */\n    tag_215:\n        /* \"#utility.yul\":20153:20156   */\n      0x00\n        /* \"#utility.yul\":20174:20241   */\n      tag_426\n        /* \"#utility.yul\":20238:20240   */\n      0x18\n        /* \"#utility.yul\":20233:20236   */\n      dup4\n        /* \"#utility.yul\":20174:20241   */\n      tag_170\n      jump\t// in\n    tag_426:\n        /* \"#utility.yul\":20167:20241   */\n      swap2\n      pop\n        /* \"#utility.yul\":20250:20343   */\n      tag_427\n        /* \"#utility.yul\":20339:20342   */\n      dup3\n        /* \"#utility.yul\":20250:20343   */\n      tag_214\n      jump\t// in\n    tag_427:\n        /* \"#utility.yul\":20368:20370   */\n      0x20\n        /* \"#utility.yul\":20363:20366   */\n      dup3\n        /* \"#utility.yul\":20359:20371   */\n      add\n        /* \"#utility.yul\":20352:20371   */\n      swap1\n      pop\n        /* \"#utility.yul\":20011:20377   */\n      swap2\n      swap1\n      pop\n      jump\t// out\n        /* \"#utility.yul\":20383:20802   */\n    tag_130:\n        /* \"#utility.yul\":20549:20553   */\n      0x00\n        /* \"#utility.yul\":20587:20589   */\n      0x20\n        /* \"#utility.yul\":20576:20585   */\n      dup3\n        /* \"#utility.yul\":20572:20590   */\n      add\n        /* \"#utility.yul\":20564:20590   */\n      swap1\n      pop\n        /* \"#utility.yul\":20636:20645   */\n      dup2\n        /* \"#utility.yul\":20630:20634   */\n      dup2\n        /* \"#utility.yul\":20626:20646   */\n      sub\n        /* \"#utility.yul\":20622:20623   */\n      0x00\n        /* \"#utility.yul\":20611:20620   */\n      dup4\n        /* \"#utility.yul\":20607:20624   */\n      add\n        /* \"#utility.yul\":20600:20647   */\n      mstore\n        /* \"#utility.yul\":20664:20795   */\n      tag_429\n        /* \"#utility.yul\":20790:20794   */\n      dup2\n        /* \"#utility.yul\":20664:20795   */\n      tag_215\n      jump\t// in\n    tag_429:\n        /* \"#utility.yul\":20656:20795   */\n      swap1\n      pop\n        /* \"#utility.yul\":20383:20802   */\n      swap2\n      swap1\n      pop\n      jump\t// out\n        /* \"#utility.yul\":20808:20974   */\n    tag_216:\n        /* \"#utility.yul\":20948:20966   */\n      0x54686520676f616c20776173206d657400000000000000000000000000000000\n        /* \"#utility.yul\":20944:20945   */\n      0x00\n        /* \"#utility.yul\":20936:20942   */\n      dup3\n        /* \"#utility.yul\":20932:20946   */\n      add\n        /* \"#utility.yul\":20925:20967   */\n      mstore\n        /* \"#utility.yul\":20808:20974   */\n      pop\n      jump\t// out\n        /* \"#utility.yul\":20980:21346   */\n    tag_217:\n        /* \"#utility.yul\":21122:21125   */\n      0x00\n        /* \"#utility.yul\":21143:21210   */\n      tag_432\n        /* \"#utility.yul\":21207:21209   */\n      0x10\n        /* \"#utility.yul\":21202:21205   */\n      dup4\n        /* \"#utility.yul\":21143:21210   */\n      tag_170\n      jump\t// in\n    tag_432:\n        /* \"#utility.yul\":21136:21210   */\n      swap2\n      pop\n        /* \"#utility.yul\":21219:21312   */\n      tag_433\n        /* \"#utility.yul\":21308:21311   */\n      dup3\n        /* \"#utility.yul\":21219:21312   */\n      tag_216\n      jump\t// in\n    tag_433:\n        /* \"#utility.yul\":21337:21339   */\n      0x20\n        /* \"#utility.yul\":21332:21335   */\n      dup3\n        /* \"#utility.yul\":21328:21340   */\n      add\n        /* \"#utility.yul\":21321:21340   */\n      swap1\n      pop\n        /* \"#utility.yul\":20980:21346   */\n      swap2\n      swap1\n      pop\n      jump\t// out\n        /* \"#utility.yul\":21352:21771   */\n    tag_133:\n        /* \"#utility.yul\":21518:21522   */\n      0x00\n        /* \"#utility.yul\":21556:21558   */\n      0x20\n        /* \"#utility.yul\":21545:21554   */\n      dup3\n        /* \"#utility.yul\":21541:21559   */\n      add\n        /* \"#utility.yul\":21533:21559   */\n      swap1\n      pop\n        /* \"#utility.yul\":21605:21614   */\n      dup2\n        /* \"#utility.yul\":21599:21603   */\n      dup2\n        /* \"#utility.yul\":21595:21615   */\n      sub\n        /* \"#utility.yul\":21591:21592   */\n      0x00\n        /* \"#utility.yul\":21580:21589   */\n      dup4\n        /* \"#utility.yul\":21576:21593   */\n      add\n        /* \"#utility.yul\":21569:21616   */\n      mstore\n        /* \"#utility.yul\":21633:21764   */\n      tag_435\n        /* \"#utility.yul\":21759:21763   */\n      dup2\n        /* \"#utility.yul\":21633:21764   */\n      tag_217\n      jump\t// in\n    tag_435:\n        /* \"#utility.yul\":21625:21764   */\n      swap1\n      pop\n        /* \"#utility.yul\":21352:21771   */\n      swap2\n      swap1\n      pop\n      jump\t// out\n        /* \"#utility.yul\":21777:21951   */\n    tag_218:\n        /* \"#utility.yul\":21917:21943   */\n      0x54686520446561646c696e652068617320706173736564210000000000000000\n        /* \"#utility.yul\":21913:21914   */\n      0x00\n        /* \"#utility.yul\":21905:21911   */\n      dup3\n        /* \"#utility.yul\":21901:21915   */\n      add\n        /* \"#utility.yul\":21894:21944   */\n      mstore\n        /* \"#utility.yul\":21777:21951   */\n      pop\n      jump\t// out\n        /* \"#utility.yul\":21957:22323   */\n    tag_219:\n        /* \"#utility.yul\":22099:22102   */\n      0x00\n        /* \"#utility.yul\":22120:22187   */\n      tag_438\n        /* \"#utility.yul\":22184:22186   */\n      0x18\n        /* \"#utility.yul\":22179:22182   */\n      dup4\n        /* \"#utility.yul\":22120:22187   */\n      tag_170\n      jump\t// in\n    tag_438:\n        /* \"#utility.yul\":22113:22187   */\n      swap2\n      pop\n        /* \"#utility.yul\":22196:22289   */\n      tag_439\n        /* \"#utility.yul\":22285:22288   */\n      dup3\n        /* \"#utility.yul\":22196:22289   */\n      tag_218\n      jump\t// in\n    tag_439:\n        /* \"#utility.yul\":22314:22316   */\n      0x20\n        /* \"#utility.yul\":22309:22312   */\n      dup3\n        /* \"#utility.yul\":22305:22317   */\n      add\n        /* \"#utility.yul\":22298:22317   */\n      swap1\n      pop\n        /* \"#utility.yul\":21957:22323   */\n      swap2\n      swap1\n      pop\n      jump\t// out\n        /* \"#utility.yul\":22329:22748   */\n    tag_140:\n        /* \"#utility.yul\":22495:22499   */\n      0x00\n        /* \"#utility.yul\":22533:22535   */\n      0x20\n        /* \"#utility.yul\":22522:22531   */\n      dup3\n        /* \"#utility.yul\":22518:22536   */\n      add\n        /* \"#utility.yul\":22510:22536   */\n      swap1\n      pop\n        /* \"#utility.yul\":22582:22591   */\n      dup2\n        /* \"#utility.yul\":22576:22580   */\n      dup2\n        /* \"#utility.yul\":22572:22592   */\n      sub\n        /* \"#utility.yul\":22568:22569   */\n      0x00\n        /* \"#utility.yul\":22557:22566   */\n      dup4\n        /* \"#utility.yul\":22553:22570   */\n      add\n        /* \"#utility.yul\":22546:22593   */\n      mstore\n        /* \"#utility.yul\":22610:22741   */\n      tag_441\n        /* \"#utility.yul\":22736:22740   */\n      dup2\n        /* \"#utility.yul\":22610:22741   */\n      tag_219\n      jump\t// in\n    tag_441:\n        /* \"#utility.yul\":22602:22741   */\n      swap1\n      pop\n        /* \"#utility.yul\":22329:22748   */\n      swap2\n      swap1\n      pop\n      jump\t// out\n        /* \"#utility.yul\":22754:22974   */\n    tag_220:\n        /* \"#utility.yul\":22894:22928   */\n      0x546865204d696e696d756d20436f6e747269627574696f6e206e6f74206d6574\n        /* \"#utility.yul\":22890:22891   */\n      0x00\n        /* \"#utility.yul\":22882:22888   */\n      dup3\n        /* \"#utility.yul\":22878:22892   */\n      add\n        /* \"#utility.yul\":22871:22929   */\n      mstore\n        /* \"#utility.yul\":22963:22966   */\n      0x2100000000000000000000000000000000000000000000000000000000000000\n        /* \"#utility.yul\":22958:22960   */\n      0x20\n        /* \"#utility.yul\":22950:22956   */\n      dup3\n        /* \"#utility.yul\":22946:22961   */\n      add\n        /* \"#utility.yul\":22939:22967   */\n      mstore\n        /* \"#utility.yul\":22754:22974   */\n      pop\n      jump\t// out\n        /* \"#utility.yul\":22980:23346   */\n    tag_221:\n        /* \"#utility.yul\":23122:23125   */\n      0x00\n        /* \"#utility.yul\":23143:23210   */\n      tag_444\n        /* \"#utility.yul\":23207:23209   */\n      0x21\n        /* \"#utility.yul\":23202:23205   */\n      dup4\n        /* \"#utility.yul\":23143:23210   */\n      tag_170\n      jump\t// in\n    tag_444:\n        /* \"#utility.yul\":23136:23210   */\n      swap2\n      pop\n        /* \"#utility.yul\":23219:23312   */\n      tag_445\n        /* \"#utility.yul\":23308:23311   */\n      dup3\n        /* \"#utility.yul\":23219:23312   */\n      tag_220\n      jump\t// in\n    tag_445:\n        /* \"#utility.yul\":23337:23339   */\n      0x40\n        /* \"#utility.yul\":23332:23335   */\n      dup3\n        /* \"#utility.yul\":23328:23340   */\n      add\n        /* \"#utility.yul\":23321:23340   */\n      swap1\n      pop\n        /* \"#utility.yul\":22980:23346   */\n      swap2\n      swap1\n      pop\n      jump\t// out\n        /* \"#utility.yul\":23352:23771   */\n    tag_143:\n        /* \"#utility.yul\":23518:23522   */\n      0x00\n        /* \"#utility.yul\":23556:23558   */\n      0x20\n        /* \"#utility.yul\":23545:23554   */\n      dup3\n        /* \"#utility.yul\":23541:23559   */\n      add\n        /* \"#utility.yul\":23533:23559   */\n      swap1\n      pop\n        /* \"#utility.yul\":23605:23614   */\n      dup2\n        /* \"#utility.yul\":23599:23603   */\n      dup2\n        /* \"#utility.yul\":23595:23615   */\n      sub\n        /* \"#utility.yul\":23591:23592   */\n      0x00\n        /* \"#utility.yul\":23580:23589   */\n      dup4\n        /* \"#utility.yul\":23576:23593   */\n      add\n        /* \"#utility.yul\":23569:23616   */\n      mstore\n        /* \"#utility.yul\":23633:23764   */\n      tag_447\n        /* \"#utility.yul\":23759:23763   */\n      dup2\n        /* \"#utility.yul\":23633:23764   */\n      tag_221\n      jump\t// in\n    tag_447:\n        /* \"#utility.yul\":23625:23764   */\n      swap1\n      pop\n        /* \"#utility.yul\":23352:23771   */\n      swap2\n      swap1\n      pop\n      jump\t// out\n        /* \"#utility.yul\":23777:23968   */\n    tag_147:\n        /* \"#utility.yul\":23817:23820   */\n      0x00\n        /* \"#utility.yul\":23836:23856   */\n      tag_449\n        /* \"#utility.yul\":23854:23855   */\n      dup3\n        /* \"#utility.yul\":23836:23856   */\n      tag_151\n      jump\t// in\n    tag_449:\n        /* \"#utility.yul\":23831:23856   */\n      swap2\n      pop\n        /* \"#utility.yul\":23870:23890   */\n      tag_450\n        /* \"#utility.yul\":23888:23889   */\n      dup4\n        /* \"#utility.yul\":23870:23890   */\n      tag_151\n      jump\t// in\n    tag_450:\n        /* \"#utility.yul\":23865:23890   */\n      swap3\n      pop\n        /* \"#utility.yul\":23913:23914   */\n      dup3\n        /* \"#utility.yul\":23910:23911   */\n      dup3\n        /* \"#utility.yul\":23906:23915   */\n      add\n        /* \"#utility.yul\":23899:23915   */\n      swap1\n      pop\n        /* \"#utility.yul\":23934:23937   */\n      dup1\n        /* \"#utility.yul\":23931:23932   */\n      dup3\n        /* \"#utility.yul\":23928:23938   */\n      gt\n        /* \"#utility.yul\":23925:23961   */\n      iszero\n      tag_451\n      jumpi\n        /* \"#utility.yul\":23941:23959   */\n      tag_452\n      tag_180\n      jump\t// in\n    tag_452:\n        /* \"#utility.yul\":23925:23961   */\n    tag_451:\n        /* \"#utility.yul\":23777:23968   */\n      swap3\n      swap2\n      pop\n      pop\n      jump\t// out\n        /* \"#utility.yul\":23974:24306   */\n    tag_150:\n        /* \"#utility.yul\":24095:24099   */\n      0x00\n        /* \"#utility.yul\":24133:24135   */\n      0x40\n        /* \"#utility.yul\":24122:24131   */\n      dup3\n        /* \"#utility.yul\":24118:24136   */\n      add\n        /* \"#utility.yul\":24110:24136   */\n      swap1\n      pop\n        /* \"#utility.yul\":24146:24217   */\n      tag_454\n        /* \"#utility.yul\":24214:24215   */\n      0x00\n        /* \"#utility.yul\":24203:24212   */\n      dup4\n        /* \"#utility.yul\":24199:24216   */\n      add\n        /* \"#utility.yul\":24190:24196   */\n      dup6\n        /* \"#utility.yul\":24146:24217   */\n      tag_177\n      jump\t// in\n    tag_454:\n        /* \"#utility.yul\":24227:24299   */\n      tag_455\n        /* \"#utility.yul\":24295:24297   */\n      0x20\n        /* \"#utility.yul\":24284:24293   */\n      dup4\n        /* \"#utility.yul\":24280:24298   */\n      add\n        /* \"#utility.yul\":24271:24277   */\n      dup5\n        /* \"#utility.yul\":24227:24299   */\n      tag_152\n      jump\t// in\n    tag_455:\n        /* \"#utility.yul\":23974:24306   */\n      swap4\n      swap3\n      pop\n      pop\n      pop\n      jump\t// out\n\n    auxdata: 0xa264697066735822122099dec51ff0367ceeea0bb8cac556953e73cf1438dafc2b5fea3d72c068a3502164736f6c634300081a0033\n}\n",
				"bytecode": {
					"linkReferences": {},
					"object": "608060405234801561000f575f80fd5b50604051611b51380380611b51833981810160405281019061003191906100d0565b816005819055508042610044919061013b565b6004819055503360015f6101000a81548173ffffffffffffffffffffffffffffffffffffffff021916908373ffffffffffffffffffffffffffffffffffffffff1602179055506064600381905550505061016e565b5f80fd5b5f819050919050565b6100af8161009d565b81146100b9575f80fd5b50565b5f815190506100ca816100a6565b92915050565b5f80604083850312156100e6576100e5610099565b5b5f6100f3858286016100bc565b9250506020610104858286016100bc565b9150509250929050565b7f4e487b71000000000000000000000000000000000000000000000000000000005f52601160045260245ffd5b5f6101458261009d565b91506101508361009d565b92508282019050808211156101685761016761010e565b5b92915050565b6119d68061017b5f395ff3fe6080604052600436106100e7575f3560e01c80635114cb5211610089578063b2d5ae4411610058578063b2d5ae44146102db578063c59ee1dc146102f1578063d7bb99ba1461031b578063f851a44014610325576100e7565b80635114cb521461021f57806381d12c5814610247578063937e09b1146102875780639fb42b1f146102b1576100e7565b806329dcb0cf116100c557806329dcb0cf1461017957806340193883146101a35780634cb6f4a5146101cd5780634e260f6f146101f5576100e7565b806312065fe0146100eb5780631b16bb5c146101155780631f6d49421461013d575b5f80fd5b3480156100f6575f80fd5b506100ff61034f565b60405161010c9190610d25565b60405180910390f35b348015610120575f80fd5b5061013b60048036038101906101369190610e2b565b610356565b005b348015610148575f80fd5b50610163600480360381019061015e9190610ed7565b6104d8565b6040516101709190610d25565b60405180910390f35b348015610184575f80fd5b5061018d6104ec565b60405161019a9190610d25565b60405180910390f35b3480156101ae575f80fd5b506101b76104f2565b6040516101c49190610d25565b60405180910390f35b3480156101d8575f80fd5b506101f360048036038101906101ee9190610f02565b6104f8565b005b348015610200575f80fd5b5061020961068f565b6040516102169190610d25565b60405180910390f35b34801561022a575f80fd5b5061024560048036038101906102409190610f02565b610695565b005b348015610252575f80fd5b5061026d60048036038101906102689190610f02565b6108cc565b60405161027e959493929190610fc6565b60405180910390f35b348015610292575f80fd5b5061029b6109af565b6040516102a89190610d25565b60405180910390f35b3480156102bc575f80fd5b506102c56109b5565b6040516102d29190610d25565b60405180910390f35b3480156102e6575f80fd5b506102ef6109bb565b005b3480156102fc575f80fd5b50610305610b59565b6040516103129190610d25565b60405180910390f35b610323610b5f565b005b348015610330575f80fd5b50610339610ce8565b604051610346919061102d565b60405180910390f35b5f47905090565b60015f9054906101000a900473ffffffffffffffffffffffffffffffffffffffff1673ffffffffffffffffffffffffffffffffffffffff163373ffffffffffffffffffffffffffffffffffffffff16146103e5576040517f08c379a00000000000000000000000000000000000000000000000000000000081526004016103dc90611090565b60405180910390fd5b5f60075f60085481526020019081526020015f20905060085f81548092919061040d906110db565b91905055508484825f019182610424929190611353565b5082816001015f6101000a81548173ffffffffffffffffffffffffffffffffffffffff021916908373ffffffffffffffffffffffffffffffffffffffff1602179055508181600201819055505f816003015f6101000a81548160ff0219169083151502179055505f81600401819055507f5392bd80651676ccaaedec1afbe841d47e369223df0ba1586110b6426ee87a3a858585856040516104c994939291906114ac565b60405180910390a15050505050565b5f602052805f5260405f205f915090505481565b60045481565b60055481565b5f805f3373ffffffffffffffffffffffffffffffffffffffff1673ffffffffffffffffffffffffffffffffffffffff1681526020019081526020015f205411610576576040517f08c379a000000000000000000000000000000000000000000000000000000000815260040161056d9061155a565b60405180910390fd5b5f60075f8381526020019081526020015f2090505f1515816005015f3373ffffffffffffffffffffffffffffffffffffffff1673ffffffffffffffffffffffffffffffffffffffff1681526020019081526020015f205f9054906101000a900460ff1615151461061b576040517f08c379a0000000000000000000000000000000000000000000000000000000008152600401610612906115c2565b60405180910390fd5b6001816005015f3373ffffffffffffffffffffffffffffffffffffffff1673ffffffffffffffffffffffffffffffffffffffff1681526020019081526020015f205f6101000a81548160ff021916908315150217905550806004015f815480929190610686906110db565b91905055505050565b60025481565b60015f9054906101000a900473ffffffffffffffffffffffffffffffffffffffff1673ffffffffffffffffffffffffffffffffffffffff163373ffffffffffffffffffffffffffffffffffffffff1614610724576040517f08c379a000000000000000000000000000000000000000000000000000000000815260040161071b90611090565b60405180910390fd5b5f60075f8381526020019081526020015f2090505f1515816003015f9054906101000a900460ff1615151461078e576040517f08c379a000000000000000000000000000000000000000000000000000000000815260040161078590611650565b60405180910390fd5b6002805461079c919061169b565b8160040154116107e1576040517f08c379a00000000000000000000000000000000000000000000000000000000081526004016107d89061173b565b60405180910390fd5b6001816003015f6101000a81548160ff021916908315150217905550806001015f9054906101000a900473ffffffffffffffffffffffffffffffffffffffff1673ffffffffffffffffffffffffffffffffffffffff166108fc826002015490811502906040515f60405180830381858888f19350505050158015610867573d5f803e3d5ffd5b507f516e1673e5e85c44620165259173329adda2ad25e7bb15020c732be060b5b790816001015f9054906101000a900473ffffffffffffffffffffffffffffffffffffffff1682600201546040516108c0929190611759565b60405180910390a15050565b6007602052805f5260405f205f91509050805f0180546108eb90611186565b80601f016020809104026020016040519081016040528092919081815260200182805461091790611186565b80156109625780601f1061093957610100808354040283529160200191610962565b820191905f5260205f20905b81548152906001019060200180831161094557829003601f168201915b505050505090806001015f9054906101000a900473ffffffffffffffffffffffffffffffffffffffff1690806002015490806003015f9054906101000a900460ff16908060040154905085565b60035481565b60085481565b60045442116109ff576040517f08c379a00000000000000000000000000000000000000000000000000000000081526004016109f6906117ca565b60405180910390fd5b60055460065410610a45576040517f08c379a0000000000000000000000000000000000000000000000000000000008152600401610a3c90611832565b60405180910390fd5b5f805f3373ffffffffffffffffffffffffffffffffffffffff1673ffffffffffffffffffffffffffffffffffffffff1681526020019081526020015f205411610a8c575f80fd5b5f3390505f805f3373ffffffffffffffffffffffffffffffffffffffff1673ffffffffffffffffffffffffffffffffffffffff1681526020019081526020015f205490505f805f3373ffffffffffffffffffffffffffffffffffffffff1673ffffffffffffffffffffffffffffffffffffffff1681526020019081526020015f20819055508173ffffffffffffffffffffffffffffffffffffffff166108fc8290811502906040515f60405180830381858888f19350505050158015610b54573d5f803e3d5ffd5b505050565b60065481565b6004544210610ba3576040517f08c379a0000000000000000000000000000000000000000000000000000000008152600401610b9a9061189a565b60405180910390fd5b600354341015610be8576040517f08c379a0000000000000000000000000000000000000000000000000000000008152600401610bdf90611928565b60405180910390fd5b5f805f3373ffffffffffffffffffffffffffffffffffffffff1673ffffffffffffffffffffffffffffffffffffffff1681526020019081526020015f205403610c435760025f815480929190610c3d906110db565b91905055505b345f803373ffffffffffffffffffffffffffffffffffffffff1673ffffffffffffffffffffffffffffffffffffffff1681526020019081526020015f205f828254610c8e9190611946565b925050819055503460065f828254610ca69190611946565b925050819055507f2daf61dec57a2c194e9e87958b1a40a5c236b5e8c6041655d664ddbd16c293203334604051610cde929190611979565b60405180910390a1565b60015f9054906101000a900473ffffffffffffffffffffffffffffffffffffffff1681565b5f819050919050565b610d1f81610d0d565b82525050565b5f602082019050610d385f830184610d16565b92915050565b5f80fd5b5f80fd5b5f80fd5b5f80fd5b5f80fd5b5f8083601f840112610d6757610d66610d46565b5b8235905067ffffffffffffffff811115610d8457610d83610d4a565b5b602083019150836001820283011115610da057610d9f610d4e565b5b9250929050565b5f73ffffffffffffffffffffffffffffffffffffffff82169050919050565b5f610dd082610da7565b9050919050565b610de081610dc6565b8114610dea575f80fd5b50565b5f81359050610dfb81610dd7565b92915050565b610e0a81610d0d565b8114610e14575f80fd5b50565b5f81359050610e2581610e01565b92915050565b5f805f8060608587031215610e4357610e42610d3e565b5b5f85013567ffffffffffffffff811115610e6057610e5f610d42565b5b610e6c87828801610d52565b94509450506020610e7f87828801610ded565b9250506040610e9087828801610e17565b91505092959194509250565b5f610ea682610da7565b9050919050565b610eb681610e9c565b8114610ec0575f80fd5b50565b5f81359050610ed181610ead565b92915050565b5f60208284031215610eec57610eeb610d3e565b5b5f610ef984828501610ec3565b91505092915050565b5f60208284031215610f1757610f16610d3e565b5b5f610f2484828501610e17565b91505092915050565b5f81519050919050565b5f82825260208201905092915050565b8281835e5f83830152505050565b5f601f19601f8301169050919050565b5f610f6f82610f2d565b610f798185610f37565b9350610f89818560208601610f47565b610f9281610f55565b840191505092915050565b610fa681610dc6565b82525050565b5f8115159050919050565b610fc081610fac565b82525050565b5f60a0820190508181035f830152610fde8188610f65565b9050610fed6020830187610f9d565b610ffa6040830186610d16565b6110076060830185610fb7565b6110146080830184610d16565b9695505050505050565b61102781610e9c565b82525050565b5f6020820190506110405f83018461101e565b92915050565b7f4f6e6c792061646d696e2063616e2065786563757465207468697300000000005f82015250565b5f61107a601b83610f37565b915061108582611046565b602082019050919050565b5f6020820190508181035f8301526110a78161106e565b9050919050565b7f4e487b71000000000000000000000000000000000000000000000000000000005f52601160045260245ffd5b5f6110e582610d0d565b91507fffffffffffffffffffffffffffffffffffffffffffffffffffffffffffffffff8203611117576111166110ae565b5b600182019050919050565b5f82905092915050565b7f4e487b71000000000000000000000000000000000000000000000000000000005f52604160045260245ffd5b7f4e487b71000000000000000000000000000000000000000000000000000000005f52602260045260245ffd5b5f600282049050600182168061119d57607f821691505b6020821081036111b0576111af611159565b5b50919050565b5f819050815f5260205f209050919050565b5f6020601f8301049050919050565b5f82821b905092915050565b5f600883026112127fffffffffffffffffffffffffffffffffffffffffffffffffffffffffffffffff826111d7565b61121c86836111d7565b95508019841693508086168417925050509392505050565b5f819050919050565b5f61125761125261124d84610d0d565b611234565b610d0d565b9050919050565b5f819050919050565b6112708361123d565b61128461127c8261125e565b8484546111e3565b825550505050565b5f90565b61129861128c565b6112a3818484611267565b505050565b5b818110156112c6576112bb5f82611290565b6001810190506112a9565b5050565b601f82111561130b576112dc816111b6565b6112e5846111c8565b810160208510156112f4578190505b611308611300856111c8565b8301826112a8565b50505b505050565b5f82821c905092915050565b5f61132b5f1984600802611310565b1980831691505092915050565b5f611343838361131c565b9150826002028217905092915050565b61135d8383611122565b67ffffffffffffffff8111156113765761137561112c565b5b6113808254611186565b61138b8282856112ca565b5f601f8311600181146113b8575f84156113a6578287013590505b6113b08582611338565b865550611417565b601f1984166113c6866111b6565b5f5b828110156113ed578489013582556001820191506020850194506020810190506113c8565b8683101561140a5784890135611406601f89168261131c565b8355505b6001600288020188555050505b50505050505050565b828183375f83830152505050565b5f6114398385610f37565b9350611446838584611420565b61144f83610f55565b840190509392505050565b5f61147461146f61146a84610da7565b611234565b610da7565b9050919050565b5f6114858261145a565b9050919050565b5f6114968261147b565b9050919050565b6114a68161148c565b82525050565b5f6060820190508181035f8301526114c581868861142e565b90506114d4602083018561149d565b6114e16040830184610d16565b95945050505050565b7f596f75206d757374206265206120636f6e7472696275746f7220746f20766f745f8201527f6521000000000000000000000000000000000000000000000000000000000000602082015250565b5f611544602283610f37565b915061154f826114ea565b604082019050919050565b5f6020820190508181035f83015261157181611538565b9050919050565b7f596f75206861766520616c726561647920766f746564210000000000000000005f82015250565b5f6115ac601783610f37565b91506115b782611578565b602082019050919050565b5f6020820190508181035f8301526115d9816115a0565b9050919050565b7f546865207265717565737420686173206265656e20616c726561647920636f6d5f8201527f706c657465642100000000000000000000000000000000000000000000000000602082015250565b5f61163a602783610f37565b9150611645826115e0565b604082019050919050565b5f6020820190508181035f8301526116678161162e565b9050919050565b7f4e487b71000000000000000000000000000000000000000000000000000000005f52601260045260245ffd5b5f6116a582610d0d565b91506116b083610d0d565b9250826116c0576116bf61166e565b5b828204905092915050565b7f5468652072657175657374206e65656473206d6f7265207468616e20353025205f8201527f6f662074686520636f6e7472696275746f72732e000000000000000000000000602082015250565b5f611725603483610f37565b9150611730826116cb565b604082019050919050565b5f6020820190508181035f83015261175281611719565b9050919050565b5f60408201905061176c5f83018561149d565b6117796020830184610d16565b9392505050565b7f446561646c696e6520686173206e6f74207061737365642e00000000000000005f82015250565b5f6117b4601883610f37565b91506117bf82611780565b602082019050919050565b5f6020820190508181035f8301526117e1816117a8565b9050919050565b7f54686520676f616c20776173206d6574000000000000000000000000000000005f82015250565b5f61181c601083610f37565b9150611827826117e8565b602082019050919050565b5f6020820190508181035f83015261184981611810565b9050919050565b7f54686520446561646c696e6520686173207061737365642100000000000000005f82015250565b5f611884601883610f37565b915061188f82611850565b602082019050919050565b5f6020820190508181035f8301526118b181611878565b9050919050565b7f546865204d696e696d756d20436f6e747269627574696f6e206e6f74206d65745f8201527f2100000000000000000000000000000000000000000000000000000000000000602082015250565b5f611912602183610f37565b915061191d826118b8565b604082019050919050565b5f6020820190508181035f83015261193f81611906565b9050919050565b5f61195082610d0d565b915061195b83610d0d565b9250828201905080821115611973576119726110ae565b5b92915050565b5f60408201905061198c5f83018561101e565b6119996020830184610d16565b939250505056fea264697066735822122099dec51ff0367ceeea0bb8cac556953e73cf1438dafc2b5fea3d72c068a3502164736f6c634300081a0033",
					"opcodes": "PUSH1 0x80 PUSH1 0x40 MSTORE CALLVALUE DUP1 ISZERO PUSH2 0xF JUMPI PUSH0 DUP1 REVERT JUMPDEST POP PUSH1 0x40 MLOAD PUSH2 0x1B51 CODESIZE SUB DUP1 PUSH2 0x1B51 DUP4 CODECOPY DUP2 DUP2 ADD PUSH1 0x40 MSTORE DUP2 ADD SWAP1 PUSH2 0x31 SWAP2 SWAP1 PUSH2 0xD0 JUMP JUMPDEST DUP2 PUSH1 0x5 DUP2 SWAP1 SSTORE POP DUP1 TIMESTAMP PUSH2 0x44 SWAP2 SWAP1 PUSH2 0x13B JUMP JUMPDEST PUSH1 0x4 DUP2 SWAP1 SSTORE POP CALLER PUSH1 0x1 PUSH0 PUSH2 0x100 EXP DUP2 SLOAD DUP2 PUSH20 0xFFFFFFFFFFFFFFFFFFFFFFFFFFFFFFFFFFFFFFFF MUL NOT AND SWAP1 DUP4 PUSH20 0xFFFFFFFFFFFFFFFFFFFFFFFFFFFFFFFFFFFFFFFF AND MUL OR SWAP1 SSTORE POP PUSH1 0x64 PUSH1 0x3 DUP2 SWAP1 SSTORE POP POP POP PUSH2 0x16E JUMP JUMPDEST PUSH0 DUP1 REVERT JUMPDEST PUSH0 DUP2 SWAP1 POP SWAP2 SWAP1 POP JUMP JUMPDEST PUSH2 0xAF DUP2 PUSH2 0x9D JUMP JUMPDEST DUP2 EQ PUSH2 0xB9 JUMPI PUSH0 DUP1 REVERT JUMPDEST POP JUMP JUMPDEST PUSH0 DUP2 MLOAD SWAP1 POP PUSH2 0xCA DUP2 PUSH2 0xA6 JUMP JUMPDEST SWAP3 SWAP2 POP POP JUMP JUMPDEST PUSH0 DUP1 PUSH1 0x40 DUP4 DUP6 SUB SLT ISZERO PUSH2 0xE6 JUMPI PUSH2 0xE5 PUSH2 0x99 JUMP JUMPDEST JUMPDEST PUSH0 PUSH2 0xF3 DUP6 DUP3 DUP7 ADD PUSH2 0xBC JUMP JUMPDEST SWAP3 POP POP PUSH1 0x20 PUSH2 0x104 DUP6 DUP3 DUP7 ADD PUSH2 0xBC JUMP JUMPDEST SWAP2 POP POP SWAP3 POP SWAP3 SWAP1 POP JUMP JUMPDEST PUSH32 0x4E487B7100000000000000000000000000000000000000000000000000000000 PUSH0 MSTORE PUSH1 0x11 PUSH1 0x4 MSTORE PUSH1 0x24 PUSH0 REVERT JUMPDEST PUSH0 PUSH2 0x145 DUP3 PUSH2 0x9D JUMP JUMPDEST SWAP2 POP PUSH2 0x150 DUP4 PUSH2 0x9D JUMP JUMPDEST SWAP3 POP DUP3 DUP3 ADD SWAP1 POP DUP1 DUP3 GT ISZERO PUSH2 0x168 JUMPI PUSH2 0x167 PUSH2 0x10E JUMP JUMPDEST JUMPDEST SWAP3 SWAP2 POP POP JUMP JUMPDEST PUSH2 0x19D6 DUP1 PUSH2 0x17B PUSH0 CODECOPY PUSH0 RETURN INVALID PUSH1 0x80 PUSH1 0x40 MSTORE PUSH1 0x4 CALLDATASIZE LT PUSH2 0xE7 JUMPI PUSH0 CALLDATALOAD PUSH1 0xE0 SHR DUP1 PUSH4 0x5114CB52 GT PUSH2 0x89 JUMPI DUP1 PUSH4 0xB2D5AE44 GT PUSH2 0x58 JUMPI DUP1 PUSH4 0xB2D5AE44 EQ PUSH2 0x2DB JUMPI DUP1 PUSH4 0xC59EE1DC EQ PUSH2 0x2F1 JUMPI DUP1 PUSH4 0xD7BB99BA EQ PUSH2 0x31B JUMPI DUP1 PUSH4 0xF851A440 EQ PUSH2 0x325 JUMPI PUSH2 0xE7 JUMP JUMPDEST DUP1 PUSH4 0x5114CB52 EQ PUSH2 0x21F JUMPI DUP1 PUSH4 0x81D12C58 EQ PUSH2 0x247 JUMPI DUP1 PUSH4 0x937E09B1 EQ PUSH2 0x287 JUMPI DUP1 PUSH4 0x9FB42B1F EQ PUSH2 0x2B1 JUMPI PUSH2 0xE7 JUMP JUMPDEST DUP1 PUSH4 0x29DCB0CF GT PUSH2 0xC5 JUMPI DUP1 PUSH4 0x29DCB0CF EQ PUSH2 0x179 JUMPI DUP1 PUSH4 0x40193883 EQ PUSH2 0x1A3 JUMPI DUP1 PUSH4 0x4CB6F4A5 EQ PUSH2 0x1CD JUMPI DUP1 PUSH4 0x4E260F6F EQ PUSH2 0x1F5 JUMPI PUSH2 0xE7 JUMP JUMPDEST DUP1 PUSH4 0x12065FE0 EQ PUSH2 0xEB JUMPI DUP1 PUSH4 0x1B16BB5C EQ PUSH2 0x115 JUMPI DUP1 PUSH4 0x1F6D4942 EQ PUSH2 0x13D JUMPI JUMPDEST PUSH0 DUP1 REVERT JUMPDEST CALLVALUE DUP1 ISZERO PUSH2 0xF6 JUMPI PUSH0 DUP1 REVERT JUMPDEST POP PUSH2 0xFF PUSH2 0x34F JUMP JUMPDEST PUSH1 0x40 MLOAD PUSH2 0x10C SWAP2 SWAP1 PUSH2 0xD25 JUMP JUMPDEST PUSH1 0x40 MLOAD DUP1 SWAP2 SUB SWAP1 RETURN JUMPDEST CALLVALUE DUP1 ISZERO PUSH2 0x120 JUMPI PUSH0 DUP1 REVERT JUMPDEST POP PUSH2 0x13B PUSH1 0x4 DUP1 CALLDATASIZE SUB DUP2 ADD SWAP1 PUSH2 0x136 SWAP2 SWAP1 PUSH2 0xE2B JUMP JUMPDEST PUSH2 0x356 JUMP JUMPDEST STOP JUMPDEST CALLVALUE DUP1 ISZERO PUSH2 0x148 JUMPI PUSH0 DUP1 REVERT JUMPDEST POP PUSH2 0x163 PUSH1 0x4 DUP1 CALLDATASIZE SUB DUP2 ADD SWAP1 PUSH2 0x15E SWAP2 SWAP1 PUSH2 0xED7 JUMP JUMPDEST PUSH2 0x4D8 JUMP JUMPDEST PUSH1 0x40 MLOAD PUSH2 0x170 SWAP2 SWAP1 PUSH2 0xD25 JUMP JUMPDEST PUSH1 0x40 MLOAD DUP1 SWAP2 SUB SWAP1 RETURN JUMPDEST CALLVALUE DUP1 ISZERO PUSH2 0x184 JUMPI PUSH0 DUP1 REVERT JUMPDEST POP PUSH2 0x18D PUSH2 0x4EC JUMP JUMPDEST PUSH1 0x40 MLOAD PUSH2 0x19A SWAP2 SWAP1 PUSH2 0xD25 JUMP JUMPDEST PUSH1 0x40 MLOAD DUP1 SWAP2 SUB SWAP1 RETURN JUMPDEST CALLVALUE DUP1 ISZERO PUSH2 0x1AE JUMPI PUSH0 DUP1 REVERT JUMPDEST POP PUSH2 0x1B7 PUSH2 0x4F2 JUMP JUMPDEST PUSH1 0x40 MLOAD PUSH2 0x1C4 SWAP2 SWAP1 PUSH2 0xD25 JUMP JUMPDEST PUSH1 0x40 MLOAD DUP1 SWAP2 SUB SWAP1 RETURN JUMPDEST CALLVALUE DUP1 ISZERO PUSH2 0x1D8 JUMPI PUSH0 DUP1 REVERT JUMPDEST POP PUSH2 0x1F3 PUSH1 0x4 DUP1 CALLDATASIZE SUB DUP2 ADD SWAP1 PUSH2 0x1EE SWAP2 SWAP1 PUSH2 0xF02 JUMP JUMPDEST PUSH2 0x4F8 JUMP JUMPDEST STOP JUMPDEST CALLVALUE DUP1 ISZERO PUSH2 0x200 JUMPI PUSH0 DUP1 REVERT JUMPDEST POP PUSH2 0x209 PUSH2 0x68F JUMP JUMPDEST PUSH1 0x40 MLOAD PUSH2 0x216 SWAP2 SWAP1 PUSH2 0xD25 JUMP JUMPDEST PUSH1 0x40 MLOAD DUP1 SWAP2 SUB SWAP1 RETURN JUMPDEST CALLVALUE DUP1 ISZERO PUSH2 0x22A JUMPI PUSH0 DUP1 REVERT JUMPDEST POP PUSH2 0x245 PUSH1 0x4 DUP1 CALLDATASIZE SUB DUP2 ADD SWAP1 PUSH2 0x240 SWAP2 SWAP1 PUSH2 0xF02 JUMP JUMPDEST PUSH2 0x695 JUMP JUMPDEST STOP JUMPDEST CALLVALUE DUP1 ISZERO PUSH2 0x252 JUMPI PUSH0 DUP1 REVERT JUMPDEST POP PUSH2 0x26D PUSH1 0x4 DUP1 CALLDATASIZE SUB DUP2 ADD SWAP1 PUSH2 0x268 SWAP2 SWAP1 PUSH2 0xF02 JUMP JUMPDEST PUSH2 0x8CC JUMP JUMPDEST PUSH1 0x40 MLOAD PUSH2 0x27E SWAP6 SWAP5 SWAP4 SWAP3 SWAP2 SWAP1 PUSH2 0xFC6 JUMP JUMPDEST PUSH1 0x40 MLOAD DUP1 SWAP2 SUB SWAP1 RETURN JUMPDEST CALLVALUE DUP1 ISZERO PUSH2 0x292 JUMPI PUSH0 DUP1 REVERT JUMPDEST POP PUSH2 0x29B PUSH2 0x9AF JUMP JUMPDEST PUSH1 0x40 MLOAD PUSH2 0x2A8 SWAP2 SWAP1 PUSH2 0xD25 JUMP JUMPDEST PUSH1 0x40 MLOAD DUP1 SWAP2 SUB SWAP1 RETURN JUMPDEST CALLVALUE DUP1 ISZERO PUSH2 0x2BC JUMPI PUSH0 DUP1 REVERT JUMPDEST POP PUSH2 0x2C5 PUSH2 0x9B5 JUMP JUMPDEST PUSH1 0x40 MLOAD PUSH2 0x2D2 SWAP2 SWAP1 PUSH2 0xD25 JUMP JUMPDEST PUSH1 0x40 MLOAD DUP1 SWAP2 SUB SWAP1 RETURN JUMPDEST CALLVALUE DUP1 ISZERO PUSH2 0x2E6 JUMPI PUSH0 DUP1 REVERT JUMPDEST POP PUSH2 0x2EF PUSH2 0x9BB JUMP JUMPDEST STOP JUMPDEST CALLVALUE DUP1 ISZERO PUSH2 0x2FC JUMPI PUSH0 DUP1 REVERT JUMPDEST POP PUSH2 0x305 PUSH2 0xB59 JUMP JUMPDEST PUSH1 0x40 MLOAD PUSH2 0x312 SWAP2 SWAP1 PUSH2 0xD25 JUMP JUMPDEST PUSH1 0x40 MLOAD DUP1 SWAP2 SUB SWAP1 RETURN JUMPDEST PUSH2 0x323 PUSH2 0xB5F JUMP JUMPDEST STOP JUMPDEST CALLVALUE DUP1 ISZERO PUSH2 0x330 JUMPI PUSH0 DUP1 REVERT JUMPDEST POP PUSH2 0x339 PUSH2 0xCE8 JUMP JUMPDEST PUSH1 0x40 MLOAD PUSH2 0x346 SWAP2 SWAP1 PUSH2 0x102D JUMP JUMPDEST PUSH1 0x40 MLOAD DUP1 SWAP2 SUB SWAP1 RETURN JUMPDEST PUSH0 SELFBALANCE SWAP1 POP SWAP1 JUMP JUMPDEST PUSH1 0x1 PUSH0 SWAP1 SLOAD SWAP1 PUSH2 0x100 EXP SWAP1 DIV PUSH20 0xFFFFFFFFFFFFFFFFFFFFFFFFFFFFFFFFFFFFFFFF AND PUSH20 0xFFFFFFFFFFFFFFFFFFFFFFFFFFFFFFFFFFFFFFFF AND CALLER PUSH20 0xFFFFFFFFFFFFFFFFFFFFFFFFFFFFFFFFFFFFFFFF AND EQ PUSH2 0x3E5 JUMPI PUSH1 0x40 MLOAD PUSH32 0x8C379A000000000000000000000000000000000000000000000000000000000 DUP2 MSTORE PUSH1 0x4 ADD PUSH2 0x3DC SWAP1 PUSH2 0x1090 JUMP JUMPDEST PUSH1 0x40 MLOAD DUP1 SWAP2 SUB SWAP1 REVERT JUMPDEST PUSH0 PUSH1 0x7 PUSH0 PUSH1 0x8 SLOAD DUP2 MSTORE PUSH1 0x20 ADD SWAP1 DUP2 MSTORE PUSH1 0x20 ADD PUSH0 KECCAK256 SWAP1 POP PUSH1 0x8 PUSH0 DUP2 SLOAD DUP1 SWAP3 SWAP2 SWAP1 PUSH2 0x40D SWAP1 PUSH2 0x10DB JUMP JUMPDEST SWAP2 SWAP1 POP SSTORE POP DUP5 DUP5 DUP3 PUSH0 ADD SWAP2 DUP3 PUSH2 0x424 SWAP3 SWAP2 SWAP1 PUSH2 0x1353 JUMP JUMPDEST POP DUP3 DUP2 PUSH1 0x1 ADD PUSH0 PUSH2 0x100 EXP DUP2 SLOAD DUP2 PUSH20 0xFFFFFFFFFFFFFFFFFFFFFFFFFFFFFFFFFFFFFFFF MUL NOT AND SWAP1 DUP4 PUSH20 0xFFFFFFFFFFFFFFFFFFFFFFFFFFFFFFFFFFFFFFFF AND MUL OR SWAP1 SSTORE POP DUP2 DUP2 PUSH1 0x2 ADD DUP2 SWAP1 SSTORE POP PUSH0 DUP2 PUSH1 0x3 ADD PUSH0 PUSH2 0x100 EXP DUP2 SLOAD DUP2 PUSH1 0xFF MUL NOT AND SWAP1 DUP4 ISZERO ISZERO MUL OR SWAP1 SSTORE POP PUSH0 DUP2 PUSH1 0x4 ADD DUP2 SWAP1 SSTORE POP PUSH32 0x5392BD80651676CCAAEDEC1AFBE841D47E369223DF0BA1586110B6426EE87A3A DUP6 DUP6 DUP6 DUP6 PUSH1 0x40 MLOAD PUSH2 0x4C9 SWAP5 SWAP4 SWAP3 SWAP2 SWAP1 PUSH2 0x14AC JUMP JUMPDEST PUSH1 0x40 MLOAD DUP1 SWAP2 SUB SWAP1 LOG1 POP POP POP POP POP JUMP JUMPDEST PUSH0 PUSH1 0x20 MSTORE DUP1 PUSH0 MSTORE PUSH1 0x40 PUSH0 KECCAK256 PUSH0 SWAP2 POP SWAP1 POP SLOAD DUP2 JUMP JUMPDEST PUSH1 0x4 SLOAD DUP2 JUMP JUMPDEST PUSH1 0x5 SLOAD DUP2 JUMP JUMPDEST PUSH0 DUP1 PUSH0 CALLER PUSH20 0xFFFFFFFFFFFFFFFFFFFFFFFFFFFFFFFFFFFFFFFF AND PUSH20 0xFFFFFFFFFFFFFFFFFFFFFFFFFFFFFFFFFFFFFFFF AND DUP2 MSTORE PUSH1 0x20 ADD SWAP1 DUP2 MSTORE PUSH1 0x20 ADD PUSH0 KECCAK256 SLOAD GT PUSH2 0x576 JUMPI PUSH1 0x40 MLOAD PUSH32 0x8C379A000000000000000000000000000000000000000000000000000000000 DUP2 MSTORE PUSH1 0x4 ADD PUSH2 0x56D SWAP1 PUSH2 0x155A JUMP JUMPDEST PUSH1 0x40 MLOAD DUP1 SWAP2 SUB SWAP1 REVERT JUMPDEST PUSH0 PUSH1 0x7 PUSH0 DUP4 DUP2 MSTORE PUSH1 0x20 ADD SWAP1 DUP2 MSTORE PUSH1 0x20 ADD PUSH0 KECCAK256 SWAP1 POP PUSH0 ISZERO ISZERO DUP2 PUSH1 0x5 ADD PUSH0 CALLER PUSH20 0xFFFFFFFFFFFFFFFFFFFFFFFFFFFFFFFFFFFFFFFF AND PUSH20 0xFFFFFFFFFFFFFFFFFFFFFFFFFFFFFFFFFFFFFFFF AND DUP2 MSTORE PUSH1 0x20 ADD SWAP1 DUP2 MSTORE PUSH1 0x20 ADD PUSH0 KECCAK256 PUSH0 SWAP1 SLOAD SWAP1 PUSH2 0x100 EXP SWAP1 DIV PUSH1 0xFF AND ISZERO ISZERO EQ PUSH2 0x61B JUMPI PUSH1 0x40 MLOAD PUSH32 0x8C379A000000000000000000000000000000000000000000000000000000000 DUP2 MSTORE PUSH1 0x4 ADD PUSH2 0x612 SWAP1 PUSH2 0x15C2 JUMP JUMPDEST PUSH1 0x40 MLOAD DUP1 SWAP2 SUB SWAP1 REVERT JUMPDEST PUSH1 0x1 DUP2 PUSH1 0x5 ADD PUSH0 CALLER PUSH20 0xFFFFFFFFFFFFFFFFFFFFFFFFFFFFFFFFFFFFFFFF AND PUSH20 0xFFFFFFFFFFFFFFFFFFFFFFFFFFFFFFFFFFFFFFFF AND DUP2 MSTORE PUSH1 0x20 ADD SWAP1 DUP2 MSTORE PUSH1 0x20 ADD PUSH0 KECCAK256 PUSH0 PUSH2 0x100 EXP DUP2 SLOAD DUP2 PUSH1 0xFF MUL NOT AND SWAP1 DUP4 ISZERO ISZERO MUL OR SWAP1 SSTORE POP DUP1 PUSH1 0x4 ADD PUSH0 DUP2 SLOAD DUP1 SWAP3 SWAP2 SWAP1 PUSH2 0x686 SWAP1 PUSH2 0x10DB JUMP JUMPDEST SWAP2 SWAP1 POP SSTORE POP POP POP JUMP JUMPDEST PUSH1 0x2 SLOAD DUP2 JUMP JUMPDEST PUSH1 0x1 PUSH0 SWAP1 SLOAD SWAP1 PUSH2 0x100 EXP SWAP1 DIV PUSH20 0xFFFFFFFFFFFFFFFFFFFFFFFFFFFFFFFFFFFFFFFF AND PUSH20 0xFFFFFFFFFFFFFFFFFFFFFFFFFFFFFFFFFFFFFFFF AND CALLER PUSH20 0xFFFFFFFFFFFFFFFFFFFFFFFFFFFFFFFFFFFFFFFF AND EQ PUSH2 0x724 JUMPI PUSH1 0x40 MLOAD PUSH32 0x8C379A000000000000000000000000000000000000000000000000000000000 DUP2 MSTORE PUSH1 0x4 ADD PUSH2 0x71B SWAP1 PUSH2 0x1090 JUMP JUMPDEST PUSH1 0x40 MLOAD DUP1 SWAP2 SUB SWAP1 REVERT JUMPDEST PUSH0 PUSH1 0x7 PUSH0 DUP4 DUP2 MSTORE PUSH1 0x20 ADD SWAP1 DUP2 MSTORE PUSH1 0x20 ADD PUSH0 KECCAK256 SWAP1 POP PUSH0 ISZERO ISZERO DUP2 PUSH1 0x3 ADD PUSH0 SWAP1 SLOAD SWAP1 PUSH2 0x100 EXP SWAP1 DIV PUSH1 0xFF AND ISZERO ISZERO EQ PUSH2 0x78E JUMPI PUSH1 0x40 MLOAD PUSH32 0x8C379A000000000000000000000000000000000000000000000000000000000 DUP2 MSTORE PUSH1 0x4 ADD PUSH2 0x785 SWAP1 PUSH2 0x1650 JUMP JUMPDEST PUSH1 0x40 MLOAD DUP1 SWAP2 SUB SWAP1 REVERT JUMPDEST PUSH1 0x2 DUP1 SLOAD PUSH2 0x79C SWAP2 SWAP1 PUSH2 0x169B JUMP JUMPDEST DUP2 PUSH1 0x4 ADD SLOAD GT PUSH2 0x7E1 JUMPI PUSH1 0x40 MLOAD PUSH32 0x8C379A000000000000000000000000000000000000000000000000000000000 DUP2 MSTORE PUSH1 0x4 ADD PUSH2 0x7D8 SWAP1 PUSH2 0x173B JUMP JUMPDEST PUSH1 0x40 MLOAD DUP1 SWAP2 SUB SWAP1 REVERT JUMPDEST PUSH1 0x1 DUP2 PUSH1 0x3 ADD PUSH0 PUSH2 0x100 EXP DUP2 SLOAD DUP2 PUSH1 0xFF MUL NOT AND SWAP1 DUP4 ISZERO ISZERO MUL OR SWAP1 SSTORE POP DUP1 PUSH1 0x1 ADD PUSH0 SWAP1 SLOAD SWAP1 PUSH2 0x100 EXP SWAP1 DIV PUSH20 0xFFFFFFFFFFFFFFFFFFFFFFFFFFFFFFFFFFFFFFFF AND PUSH20 0xFFFFFFFFFFFFFFFFFFFFFFFFFFFFFFFFFFFFFFFF AND PUSH2 0x8FC DUP3 PUSH1 0x2 ADD SLOAD SWAP1 DUP2 ISZERO MUL SWAP1 PUSH1 0x40 MLOAD PUSH0 PUSH1 0x40 MLOAD DUP1 DUP4 SUB DUP2 DUP6 DUP9 DUP9 CALL SWAP4 POP POP POP POP ISZERO DUP1 ISZERO PUSH2 0x867 JUMPI RETURNDATASIZE PUSH0 DUP1 RETURNDATACOPY RETURNDATASIZE PUSH0 REVERT JUMPDEST POP PUSH32 0x516E1673E5E85C44620165259173329ADDA2AD25E7BB15020C732BE060B5B790 DUP2 PUSH1 0x1 ADD PUSH0 SWAP1 SLOAD SWAP1 PUSH2 0x100 EXP SWAP1 DIV PUSH20 0xFFFFFFFFFFFFFFFFFFFFFFFFFFFFFFFFFFFFFFFF AND DUP3 PUSH1 0x2 ADD SLOAD PUSH1 0x40 MLOAD PUSH2 0x8C0 SWAP3 SWAP2 SWAP1 PUSH2 0x1759 JUMP JUMPDEST PUSH1 0x40 MLOAD DUP1 SWAP2 SUB SWAP1 LOG1 POP POP JUMP JUMPDEST PUSH1 0x7 PUSH1 0x20 MSTORE DUP1 PUSH0 MSTORE PUSH1 0x40 PUSH0 KECCAK256 PUSH0 SWAP2 POP SWAP1 POP DUP1 PUSH0 ADD DUP1 SLOAD PUSH2 0x8EB SWAP1 PUSH2 0x1186 JUMP JUMPDEST DUP1 PUSH1 0x1F ADD PUSH1 0x20 DUP1 SWAP2 DIV MUL PUSH1 0x20 ADD PUSH1 0x40 MLOAD SWAP1 DUP2 ADD PUSH1 0x40 MSTORE DUP1 SWAP3 SWAP2 SWAP1 DUP2 DUP2 MSTORE PUSH1 0x20 ADD DUP3 DUP1 SLOAD PUSH2 0x917 SWAP1 PUSH2 0x1186 JUMP JUMPDEST DUP1 ISZERO PUSH2 0x962 JUMPI DUP1 PUSH1 0x1F LT PUSH2 0x939 JUMPI PUSH2 0x100 DUP1 DUP4 SLOAD DIV MUL DUP4 MSTORE SWAP2 PUSH1 0x20 ADD SWAP2 PUSH2 0x962 JUMP JUMPDEST DUP3 ADD SWAP2 SWAP1 PUSH0 MSTORE PUSH1 0x20 PUSH0 KECCAK256 SWAP1 JUMPDEST DUP2 SLOAD DUP2 MSTORE SWAP1 PUSH1 0x1 ADD SWAP1 PUSH1 0x20 ADD DUP1 DUP4 GT PUSH2 0x945 JUMPI DUP3 SWAP1 SUB PUSH1 0x1F AND DUP3 ADD SWAP2 JUMPDEST POP POP POP POP POP SWAP1 DUP1 PUSH1 0x1 ADD PUSH0 SWAP1 SLOAD SWAP1 PUSH2 0x100 EXP SWAP1 DIV PUSH20 0xFFFFFFFFFFFFFFFFFFFFFFFFFFFFFFFFFFFFFFFF AND SWAP1 DUP1 PUSH1 0x2 ADD SLOAD SWAP1 DUP1 PUSH1 0x3 ADD PUSH0 SWAP1 SLOAD SWAP1 PUSH2 0x100 EXP SWAP1 DIV PUSH1 0xFF AND SWAP1 DUP1 PUSH1 0x4 ADD SLOAD SWAP1 POP DUP6 JUMP JUMPDEST PUSH1 0x3 SLOAD DUP2 JUMP JUMPDEST PUSH1 0x8 SLOAD DUP2 JUMP JUMPDEST PUSH1 0x4 SLOAD TIMESTAMP GT PUSH2 0x9FF JUMPI PUSH1 0x40 MLOAD PUSH32 0x8C379A000000000000000000000000000000000000000000000000000000000 DUP2 MSTORE PUSH1 0x4 ADD PUSH2 0x9F6 SWAP1 PUSH2 0x17CA JUMP JUMPDEST PUSH1 0x40 MLOAD DUP1 SWAP2 SUB SWAP1 REVERT JUMPDEST PUSH1 0x5 SLOAD PUSH1 0x6 SLOAD LT PUSH2 0xA45 JUMPI PUSH1 0x40 MLOAD PUSH32 0x8C379A000000000000000000000000000000000000000000000000000000000 DUP2 MSTORE PUSH1 0x4 ADD PUSH2 0xA3C SWAP1 PUSH2 0x1832 JUMP JUMPDEST PUSH1 0x40 MLOAD DUP1 SWAP2 SUB SWAP1 REVERT JUMPDEST PUSH0 DUP1 PUSH0 CALLER PUSH20 0xFFFFFFFFFFFFFFFFFFFFFFFFFFFFFFFFFFFFFFFF AND PUSH20 0xFFFFFFFFFFFFFFFFFFFFFFFFFFFFFFFFFFFFFFFF AND DUP2 MSTORE PUSH1 0x20 ADD SWAP1 DUP2 MSTORE PUSH1 0x20 ADD PUSH0 KECCAK256 SLOAD GT PUSH2 0xA8C JUMPI PUSH0 DUP1 REVERT JUMPDEST PUSH0 CALLER SWAP1 POP PUSH0 DUP1 PUSH0 CALLER PUSH20 0xFFFFFFFFFFFFFFFFFFFFFFFFFFFFFFFFFFFFFFFF AND PUSH20 0xFFFFFFFFFFFFFFFFFFFFFFFFFFFFFFFFFFFFFFFF AND DUP2 MSTORE PUSH1 0x20 ADD SWAP1 DUP2 MSTORE PUSH1 0x20 ADD PUSH0 KECCAK256 SLOAD SWAP1 POP PUSH0 DUP1 PUSH0 CALLER PUSH20 0xFFFFFFFFFFFFFFFFFFFFFFFFFFFFFFFFFFFFFFFF AND PUSH20 0xFFFFFFFFFFFFFFFFFFFFFFFFFFFFFFFFFFFFFFFF AND DUP2 MSTORE PUSH1 0x20 ADD SWAP1 DUP2 MSTORE PUSH1 0x20 ADD PUSH0 KECCAK256 DUP2 SWAP1 SSTORE POP DUP2 PUSH20 0xFFFFFFFFFFFFFFFFFFFFFFFFFFFFFFFFFFFFFFFF AND PUSH2 0x8FC DUP3 SWAP1 DUP2 ISZERO MUL SWAP1 PUSH1 0x40 MLOAD PUSH0 PUSH1 0x40 MLOAD DUP1 DUP4 SUB DUP2 DUP6 DUP9 DUP9 CALL SWAP4 POP POP POP POP ISZERO DUP1 ISZERO PUSH2 0xB54 JUMPI RETURNDATASIZE PUSH0 DUP1 RETURNDATACOPY RETURNDATASIZE PUSH0 REVERT JUMPDEST POP POP POP JUMP JUMPDEST PUSH1 0x6 SLOAD DUP2 JUMP JUMPDEST PUSH1 0x4 SLOAD TIMESTAMP LT PUSH2 0xBA3 JUMPI PUSH1 0x40 MLOAD PUSH32 0x8C379A000000000000000000000000000000000000000000000000000000000 DUP2 MSTORE PUSH1 0x4 ADD PUSH2 0xB9A SWAP1 PUSH2 0x189A JUMP JUMPDEST PUSH1 0x40 MLOAD DUP1 SWAP2 SUB SWAP1 REVERT JUMPDEST PUSH1 0x3 SLOAD CALLVALUE LT ISZERO PUSH2 0xBE8 JUMPI PUSH1 0x40 MLOAD PUSH32 0x8C379A000000000000000000000000000000000000000000000000000000000 DUP2 MSTORE PUSH1 0x4 ADD PUSH2 0xBDF SWAP1 PUSH2 0x1928 JUMP JUMPDEST PUSH1 0x40 MLOAD DUP1 SWAP2 SUB SWAP1 REVERT JUMPDEST PUSH0 DUP1 PUSH0 CALLER PUSH20 0xFFFFFFFFFFFFFFFFFFFFFFFFFFFFFFFFFFFFFFFF AND PUSH20 0xFFFFFFFFFFFFFFFFFFFFFFFFFFFFFFFFFFFFFFFF AND DUP2 MSTORE PUSH1 0x20 ADD SWAP1 DUP2 MSTORE PUSH1 0x20 ADD PUSH0 KECCAK256 SLOAD SUB PUSH2 0xC43 JUMPI PUSH1 0x2 PUSH0 DUP2 SLOAD DUP1 SWAP3 SWAP2 SWAP1 PUSH2 0xC3D SWAP1 PUSH2 0x10DB JUMP JUMPDEST SWAP2 SWAP1 POP SSTORE POP JUMPDEST CALLVALUE PUSH0 DUP1 CALLER PUSH20 0xFFFFFFFFFFFFFFFFFFFFFFFFFFFFFFFFFFFFFFFF AND PUSH20 0xFFFFFFFFFFFFFFFFFFFFFFFFFFFFFFFFFFFFFFFF AND DUP2 MSTORE PUSH1 0x20 ADD SWAP1 DUP2 MSTORE PUSH1 0x20 ADD PUSH0 KECCAK256 PUSH0 DUP3 DUP3 SLOAD PUSH2 0xC8E SWAP2 SWAP1 PUSH2 0x1946 JUMP JUMPDEST SWAP3 POP POP DUP2 SWAP1 SSTORE POP CALLVALUE PUSH1 0x6 PUSH0 DUP3 DUP3 SLOAD PUSH2 0xCA6 SWAP2 SWAP1 PUSH2 0x1946 JUMP JUMPDEST SWAP3 POP POP DUP2 SWAP1 SSTORE POP PUSH32 0x2DAF61DEC57A2C194E9E87958B1A40A5C236B5E8C6041655D664DDBD16C29320 CALLER CALLVALUE PUSH1 0x40 MLOAD PUSH2 0xCDE SWAP3 SWAP2 SWAP1 PUSH2 0x1979 JUMP JUMPDEST PUSH1 0x40 MLOAD DUP1 SWAP2 SUB SWAP1 LOG1 JUMP JUMPDEST PUSH1 0x1 PUSH0 SWAP1 SLOAD SWAP1 PUSH2 0x100 EXP SWAP1 DIV PUSH20 0xFFFFFFFFFFFFFFFFFFFFFFFFFFFFFFFFFFFFFFFF AND DUP2 JUMP JUMPDEST PUSH0 DUP2 SWAP1 POP SWAP2 SWAP1 POP JUMP JUMPDEST PUSH2 0xD1F DUP2 PUSH2 0xD0D JUMP JUMPDEST DUP3 MSTORE POP POP JUMP JUMPDEST PUSH0 PUSH1 0x20 DUP3 ADD SWAP1 POP PUSH2 0xD38 PUSH0 DUP4 ADD DUP5 PUSH2 0xD16 JUMP JUMPDEST SWAP3 SWAP2 POP POP JUMP JUMPDEST PUSH0 DUP1 REVERT JUMPDEST PUSH0 DUP1 REVERT JUMPDEST PUSH0 DUP1 REVERT JUMPDEST PUSH0 DUP1 REVERT JUMPDEST PUSH0 DUP1 REVERT JUMPDEST PUSH0 DUP1 DUP4 PUSH1 0x1F DUP5 ADD SLT PUSH2 0xD67 JUMPI PUSH2 0xD66 PUSH2 0xD46 JUMP JUMPDEST JUMPDEST DUP3 CALLDATALOAD SWAP1 POP PUSH8 0xFFFFFFFFFFFFFFFF DUP2 GT ISZERO PUSH2 0xD84 JUMPI PUSH2 0xD83 PUSH2 0xD4A JUMP JUMPDEST JUMPDEST PUSH1 0x20 DUP4 ADD SWAP2 POP DUP4 PUSH1 0x1 DUP3 MUL DUP4 ADD GT ISZERO PUSH2 0xDA0 JUMPI PUSH2 0xD9F PUSH2 0xD4E JUMP JUMPDEST JUMPDEST SWAP3 POP SWAP3 SWAP1 POP JUMP JUMPDEST PUSH0 PUSH20 0xFFFFFFFFFFFFFFFFFFFFFFFFFFFFFFFFFFFFFFFF DUP3 AND SWAP1 POP SWAP2 SWAP1 POP JUMP JUMPDEST PUSH0 PUSH2 0xDD0 DUP3 PUSH2 0xDA7 JUMP JUMPDEST SWAP1 POP SWAP2 SWAP1 POP JUMP JUMPDEST PUSH2 0xDE0 DUP2 PUSH2 0xDC6 JUMP JUMPDEST DUP2 EQ PUSH2 0xDEA JUMPI PUSH0 DUP1 REVERT JUMPDEST POP JUMP JUMPDEST PUSH0 DUP2 CALLDATALOAD SWAP1 POP PUSH2 0xDFB DUP2 PUSH2 0xDD7 JUMP JUMPDEST SWAP3 SWAP2 POP POP JUMP JUMPDEST PUSH2 0xE0A DUP2 PUSH2 0xD0D JUMP JUMPDEST DUP2 EQ PUSH2 0xE14 JUMPI PUSH0 DUP1 REVERT JUMPDEST POP JUMP JUMPDEST PUSH0 DUP2 CALLDATALOAD SWAP1 POP PUSH2 0xE25 DUP2 PUSH2 0xE01 JUMP JUMPDEST SWAP3 SWAP2 POP POP JUMP JUMPDEST PUSH0 DUP1 PUSH0 DUP1 PUSH1 0x60 DUP6 DUP8 SUB SLT ISZERO PUSH2 0xE43 JUMPI PUSH2 0xE42 PUSH2 0xD3E JUMP JUMPDEST JUMPDEST PUSH0 DUP6 ADD CALLDATALOAD PUSH8 0xFFFFFFFFFFFFFFFF DUP2 GT ISZERO PUSH2 0xE60 JUMPI PUSH2 0xE5F PUSH2 0xD42 JUMP JUMPDEST JUMPDEST PUSH2 0xE6C DUP8 DUP3 DUP9 ADD PUSH2 0xD52 JUMP JUMPDEST SWAP5 POP SWAP5 POP POP PUSH1 0x20 PUSH2 0xE7F DUP8 DUP3 DUP9 ADD PUSH2 0xDED JUMP JUMPDEST SWAP3 POP POP PUSH1 0x40 PUSH2 0xE90 DUP8 DUP3 DUP9 ADD PUSH2 0xE17 JUMP JUMPDEST SWAP2 POP POP SWAP3 SWAP6 SWAP2 SWAP5 POP SWAP3 POP JUMP JUMPDEST PUSH0 PUSH2 0xEA6 DUP3 PUSH2 0xDA7 JUMP JUMPDEST SWAP1 POP SWAP2 SWAP1 POP JUMP JUMPDEST PUSH2 0xEB6 DUP2 PUSH2 0xE9C JUMP JUMPDEST DUP2 EQ PUSH2 0xEC0 JUMPI PUSH0 DUP1 REVERT JUMPDEST POP JUMP JUMPDEST PUSH0 DUP2 CALLDATALOAD SWAP1 POP PUSH2 0xED1 DUP2 PUSH2 0xEAD JUMP JUMPDEST SWAP3 SWAP2 POP POP JUMP JUMPDEST PUSH0 PUSH1 0x20 DUP3 DUP5 SUB SLT ISZERO PUSH2 0xEEC JUMPI PUSH2 0xEEB PUSH2 0xD3E JUMP JUMPDEST JUMPDEST PUSH0 PUSH2 0xEF9 DUP5 DUP3 DUP6 ADD PUSH2 0xEC3 JUMP JUMPDEST SWAP2 POP POP SWAP3 SWAP2 POP POP JUMP JUMPDEST PUSH0 PUSH1 0x20 DUP3 DUP5 SUB SLT ISZERO PUSH2 0xF17 JUMPI PUSH2 0xF16 PUSH2 0xD3E JUMP JUMPDEST JUMPDEST PUSH0 PUSH2 0xF24 DUP5 DUP3 DUP6 ADD PUSH2 0xE17 JUMP JUMPDEST SWAP2 POP POP SWAP3 SWAP2 POP POP JUMP JUMPDEST PUSH0 DUP2 MLOAD SWAP1 POP SWAP2 SWAP1 POP JUMP JUMPDEST PUSH0 DUP3 DUP3 MSTORE PUSH1 0x20 DUP3 ADD SWAP1 POP SWAP3 SWAP2 POP POP JUMP JUMPDEST DUP3 DUP2 DUP4 MCOPY PUSH0 DUP4 DUP4 ADD MSTORE POP POP POP JUMP JUMPDEST PUSH0 PUSH1 0x1F NOT PUSH1 0x1F DUP4 ADD AND SWAP1 POP SWAP2 SWAP1 POP JUMP JUMPDEST PUSH0 PUSH2 0xF6F DUP3 PUSH2 0xF2D JUMP JUMPDEST PUSH2 0xF79 DUP2 DUP6 PUSH2 0xF37 JUMP JUMPDEST SWAP4 POP PUSH2 0xF89 DUP2 DUP6 PUSH1 0x20 DUP7 ADD PUSH2 0xF47 JUMP JUMPDEST PUSH2 0xF92 DUP2 PUSH2 0xF55 JUMP JUMPDEST DUP5 ADD SWAP2 POP POP SWAP3 SWAP2 POP POP JUMP JUMPDEST PUSH2 0xFA6 DUP2 PUSH2 0xDC6 JUMP JUMPDEST DUP3 MSTORE POP POP JUMP JUMPDEST PUSH0 DUP2 ISZERO ISZERO SWAP1 POP SWAP2 SWAP1 POP JUMP JUMPDEST PUSH2 0xFC0 DUP2 PUSH2 0xFAC JUMP JUMPDEST DUP3 MSTORE POP POP JUMP JUMPDEST PUSH0 PUSH1 0xA0 DUP3 ADD SWAP1 POP DUP2 DUP2 SUB PUSH0 DUP4 ADD MSTORE PUSH2 0xFDE DUP2 DUP9 PUSH2 0xF65 JUMP JUMPDEST SWAP1 POP PUSH2 0xFED PUSH1 0x20 DUP4 ADD DUP8 PUSH2 0xF9D JUMP JUMPDEST PUSH2 0xFFA PUSH1 0x40 DUP4 ADD DUP7 PUSH2 0xD16 JUMP JUMPDEST PUSH2 0x1007 PUSH1 0x60 DUP4 ADD DUP6 PUSH2 0xFB7 JUMP JUMPDEST PUSH2 0x1014 PUSH1 0x80 DUP4 ADD DUP5 PUSH2 0xD16 JUMP JUMPDEST SWAP7 SWAP6 POP POP POP POP POP POP JUMP JUMPDEST PUSH2 0x1027 DUP2 PUSH2 0xE9C JUMP JUMPDEST DUP3 MSTORE POP POP JUMP JUMPDEST PUSH0 PUSH1 0x20 DUP3 ADD SWAP1 POP PUSH2 0x1040 PUSH0 DUP4 ADD DUP5 PUSH2 0x101E JUMP JUMPDEST SWAP3 SWAP2 POP POP JUMP JUMPDEST PUSH32 0x4F6E6C792061646D696E2063616E206578656375746520746869730000000000 PUSH0 DUP3 ADD MSTORE POP JUMP JUMPDEST PUSH0 PUSH2 0x107A PUSH1 0x1B DUP4 PUSH2 0xF37 JUMP JUMPDEST SWAP2 POP PUSH2 0x1085 DUP3 PUSH2 0x1046 JUMP JUMPDEST PUSH1 0x20 DUP3 ADD SWAP1 POP SWAP2 SWAP1 POP JUMP JUMPDEST PUSH0 PUSH1 0x20 DUP3 ADD SWAP1 POP DUP2 DUP2 SUB PUSH0 DUP4 ADD MSTORE PUSH2 0x10A7 DUP2 PUSH2 0x106E JUMP JUMPDEST SWAP1 POP SWAP2 SWAP1 POP JUMP JUMPDEST PUSH32 0x4E487B7100000000000000000000000000000000000000000000000000000000 PUSH0 MSTORE PUSH1 0x11 PUSH1 0x4 MSTORE PUSH1 0x24 PUSH0 REVERT JUMPDEST PUSH0 PUSH2 0x10E5 DUP3 PUSH2 0xD0D JUMP JUMPDEST SWAP2 POP PUSH32 0xFFFFFFFFFFFFFFFFFFFFFFFFFFFFFFFFFFFFFFFFFFFFFFFFFFFFFFFFFFFFFFFF DUP3 SUB PUSH2 0x1117 JUMPI PUSH2 0x1116 PUSH2 0x10AE JUMP JUMPDEST JUMPDEST PUSH1 0x1 DUP3 ADD SWAP1 POP SWAP2 SWAP1 POP JUMP JUMPDEST PUSH0 DUP3 SWAP1 POP SWAP3 SWAP2 POP POP JUMP JUMPDEST PUSH32 0x4E487B7100000000000000000000000000000000000000000000000000000000 PUSH0 MSTORE PUSH1 0x41 PUSH1 0x4 MSTORE PUSH1 0x24 PUSH0 REVERT JUMPDEST PUSH32 0x4E487B7100000000000000000000000000000000000000000000000000000000 PUSH0 MSTORE PUSH1 0x22 PUSH1 0x4 MSTORE PUSH1 0x24 PUSH0 REVERT JUMPDEST PUSH0 PUSH1 0x2 DUP3 DIV SWAP1 POP PUSH1 0x1 DUP3 AND DUP1 PUSH2 0x119D JUMPI PUSH1 0x7F DUP3 AND SWAP2 POP JUMPDEST PUSH1 0x20 DUP3 LT DUP2 SUB PUSH2 0x11B0 JUMPI PUSH2 0x11AF PUSH2 0x1159 JUMP JUMPDEST JUMPDEST POP SWAP2 SWAP1 POP JUMP JUMPDEST PUSH0 DUP2 SWAP1 POP DUP2 PUSH0 MSTORE PUSH1 0x20 PUSH0 KECCAK256 SWAP1 POP SWAP2 SWAP1 POP JUMP JUMPDEST PUSH0 PUSH1 0x20 PUSH1 0x1F DUP4 ADD DIV SWAP1 POP SWAP2 SWAP1 POP JUMP JUMPDEST PUSH0 DUP3 DUP3 SHL SWAP1 POP SWAP3 SWAP2 POP POP JUMP JUMPDEST PUSH0 PUSH1 0x8 DUP4 MUL PUSH2 0x1212 PUSH32 0xFFFFFFFFFFFFFFFFFFFFFFFFFFFFFFFFFFFFFFFFFFFFFFFFFFFFFFFFFFFFFFFF DUP3 PUSH2 0x11D7 JUMP JUMPDEST PUSH2 0x121C DUP7 DUP4 PUSH2 0x11D7 JUMP JUMPDEST SWAP6 POP DUP1 NOT DUP5 AND SWAP4 POP DUP1 DUP7 AND DUP5 OR SWAP3 POP POP POP SWAP4 SWAP3 POP POP POP JUMP JUMPDEST PUSH0 DUP2 SWAP1 POP SWAP2 SWAP1 POP JUMP JUMPDEST PUSH0 PUSH2 0x1257 PUSH2 0x1252 PUSH2 0x124D DUP5 PUSH2 0xD0D JUMP JUMPDEST PUSH2 0x1234 JUMP JUMPDEST PUSH2 0xD0D JUMP JUMPDEST SWAP1 POP SWAP2 SWAP1 POP JUMP JUMPDEST PUSH0 DUP2 SWAP1 POP SWAP2 SWAP1 POP JUMP JUMPDEST PUSH2 0x1270 DUP4 PUSH2 0x123D JUMP JUMPDEST PUSH2 0x1284 PUSH2 0x127C DUP3 PUSH2 0x125E JUMP JUMPDEST DUP5 DUP5 SLOAD PUSH2 0x11E3 JUMP JUMPDEST DUP3 SSTORE POP POP POP POP JUMP JUMPDEST PUSH0 SWAP1 JUMP JUMPDEST PUSH2 0x1298 PUSH2 0x128C JUMP JUMPDEST PUSH2 0x12A3 DUP2 DUP5 DUP5 PUSH2 0x1267 JUMP JUMPDEST POP POP POP JUMP JUMPDEST JUMPDEST DUP2 DUP2 LT ISZERO PUSH2 0x12C6 JUMPI PUSH2 0x12BB PUSH0 DUP3 PUSH2 0x1290 JUMP JUMPDEST PUSH1 0x1 DUP2 ADD SWAP1 POP PUSH2 0x12A9 JUMP JUMPDEST POP POP JUMP JUMPDEST PUSH1 0x1F DUP3 GT ISZERO PUSH2 0x130B JUMPI PUSH2 0x12DC DUP2 PUSH2 0x11B6 JUMP JUMPDEST PUSH2 0x12E5 DUP5 PUSH2 0x11C8 JUMP JUMPDEST DUP2 ADD PUSH1 0x20 DUP6 LT ISZERO PUSH2 0x12F4 JUMPI DUP2 SWAP1 POP JUMPDEST PUSH2 0x1308 PUSH2 0x1300 DUP6 PUSH2 0x11C8 JUMP JUMPDEST DUP4 ADD DUP3 PUSH2 0x12A8 JUMP JUMPDEST POP POP JUMPDEST POP POP POP JUMP JUMPDEST PUSH0 DUP3 DUP3 SHR SWAP1 POP SWAP3 SWAP2 POP POP JUMP JUMPDEST PUSH0 PUSH2 0x132B PUSH0 NOT DUP5 PUSH1 0x8 MUL PUSH2 0x1310 JUMP JUMPDEST NOT DUP1 DUP4 AND SWAP2 POP POP SWAP3 SWAP2 POP POP JUMP JUMPDEST PUSH0 PUSH2 0x1343 DUP4 DUP4 PUSH2 0x131C JUMP JUMPDEST SWAP2 POP DUP3 PUSH1 0x2 MUL DUP3 OR SWAP1 POP SWAP3 SWAP2 POP POP JUMP JUMPDEST PUSH2 0x135D DUP4 DUP4 PUSH2 0x1122 JUMP JUMPDEST PUSH8 0xFFFFFFFFFFFFFFFF DUP2 GT ISZERO PUSH2 0x1376 JUMPI PUSH2 0x1375 PUSH2 0x112C JUMP JUMPDEST JUMPDEST PUSH2 0x1380 DUP3 SLOAD PUSH2 0x1186 JUMP JUMPDEST PUSH2 0x138B DUP3 DUP3 DUP6 PUSH2 0x12CA JUMP JUMPDEST PUSH0 PUSH1 0x1F DUP4 GT PUSH1 0x1 DUP2 EQ PUSH2 0x13B8 JUMPI PUSH0 DUP5 ISZERO PUSH2 0x13A6 JUMPI DUP3 DUP8 ADD CALLDATALOAD SWAP1 POP JUMPDEST PUSH2 0x13B0 DUP6 DUP3 PUSH2 0x1338 JUMP JUMPDEST DUP7 SSTORE POP PUSH2 0x1417 JUMP JUMPDEST PUSH1 0x1F NOT DUP5 AND PUSH2 0x13C6 DUP7 PUSH2 0x11B6 JUMP JUMPDEST PUSH0 JUMPDEST DUP3 DUP2 LT ISZERO PUSH2 0x13ED JUMPI DUP5 DUP10 ADD CALLDATALOAD DUP3 SSTORE PUSH1 0x1 DUP3 ADD SWAP2 POP PUSH1 0x20 DUP6 ADD SWAP5 POP PUSH1 0x20 DUP2 ADD SWAP1 POP PUSH2 0x13C8 JUMP JUMPDEST DUP7 DUP4 LT ISZERO PUSH2 0x140A JUMPI DUP5 DUP10 ADD CALLDATALOAD PUSH2 0x1406 PUSH1 0x1F DUP10 AND DUP3 PUSH2 0x131C JUMP JUMPDEST DUP4 SSTORE POP JUMPDEST PUSH1 0x1 PUSH1 0x2 DUP9 MUL ADD DUP9 SSTORE POP POP POP JUMPDEST POP POP POP POP POP POP POP JUMP JUMPDEST DUP3 DUP2 DUP4 CALLDATACOPY PUSH0 DUP4 DUP4 ADD MSTORE POP POP POP JUMP JUMPDEST PUSH0 PUSH2 0x1439 DUP4 DUP6 PUSH2 0xF37 JUMP JUMPDEST SWAP4 POP PUSH2 0x1446 DUP4 DUP6 DUP5 PUSH2 0x1420 JUMP JUMPDEST PUSH2 0x144F DUP4 PUSH2 0xF55 JUMP JUMPDEST DUP5 ADD SWAP1 POP SWAP4 SWAP3 POP POP POP JUMP JUMPDEST PUSH0 PUSH2 0x1474 PUSH2 0x146F PUSH2 0x146A DUP5 PUSH2 0xDA7 JUMP JUMPDEST PUSH2 0x1234 JUMP JUMPDEST PUSH2 0xDA7 JUMP JUMPDEST SWAP1 POP SWAP2 SWAP1 POP JUMP JUMPDEST PUSH0 PUSH2 0x1485 DUP3 PUSH2 0x145A JUMP JUMPDEST SWAP1 POP SWAP2 SWAP1 POP JUMP JUMPDEST PUSH0 PUSH2 0x1496 DUP3 PUSH2 0x147B JUMP JUMPDEST SWAP1 POP SWAP2 SWAP1 POP JUMP JUMPDEST PUSH2 0x14A6 DUP2 PUSH2 0x148C JUMP JUMPDEST DUP3 MSTORE POP POP JUMP JUMPDEST PUSH0 PUSH1 0x60 DUP3 ADD SWAP1 POP DUP2 DUP2 SUB PUSH0 DUP4 ADD MSTORE PUSH2 0x14C5 DUP2 DUP7 DUP9 PUSH2 0x142E JUMP JUMPDEST SWAP1 POP PUSH2 0x14D4 PUSH1 0x20 DUP4 ADD DUP6 PUSH2 0x149D JUMP JUMPDEST PUSH2 0x14E1 PUSH1 0x40 DUP4 ADD DUP5 PUSH2 0xD16 JUMP JUMPDEST SWAP6 SWAP5 POP POP POP POP POP JUMP JUMPDEST PUSH32 0x596F75206D757374206265206120636F6E7472696275746F7220746F20766F74 PUSH0 DUP3 ADD MSTORE PUSH32 0x6521000000000000000000000000000000000000000000000000000000000000 PUSH1 0x20 DUP3 ADD MSTORE POP JUMP JUMPDEST PUSH0 PUSH2 0x1544 PUSH1 0x22 DUP4 PUSH2 0xF37 JUMP JUMPDEST SWAP2 POP PUSH2 0x154F DUP3 PUSH2 0x14EA JUMP JUMPDEST PUSH1 0x40 DUP3 ADD SWAP1 POP SWAP2 SWAP1 POP JUMP JUMPDEST PUSH0 PUSH1 0x20 DUP3 ADD SWAP1 POP DUP2 DUP2 SUB PUSH0 DUP4 ADD MSTORE PUSH2 0x1571 DUP2 PUSH2 0x1538 JUMP JUMPDEST SWAP1 POP SWAP2 SWAP1 POP JUMP JUMPDEST PUSH32 0x596F75206861766520616C726561647920766F74656421000000000000000000 PUSH0 DUP3 ADD MSTORE POP JUMP JUMPDEST PUSH0 PUSH2 0x15AC PUSH1 0x17 DUP4 PUSH2 0xF37 JUMP JUMPDEST SWAP2 POP PUSH2 0x15B7 DUP3 PUSH2 0x1578 JUMP JUMPDEST PUSH1 0x20 DUP3 ADD SWAP1 POP SWAP2 SWAP1 POP JUMP JUMPDEST PUSH0 PUSH1 0x20 DUP3 ADD SWAP1 POP DUP2 DUP2 SUB PUSH0 DUP4 ADD MSTORE PUSH2 0x15D9 DUP2 PUSH2 0x15A0 JUMP JUMPDEST SWAP1 POP SWAP2 SWAP1 POP JUMP JUMPDEST PUSH32 0x546865207265717565737420686173206265656E20616C726561647920636F6D PUSH0 DUP3 ADD MSTORE PUSH32 0x706C657465642100000000000000000000000000000000000000000000000000 PUSH1 0x20 DUP3 ADD MSTORE POP JUMP JUMPDEST PUSH0 PUSH2 0x163A PUSH1 0x27 DUP4 PUSH2 0xF37 JUMP JUMPDEST SWAP2 POP PUSH2 0x1645 DUP3 PUSH2 0x15E0 JUMP JUMPDEST PUSH1 0x40 DUP3 ADD SWAP1 POP SWAP2 SWAP1 POP JUMP JUMPDEST PUSH0 PUSH1 0x20 DUP3 ADD SWAP1 POP DUP2 DUP2 SUB PUSH0 DUP4 ADD MSTORE PUSH2 0x1667 DUP2 PUSH2 0x162E JUMP JUMPDEST SWAP1 POP SWAP2 SWAP1 POP JUMP JUMPDEST PUSH32 0x4E487B7100000000000000000000000000000000000000000000000000000000 PUSH0 MSTORE PUSH1 0x12 PUSH1 0x4 MSTORE PUSH1 0x24 PUSH0 REVERT JUMPDEST PUSH0 PUSH2 0x16A5 DUP3 PUSH2 0xD0D JUMP JUMPDEST SWAP2 POP PUSH2 0x16B0 DUP4 PUSH2 0xD0D JUMP JUMPDEST SWAP3 POP DUP3 PUSH2 0x16C0 JUMPI PUSH2 0x16BF PUSH2 0x166E JUMP JUMPDEST JUMPDEST DUP3 DUP3 DIV SWAP1 POP SWAP3 SWAP2 POP POP JUMP JUMPDEST PUSH32 0x5468652072657175657374206E65656473206D6F7265207468616E2035302520 PUSH0 DUP3 ADD MSTORE PUSH32 0x6F662074686520636F6E7472696275746F72732E000000000000000000000000 PUSH1 0x20 DUP3 ADD MSTORE POP JUMP JUMPDEST PUSH0 PUSH2 0x1725 PUSH1 0x34 DUP4 PUSH2 0xF37 JUMP JUMPDEST SWAP2 POP PUSH2 0x1730 DUP3 PUSH2 0x16CB JUMP JUMPDEST PUSH1 0x40 DUP3 ADD SWAP1 POP SWAP2 SWAP1 POP JUMP JUMPDEST PUSH0 PUSH1 0x20 DUP3 ADD SWAP1 POP DUP2 DUP2 SUB PUSH0 DUP4 ADD MSTORE PUSH2 0x1752 DUP2 PUSH2 0x1719 JUMP JUMPDEST SWAP1 POP SWAP2 SWAP1 POP JUMP JUMPDEST PUSH0 PUSH1 0x40 DUP3 ADD SWAP1 POP PUSH2 0x176C PUSH0 DUP4 ADD DUP6 PUSH2 0x149D JUMP JUMPDEST PUSH2 0x1779 PUSH1 0x20 DUP4 ADD DUP5 PUSH2 0xD16 JUMP JUMPDEST SWAP4 SWAP3 POP POP POP JUMP JUMPDEST PUSH32 0x446561646C696E6520686173206E6F74207061737365642E0000000000000000 PUSH0 DUP3 ADD MSTORE POP JUMP JUMPDEST PUSH0 PUSH2 0x17B4 PUSH1 0x18 DUP4 PUSH2 0xF37 JUMP JUMPDEST SWAP2 POP PUSH2 0x17BF DUP3 PUSH2 0x1780 JUMP JUMPDEST PUSH1 0x20 DUP3 ADD SWAP1 POP SWAP2 SWAP1 POP JUMP JUMPDEST PUSH0 PUSH1 0x20 DUP3 ADD SWAP1 POP DUP2 DUP2 SUB PUSH0 DUP4 ADD MSTORE PUSH2 0x17E1 DUP2 PUSH2 0x17A8 JUMP JUMPDEST SWAP1 POP SWAP2 SWAP1 POP JUMP JUMPDEST PUSH32 0x54686520676F616C20776173206D657400000000000000000000000000000000 PUSH0 DUP3 ADD MSTORE POP JUMP JUMPDEST PUSH0 PUSH2 0x181C PUSH1 0x10 DUP4 PUSH2 0xF37 JUMP JUMPDEST SWAP2 POP PUSH2 0x1827 DUP3 PUSH2 0x17E8 JUMP JUMPDEST PUSH1 0x20 DUP3 ADD SWAP1 POP SWAP2 SWAP1 POP JUMP JUMPDEST PUSH0 PUSH1 0x20 DUP3 ADD SWAP1 POP DUP2 DUP2 SUB PUSH0 DUP4 ADD MSTORE PUSH2 0x1849 DUP2 PUSH2 0x1810 JUMP JUMPDEST SWAP1 POP SWAP2 SWAP1 POP JUMP JUMPDEST PUSH32 0x54686520446561646C696E652068617320706173736564210000000000000000 PUSH0 DUP3 ADD MSTORE POP JUMP JUMPDEST PUSH0 PUSH2 0x1884 PUSH1 0x18 DUP4 PUSH2 0xF37 JUMP JUMPDEST SWAP2 POP PUSH2 0x188F DUP3 PUSH2 0x1850 JUMP JUMPDEST PUSH1 0x20 DUP3 ADD SWAP1 POP SWAP2 SWAP1 POP JUMP JUMPDEST PUSH0 PUSH1 0x20 DUP3 ADD SWAP1 POP DUP2 DUP2 SUB PUSH0 DUP4 ADD MSTORE PUSH2 0x18B1 DUP2 PUSH2 0x1878 JUMP JUMPDEST SWAP1 POP SWAP2 SWAP1 POP JUMP JUMPDEST PUSH32 0x546865204D696E696D756D20436F6E747269627574696F6E206E6F74206D6574 PUSH0 DUP3 ADD MSTORE PUSH32 0x2100000000000000000000000000000000000000000000000000000000000000 PUSH1 0x20 DUP3 ADD MSTORE POP JUMP JUMPDEST PUSH0 PUSH2 0x1912 PUSH1 0x21 DUP4 PUSH2 0xF37 JUMP JUMPDEST SWAP2 POP PUSH2 0x191D DUP3 PUSH2 0x18B8 JUMP JUMPDEST PUSH1 0x40 DUP3 ADD SWAP1 POP SWAP2 SWAP1 POP JUMP JUMPDEST PUSH0 PUSH1 0x20 DUP3 ADD SWAP1 POP DUP2 DUP2 SUB PUSH0 DUP4 ADD MSTORE PUSH2 0x193F DUP2 PUSH2 0x1906 JUMP JUMPDEST SWAP1 POP SWAP2 SWAP1 POP JUMP JUMPDEST PUSH0 PUSH2 0x1950 DUP3 PUSH2 0xD0D JUMP JUMPDEST SWAP2 POP PUSH2 0x195B DUP4 PUSH2 0xD0D JUMP JUMPDEST SWAP3 POP DUP3 DUP3 ADD SWAP1 POP DUP1 DUP3 GT ISZERO PUSH2 0x1973 JUMPI PUSH2 0x1972 PUSH2 0x10AE JUMP JUMPDEST JUMPDEST SWAP3 SWAP2 POP POP JUMP JUMPDEST PUSH0 PUSH1 0x40 DUP3 ADD SWAP1 POP PUSH2 0x198C PUSH0 DUP4 ADD DUP6 PUSH2 0x101E JUMP JUMPDEST PUSH2 0x1999 PUSH1 0x20 DUP4 ADD DUP5 PUSH2 0xD16 JUMP JUMPDEST SWAP4 SWAP3 POP POP POP JUMP INVALID LOG2 PUSH5 0x6970667358 0x22 SLT KECCAK256 SWAP10 0xDE 0xC5 0x1F CREATE CALLDATASIZE PUSH29 0xEEEA0BB8CAC556953E73CF1438DAFC2B5FEA3D72C068A3502164736F6C PUSH4 0x4300081A STOP CALLER "
				},
				"gasEstimates": {
					"creation": {
						"codeDepositCost": "1322800",
						"executionCost": "infinite",
						"totalCost": "infinite"
					},
					"external": {
						"admin()": "2596",
						"contribute()": "infinite",
						"contributors(address)": "2869",
						"createRequest(string,address,uint256)": "infinite",
						"deadline()": "2448",
						"getBalance()": "358",
						"getRefund()": "infinite",
						"goal()": "2470",
						"makePayment(uint256)": "infinite",
						"minimumContribution()": "2492",
						"noOfContributors()": "2514",
						"numRequests()": "2514",
						"raisedAmount()": "2469",
						"requests(uint256)": "infinite",
						"voteRequest(uint256)": "infinite"
					}
				},
				"methodIdentifiers": {
					"admin()": "f851a440",
					"contribute()": "d7bb99ba",
					"contributors(address)": "1f6d4942",
					"createRequest(string,address,uint256)": "1b16bb5c",
					"deadline()": "29dcb0cf",
					"getBalance()": "12065fe0",
					"getRefund()": "b2d5ae44",
					"goal()": "40193883",
					"makePayment(uint256)": "5114cb52",
					"minimumContribution()": "937e09b1",
					"noOfContributors()": "4e260f6f",
					"numRequests()": "9fb42b1f",
					"raisedAmount()": "c59ee1dc",
					"requests(uint256)": "81d12c58",
					"voteRequest(uint256)": "4cb6f4a5"
				}
			},
			"storageLayout": {
				"storage": [
					{
						"astId": 5,
						"contract": "contracts/crowdfunding.sol:CrowdFunding",
						"label": "contributors",
						"offset": 0,
						"slot": "0",
						"type": "t_mapping(t_address,t_uint256)"
					},
					{
						"astId": 7,
						"contract": "contracts/crowdfunding.sol:CrowdFunding",
						"label": "admin",
						"offset": 0,
						"slot": "1",
						"type": "t_address"
					},
					{
						"astId": 9,
						"contract": "contracts/crowdfunding.sol:CrowdFunding",
						"label": "noOfContributors",
						"offset": 0,
						"slot": "2",
						"type": "t_uint256"
					},
					{
						"astId": 11,
						"contract": "contracts/crowdfunding.sol:CrowdFunding",
						"label": "minimumContribution",
						"offset": 0,
						"slot": "3",
						"type": "t_uint256"
					},
					{
						"astId": 13,
						"contract": "contracts/crowdfunding.sol:CrowdFunding",
						"label": "deadline",
						"offset": 0,
						"slot": "4",
						"type": "t_uint256"
					},
					{
						"astId": 15,
						"contract": "contracts/crowdfunding.sol:CrowdFunding",
						"label": "goal",
						"offset": 0,
						"slot": "5",
						"type": "t_uint256"
					},
					{
						"astId": 17,
						"contract": "contracts/crowdfunding.sol:CrowdFunding",
						"label": "raisedAmount",
						"offset": 0,
						"slot": "6",
						"type": "t_uint256"
					},
					{
						"astId": 37,
						"contract": "contracts/crowdfunding.sol:CrowdFunding",
						"label": "requests",
						"offset": 0,
						"slot": "7",
						"type": "t_mapping(t_uint256,t_struct(Request)32_storage)"
					},
					{
						"astId": 39,
						"contract": "contracts/crowdfunding.sol:CrowdFunding",
						"label": "numRequests",
						"offset": 0,
						"slot": "8",
						"type": "t_uint256"
					}
				],
				"types": {
					"t_address": {
						"encoding": "inplace",
						"label": "address",
						"numberOfBytes": "20"
					},
					"t_address_payable": {
						"encoding": "inplace",
						"label": "address payable",
						"numberOfBytes": "20"
					},
					"t_bool": {
						"encoding": "inplace",
						"label": "bool",
						"numberOfBytes": "1"
					},
					"t_mapping(t_address,t_bool)": {
						"encoding": "mapping",
						"key": "t_address",
						"label": "mapping(address => bool)",
						"numberOfBytes": "32",
						"value": "t_bool"
					},
					"t_mapping(t_address,t_uint256)": {
						"encoding": "mapping",
						"key": "t_address",
						"label": "mapping(address => uint256)",
						"numberOfBytes": "32",
						"value": "t_uint256"
					},
					"t_mapping(t_uint256,t_struct(Request)32_storage)": {
						"encoding": "mapping",
						"key": "t_uint256",
						"label": "mapping(uint256 => struct CrowdFunding.Request)",
						"numberOfBytes": "32",
						"value": "t_struct(Request)32_storage"
					},
					"t_string_storage": {
						"encoding": "bytes",
						"label": "string",
						"numberOfBytes": "32"
					},
					"t_struct(Request)32_storage": {
						"encoding": "inplace",
						"label": "struct CrowdFunding.Request",
						"members": [
							{
								"astId": 19,
								"contract": "contracts/crowdfunding.sol:CrowdFunding",
								"label": "description",
								"offset": 0,
								"slot": "0",
								"type": "t_string_storage"
							},
							{
								"astId": 21,
								"contract": "contracts/crowdfunding.sol:CrowdFunding",
								"label": "recipient",
								"offset": 0,
								"slot": "1",
								"type": "t_address_payable"
							},
							{
								"astId": 23,
								"contract": "contracts/crowdfunding.sol:CrowdFunding",
								"label": "value",
								"offset": 0,
								"slot": "2",
								"type": "t_uint256"
							},
							{
								"astId": 25,
								"contract": "contracts/crowdfunding.sol:CrowdFunding",
								"label": "completed",
								"offset": 0,
								"slot": "3",
								"type": "t_bool"
							},
							{
								"astId": 27,
								"contract": "contracts/crowdfunding.sol:CrowdFunding",
								"label": "noOfVoters",
								"offset": 0,
								"slot": "4",
								"type": "t_uint256"
							},
							{
								"astId": 31,
								"contract": "contracts/crowdfunding.sol:CrowdFunding",
								"label": "voters",
								"offset": 0,
								"slot": "5",
								"type": "t_mapping(t_address,t_bool)"
							}
						],
						"numberOfBytes": "192"
					},
					"t_uint256": {
						"encoding": "inplace",
						"label": "uint256",
						"numberOfBytes": "32"
					}
				}
			},
			"userdoc": {
				"kind": "user",
				"methods": {},
				"version": 1
			}
		}
	}
}